:020000040800F2
:10000000000002201D3300086D3300086D33000826
:100010006D3300086D3300086D33000800000000E8
:10002000000000000000000000000000C1320008D5
:100030006D33000800000000C5320008C932000816
:100040006D3300086D3300086D3300086D33000810
:100050006D3300086D3300086D3300086D33000800
:100060006D3300086D3300086D3300086D330008F0
:100070006D3300086D3300086D3300086D330008E0
:100080006D3300086D3300086D3300086D330008D0
:100090006D3300086D3300086D3300086D330008C0
:1000A0006D3300086D3300086D3300086D330008B0
:1000B0006D3300086D3300086D3300086D330008A0
:1000C0006D3300086D3300086D3300086D33000890
:1000D0006D3300086D3300086D3300086D33000880
:1000E0006D3300086D3300086D3300086D33000870
:1000F0006D3300086D3300086D3300086D33000860
:100100006D3300086D3300086D3300086D3300084F
:100110006D3300086D3300086D3300086D3300083F
:100120006D3300086D3300086D3300086D3300082F
:100130006D33000800000000000000006D3300086F
:100140006D3300086D3300086D3300086D3300080F
:100150006D3300086D3300086D3300086D330008FF
:100160006D3300086D3300086D3300086D330008EF
:100170006D3300086D3300086D3300080000000087
:10018000000000006D3300080000000000000000C7
:100190006D33000800000000000000006D3300080F
:1001A0000000000000000000000000006D330008A7
:1001B0006D3300086D3300086D3300086D3300089F
:0401C0006D33000893
:1001C80010B5054C237833B9044B13B10448AFF389
:1001D80000800123237010BD0C00002000000000E7
:1001E800C833000808B5034B1BB103490348AFF3F4
:1001F800008008BD0000000010000020C83300087F
:1002080081F0004102E000BF83F0004330B54FEABF
:1002180041044FEA430594EA050F08BF90EA020F2C
:100228001FBF54EA000C55EA020C7FEA645C7FEABF
:10023800655C00F0E2804FEA5454D4EB5555B8BFE2
:100248006D420CDD2C4480EA020281EA030382EA53
:10025800000083EA010180EA020281EA0303362DE5
:1002680088BF30BD11F0004F4FEA01314FF4801CB8
:100278004CEA113102D0404261EB410113F0004FCA
:100288004FEA03334CEA133302D0524263EB430381
:1002980094EA050F00F0A780A4F10104D5F1200E1F
:1002A8000DDB02FA0EFC22FA05F2801841F100017A
:1002B80003FA0EF2801843FA05F359410EE0A5F14E
:1002C80020050EF1200E012A03FA0EFC28BF4CF07F
:1002D800020C43FA05F3C01851EBE37101F0004535
:1002E80007D54FF0000EDCF1000C7EEB00006EEB42
:1002F8000101B1F5801F1BD3B1F5001F0CD34908CC
:100308005FEA30004FEA3C0C04F101044FEA445222
:1003180012F5800F80F09A80BCF1004F08BF5FEAA9
:10032800500C50F1000041EB045141EA050130BD89
:100338005FEA4C0C404141EB010111F4801FA4F12C
:100348000104E9D191F0000F04BF01460020B1FA81
:1003580081F308BF2033A3F10B03B3F120020CDAB9
:100368000C3208DD02F1140CC2F10C0201FA0CF097
:1003780021FA02F10CE002F11402D8BFC2F1200CFC
:1003880001FA02F120FA0CFCDCBF41EA0C019040B2
:10039800E41AA2BF01EB0451294330BD6FEA0404FB
:1003A8001F3C1CDA0C340EDC04F11404C4F12002E6
:1003B80020FA04F001FA02F340EA030021FA04F3F8
:1003C80045EA030130BDC4F10C04C4F1200220FA4F
:1003D80002F001FA04F340EA0300294630BD21FA8D
:1003E80004F0294630BD94F0000F83F4801306BF53
:1003F80081F480110134013D4EE77FEA645C18BF47
:100408007FEA655C29D094EA050F08BF90EA020FDD
:1004180005D054EA000C04BF1946104630BD91EAD5
:10042800030F1EBF0021002030BD5FEA545C05D1D8
:100438004000494128BF41F0004130BD14F5800417
:100448003CBF01F5801130BD01F0004545F0FE418B
:1004580041F470014FF0000030BD7FEA645C1ABFC0
:10046800194610467FEA655C1CBF0B46024650EAF7
:10047800013406BF52EA033591EA030F41F4002123
:1004880030BD00BF90F0000F04BF0021704730B5A9
:100498004FF4806404F132044FF000054FF000017E
:1004A80050E700BF90F0000F04BF0021704730B53F
:1004B8004FF4806404F1320410F0004548BF404214
:1004C8004FF000013EE700BF42004FEAE2014FEA69
:1004D80031014FEA02701FBF12F07F4393F07F4F44
:1004E80081F06051704792F0000F14BF93F07F4F76
:1004F800704730B54FF4607401F0004521F00041B9
:1005080020E700BF50EA010208BF704730B54FF03E
:1005180000050AE050EA010208BF704730B511F043
:10052800004502D5404261EB41014FF4806404F17B
:1005380032045FEA915C3FF4DCAE4FF003025FEAFD
:10054800DC0C18BF03325FEADC0C18BF033202EB85
:10055800DC02C2F1200300FA03FC20FA02F001FADF
:1005680003FE40EA0E0021FA02F11444C1E600BF7E
:1005780070B54FF0FF0C4CF4E06C1CEA11541DBF31
:100588001CEA135594EA0C0F95EA0C0F00F0DEF8FC
:100598002C4481EA030621EA4C5123EA4C5350EAE1
:1005A800013518BF52EA033541F4801143F4801332
:1005B80038D0A0FB02CE4FF00005E1FB02E506F0C3
:1005C8000042E0FB03E54FF00006E1FB03569CF018
:1005D800000F18BF4EF0010EA4F1FF04B6F5007F1E
:1005E80064F5407404D25FEA4E0E6D4146EB060690
:1005F80042EAC62141EA55514FEAC52040EA5E5019
:100608004FEACE2EB4F1FD0C88BFBCF5E06F1ED8C2
:10061800BEF1004F08BF5FEA500E50F1000041EBF9
:10062800045170BD06F0004646EA010140EA0200A6
:1006380081EA0301B4EB5C04C2BFD4EB0C0541EAC8
:10064800045170BD41F480114FF0000E013C00F3DD
:10065800AB8014F1360FDEBF002001F0004170BD01
:10066800C4F10004203C35DA0C341BDC04F114041A
:10067800C4F1200500FA05F320FA04F001FA05F2A6
:1006880040EA020001F0004221F0004110EBD37073
:1006980021FA04F642EB06015EEA430E08BF20EA9F
:1006A800D37070BDC4F10C04C4F1200500FA04F342
:1006B80020FA05F001FA04F240EA020001F00041D4
:1006C80010EBD37041F100015EEA430E08BF20EA47
:1006D800D37070BDC4F1200500FA05F24EEA020E8F
:1006E80020FA04F301FA05F243EA020321FA04F0BE
:1006F80001F0004121FA04F220EA020000EBD37075
:100708005EEA430E08BF20EAD37070BD94F0000F74
:100718000FD101F00046400041EB010111F4801FA8
:1007280008BF013CF7D041EA060195F0000F18BF59
:10073800704703F00046520043EB030313F4801F95
:1007480008BF013DF7D043EA0603704794EA0C0F4F
:100758000CEA135518BF95EA0C0F0CD050EA410665
:1007680018BF52EA4306D1D181EA030101F00041E2
:100778004FF0000070BD50EA410606BF104619460A
:1007880052EA430619D094EA0C0F02D150EA013616
:1007980013D195EA0C0F05D152EA03361CBF104657
:1007A80019460AD181EA030101F0004141F0FE41F6
:1007B80041F470014FF0000070BD41F0FE4141F47A
:1007C800780170BD70B54FF0FF0C4CF4E06C1CEA7A
:1007D80011541DBF1CEA135594EA0C0F95EA0C0F2F
:1007E80000F0A7F8A4EB050481EA030E52EA0335EA
:1007F8004FEA013100F088804FEA03334FF080550B
:1008080045EA131343EA12634FEA022245EA111537
:1008180045EA10654FEA00260EF000419D4208BFE8
:10082800964244F1FD0404F5407402D25B084FEA95
:100838003202B61A65EB03055B084FEA32024FF441
:1008480080104FF4002CB6EB020E75EB030E22BF9E
:10085800B61A754640EA0C005B084FEA3202B6EB5E
:10086800020E75EB030E22BFB61A754640EA5C000D
:100878005B084FEA3202B6EB020E75EB030E22BF9D
:10088800B61A754640EA9C005B084FEA3202B6EB9E
:10089800020E75EB030E22BFB61A754640EADC005D
:1008A80055EA060E18D04FEA051545EA16754FEABF
:1008B80006164FEAC30343EA52734FEAC2025FEADD
:1008C8001C1CC0D111F4801F0BD141EA00014FF06C
:1008D80000004FF0004CB6E711F4801F04BF01433D
:1008E8000020B4F1FD0C88BFBCF5E06F3FF6AFAE59
:1008F800B5EB030C04BFB6EB020C5FEA500C50F1E9
:10090800000041EB045170BD0EF0004E4EEA11316B
:1009180014EB5C04C2BFD4EB0C0541EA045170BD72
:1009280041F480114FF0000E013C90E645EA060EB6
:100938008DE60CEA135594EA0C0F08BF95EA0C0FE4
:100948003FF43BAF94EA0C0F0AD150EA01347FF42C
:1009580034AF95EA0C0F7FF425AF104619462CE703
:1009680095EA0C0F06D152EA03353FF4FDAE104666
:10097800194622E750EA410618BF52EA43067FF4B7
:10098800C5AE50EA41047FF40DAF52EA43057FF447
:10099800EBAE12E74FEA4102B2F1E04324BFB3F5F0
:1009A800001CDCF1FE5C0DD901F0004C4FEAC002DE
:1009B8004CEA5070B2F1004F40EB830008BF20F0C2
:1009C8000100704711F0804F21D113F13872BCBF7C
:1009D80001F00040704741F480114FEA5252C2F1D1
:1009E8001802C2F1200C10FA0CF320FA02F018BF1A
:1009F80040F001004FEAC1234FEAD32303FA0CFC6D
:100A080040EA0C0023FA02F34FEA4303CCE77FEAFB
:100A1800625307D150EA01331EBF4FF0FE4040F445
:100A28004000704701F0004040F0FE4040F40000F4
:100A3800704700BF7BB972B90029BEBF00204FF0D4
:100A4800004106E008BF00281CBF6FF000414FF0CE
:100A5800FF3000F0C5B9ADF1080C6DE904CE0029EE
:100A680009DB002B1ADB00F04DF8DDF804E0DDE9C6
:100A7800022304B07047404261EB4101002B1BDBAD
:100A880000F040F8DDF804E0DDE9022304B040425C
:100A980061EB4101524263EB43037047524263EBFF
:100AA800430300F02FF8DDF804E0DDE9022304B089
:100AB800404261EB41017047524263EB430300F04F
:100AC80021F8DDF804E0DDE9022304B0524263EBCB
:100AD8004303704753B94AB9002908BF00281CBF0F
:100AE8004FF0FF314FF0FF3000F07AB9ADF1080C4C
:100AF8006DE904CE00F006F8DDF804E0DDE9022334
:100B080004B070472DE9F0478C460D460446089E10
:100B1800002B51D18A4217466DD9B2FA82FEBEF136
:100B2800000F0BD0CEF1200C01FA0EF520FA0CFCC8
:100B380002FA0EF74CEA050C00FA0EF44FEA174ACF
:100B4800250CBCFBFAF81FFA87F90AFB18CC45EA12
:100B58000C4508FB09F3AB420AD9ED1908F1FF323D
:100B680080F02381AB4240F22081A8F102083D4485
:100B7800ED1AA4B2B5FBFAF00AFB105544EA054495
:100B880000FB09F9A14509D9E41900F1FF3380F008
:100B98000A81A14540F2078102383C44A4EB0904CC
:100BA80040EA08400021002E61D024FA0EF4002308
:100BB80034607360BDE8F0878B4207D9002E54D0AB
:100BC800002186E821000846BDE8F087B3FA83F1E2
:100BD800002940F08E80AB4202D3824200F2FA80B4
:100BE800841A65EB03050120AC46002E3FD086E849
:100BF8001010BDE8F08712B90127B7FBF2F7B7FA72
:100C080087FEBEF1000F34D1EB1B3A0C1FFA87FCAC
:100C18000121B3FBF2F8250C02FB183345EA034522
:100C28000CFB08F3AB4207D9ED1908F1FF3002D2EB
:100C3800AB4200F2D1808046ED1AA3B2B5FBF2F0C8
:100C480002FB105543EA05440CFB00FCA44507D9F8
:100C5800E41900F1FF3302D2A44500F2B880184627
:100C6800A4EB0C0440EA08409DE731463046BDE855
:100C7800F087CEF1200405FA0EF307FA0EF720FAF2
:100C880004F83A0C25FA04F448EA0308B4FBF2F134
:100C98004FEA184502FB11441FFA87FC45EA044550
:100CA80001FB0CF3AB4200FA0EF409D9ED1901F17E
:100CB800FF3080F08A80AB4240F2878002393D44A1
:100CC800EB1A1FFA88F5B3FBF2F002FB103345EA82
:100CD800034500FB0CF3AB4207D9ED1900F1FF38CF
:100CE8006FD2AB426DD902383D44EB1A40EA01415C
:100CF8008FE7C1F1200722FA07F88B4005FA01F4C3
:100D080048EA030320FA07FE4FEA134CFD404EEA77
:100D1800040EB5FBFCF94FEA1E440CFB19551FFAEB
:100D280083F844EA054509FB08F4AC4202FA01F2EB
:100D380000FA01FA08D9ED1809F1FF3043D2AC42A4
:100D480041D9A9F102091D442D1B1FFA8EFEB5FBDE
:100D5800FCF00CFB10554EEA054400FB08F8A045D2
:100D680007D9E41800F1FF3529D2A04527D9023860
:100D78001C4440EA0940A4EB0804A0FB02894C4546
:100D8800C6464D4615D312D056B1BAEB0E0364EBE6
:100D9800050404FA07F7CB401F43CC403760746062
:100DA8000021BDE8F0871846F8E69046E0E6C2451F
:100DB800EAD2B8EB020E69EB03050138E4E72846EE
:100DC800D7E7404691E78146BEE7014678E7023813
:100DD8003C4445E7084608E7A8F102083D442BE7EC
:100DE800704700BF38B50E4A0E4B12781B6805468F
:100DF8004FF47A70B0FBF2F0B3FBF0F000F004FAB5
:100E080008B90F2D01D9012038BD044602462946EC
:100E18004FF0FF3000F0C2F9034B20461D6038BD8B
:100E280000000020080000200400002008B50B4B3B
:100E38001A6842F400721A601A6842F480621A60F2
:100E48001A6842F480721A60032000F095F90020B5
:100E5800FFF7C8FF02F026F9002008BD003C024059
:100E6800034A044B11681B780B441360704700BF9A
:100E78002800002000000020014B1868704700BFC0
:100E88002800002038B50446FFF7F6FF631C054626
:100E980002D0044B1B781C44FFF7EEFF401B844232
:100EA800FAD838BD00000020002800F0A680F8B568
:100EB800056C04463DB1236CDB060CD500230120EC
:100EC80084F83C30F8BD02F00DF96564236C84F8B1
:100ED8003C50DB06F2D4226C49492368494D22F480
:100EE800885222F0020242F0020222644A6822F486
:100EF80040324A604A68606802434A60596820691B
:100F0800D4F808E0E768A26A21F4807159605E6845
:100F180046EA00265E605E6826F040765E605868A5
:100F280040EA0E005860986820F40060986099685C
:100F3800AA4241EA0701996048D09968E06A21F01D
:100F48007061996099680A439A60996821F04051E4
:100F580099609A6802439A609968257E94F82000FF
:100F680021F0020199609A6842EA45029A605A683B
:100F7800002834D122F400625A60DA6AE56994F8EC
:100F88003070666922F47002DA62D86A013D40EA7C
:100F98000550D862986820F400709860996841EA12
:100FA80047219960996821F4806199609A680020C6
:100FB80042EA86229A606064236C23F0030343F0BC
:100FC80001032364002384F83C30F8BD9A6822F0BA
:100FD80070629A609A6822F040529A60BCE742F4C4
:100FE8000062616A5A605A6822F460425A605A681C
:100FF800013942EA41325A60BFE70120704700BF19
:10100800002301400100000FF0B590F83C3083B098
:101018000022012B019257D00D680123092D2E467D
:1010280080F83C3029D804688B68226905EB450EA6
:10103800072707FA0EF722EA07022261226903FA54
:101048000EF3134323614B68062B2BD803EB830362
:10105800626B053B1F21994022EA01026263626BC1
:1010680006FA03F3134363633E4B9C423ED00023CE
:1010780080F83C30184603B0F0BD04688B68E76818
:10108800AEB206EB46021E3A4FF0070E0EFA02FE0B
:1010980027EA0E07E760E76893403B43E3604B6845
:1010A800062BD3D90C2B12D803EB8303A3F123010E
:1010B8001F22236B8A4023EA02032363236B06FA69
:1010C80001F119432163CFE7022003B0F0BD03EB20
:1010D8008302413AE36A1F21914023EA0103E36254
:1010E800E36A06FA02F11943E162BDE7122D2BD03B
:1010F8001D4B9D420BD0112DB9D11C4B5A6822F4BF
:1011080080025A605A6842F400025A60AFE7174AF0
:10111800174B5168174C21F480015160516841F414
:10112800000151601B68A4FB03239B0C03EB8303A2
:101138005B000193019B002B99D0019B013B01931C
:10114800019B002BF9D192E7D3F8042322F4000283
:10115800C3F80423D3F8042342F48002C3F8042319
:1011680085E700BF00200140120000100023014065
:101178000800002083DE1B43074AD3684FF6FF01AF
:101188000B40000243F0BF6300F4E06043F4003317
:101198000343D360704700BF00ED00E0184B70B404
:1011A800DC68C4F30224C4F10706042E04F1040326
:1011B80028BF0426062B17D9033C0125A540013D6D
:1011C8002A400123B340013B1940A140002841EACD
:1011D80002010CDB00F1604000F561400901C9B271
:1011E80080F8001370BC704700221446E9E7054BED
:1011F80000F00F0009010344C9B2197670BC7047AA
:1012080000ED00E0FCEC00E00138B0F1807F0ED288
:10121800084B10B4084C5860F02084F823000022D2
:10122800072110469A6019605DF8044B7047012049
:10123800704700BF10E000E000ED00E02DE9F04F3E
:10124800D1F800C0DFF8FC81DFF8FCE183B00025AD
:1012580003E00135102D00F093800123AB4003EA31
:101268000C029342F5D14E6826F0100ABAF1020F2B
:1012780000F089804FEA45090324D0F800B004FA49
:1012880009F4E44306F003070BEA040B07FA09F72D
:101298000AF1FF3A47EA0B07BAF1010F076040F27B
:1012A8009880C7688B683C4003FA09F32343C360FE
:1012B800F300CED54FF00009CDF80490D8F84430AB
:1012C80043F48043C8F84430D8F8444025F0030379
:1012D80003F1804304F4804403F59C33019405F042
:1012E8000304019FD3F808A0A4000F27A7402AEA07
:1012F800070A4E4FB8421AD007F58067B8427BD02C
:101308004B4FB8427DD04B4FB8427FD04A4FB8427E
:1013180000F08180494FB84200F08280484FB842BF
:101328000CBF4FF006094FF0070909FA04F94AEA19
:1013380009079F60DEF80030D443F70354BF234009
:101348001343CEF80030DEF80430B70354BF23400F
:101358001343CEF80430DEF80830F70254BF2340B8
:101368001343CEF80830DEF80C30B60205F101055B
:1013780054BF23401343102DCEF80C307FF46DAFCB
:1013880003B0BDE8F08F4FEAD50900EB890905F0F5
:101398000707D9F82040BF004FF00F0B0BFA07FBE7
:1013A80024EA0B0A0C69BC4044EA0A04C9F8204044
:1013B8004FEA45090324D0F800A004FA09F4E443ED
:1013C80006F0030704EA0A0A07FA09F747EA0A07D0
:1013D8000760876807EA040ACF6807FA09F747EA47
:1013E8000A078760D0F804A0C6F300172AEA0303A7
:1013F800AF401F43476054E74FF0010909FA04F969
:1014080095E74FF0020909FA04F990E74FF003094C
:1014180009FA04F98BE74FF0040909FA04F986E799
:101428004FF0050909FA04F981E700BF00000240FE
:1014380000080240000C0240001002400014024064
:101448000018024000380240003C014002B909047B
:1014580081617047002800F0A980F8B590F83D3008
:10146800044603F0FF02002B00F08B80226824233F
:1014780084F83D30136823F00103136000F03CF951
:1014880061684B4B99424BD84A4B984277D92268AE
:10149800494B5568A3FB00639B0C25F03F051D4392
:1014A8005560156A013325F03F052B431362D56952
:1014B80049000138B0FBF1F00130C0F30B0025F40E
:1014C8004F45042838BF042025F0FF052843D06184
:1014D8001568E069266A2169E768636925F0C0052F
:1014E8003043284310609068A56920F4034020F039
:1014F800FF00394301439160D1682B4321F0FF017C
:101508000B43D3601168002341F0010120251160CD
:101518001846236484F83D50236384F83E30F8BDB0
:10152800264B98422BD92268234B5768DFF890E066
:10153800A668A3FB00539D0C27F03F072F434FF4E9
:101548009673576003FB05F3AEFB0353156A9B09BB
:1015580025F03F0501332B431362D56925F44F4528
:1015680025F0FF0596B9431E01EB4101B3FBF1F3EA
:101578000133C3F30B03BBB143F40040A6E70120DA
:10158800F8BD80F83C2001F003FE6FE701EB810312
:1015980003EB8301431EB3FBF1F30133C3F30B03E6
:1015A80013B143F4404091E701208FE701207047D1
:1015B800A08601007F841E0083DE1B43FF083D00D8
:1015C800D34D621060B1484A136803F00F038B4291
:1015D80008D2CBB21370136803F00F03994201D0FD
:1015E8000120704703682DE9F0419D0714D55C0779
:1015F80004D53E4CA26842F4E052A2601A0704D512
:101608003A4CA26842F46042A260384C8568A268ED
:1016180022F0F0022A43A260DF0704460D4622D5D5
:101628004268012A5BD0931E012B304B1B6850D9AE
:10163800990725D52D4EB36823F003031343B360F0
:10164800FFF71AFC41F28837804605E0FFF714FCE3
:10165800A0EB0800B8423FD8B368626803F00C03F7
:10166800B3EB820FF2D1204A136803F00F039D42B7
:1016780009D2EBB21370136803F00F039D4202D036
:101688000120BDE8F08123685A0706D51749E068AC
:101698008A6822F4E05202438A601B0707D5134A7E
:1016A8002169936823F4604343EAC103936000F01F
:1016B80033F80E4B0E499B680E4AC3F30313CB5CF9
:1016C80020FA03F300201360FFF78CFB0020BDE82D
:1016D800F0819801AED4D3E70320BDE8F081034B35
:1016E8001B689E03A6D4CBE7003C024000380240AA
:1016F800E033000808000020044B054A9B680549B0
:10170800C3F382230868D35CD8407047003802408E
:10171800F033000808000020284908B58B6803F05A
:101728000C03082B07D00C2B1DD0254A2548042B69
:1017380018BF104608BD4A684B6813F4800302F0CE
:101748003F0230D149681E48C1F38811A1FB00014E
:10175800FFF7C0F9194B5B68C3F3014301335B0022
:10176800B0FBF3F008BD4A684B6813F4800302F03D
:101778003F020ED149681248C1F38811A1FB00014C
:10178800FFF7A8F90D4B5B68C3F30273B0FBF3F0E6
:1017980008BD4B680B48C3F38813A3FB0001002363
:1017A800FFF798F9EEE74B680648C3F38813A3FBE5
:1017B80000010023FFF78EF9CCE700BF0038024094
:1017C8000024F40040787D012DE9F0410368DA0730
:1017D80082B0044636D5AA498A6802F00C02042A67
:1017E80000F0D6808A6802F00C02082A00F0CC804B
:1017F800A3498A6802F00C020C2A00F05881636839
:10180800B3F5803F00F00581B3F5A02F00F06B81A0
:101818009B4D2A6822F480322A602A6822F48022AA
:101828002A60002B40F0FA80FFF726FB064605E009
:10183800FFF722FB801B642800F20E812B689903B6
:10184800F6D423689A072FD58D4A916811F00C0FAA
:1018580000F0AC80916801F00C01082900F0A2802A
:1018680087498A6802F00C020C2A00F07781E36845
:10187800002B00F02181834B814D01221A60FFF774
:10188800FBFA064605E0FFF7F7FA801B022800F28C
:10189800E3802B689807F6D52B68226923F0F803B4
:1018A80043EAC2032B6023681A0715D56369002B26
:1018B80000F08780744B724D01221A60FFF7DCFA42
:1018C800064605E0FFF7D8FA801B022800F2C4801C
:1018D8006B6F9B07F6D52368580720D4A369D3B14B
:1018E800674DAA6802F00C02082A66D0022B674BE3
:1018F8004FF000021A6000F00081FFF7BDFA2C4695
:10190800054605E0FFF7B8FA401B022800F2A4805C
:1019180023689B01F6D4002002B0BDE8F081584A44
:10192800136C13F0805368D00026594D2B68D905E5
:1019380040F18280A368012B00F0CF80052B00F0D6
:101948008F804F4D2A6F22F001022A672A6F22F0FA
:1019580004022A67002B40F08C80FFF78DFA41F2D1
:101968008837804605E0FFF787FAA0EB0800B84201
:1019780072D82B6F9807F6D4002EAFD0404A136C5C
:1019880023F080531364A9E74A6857027FF530AF04
:101998003B4A126895037FF555AF6268002A7FF4C9
:1019A80051AF0AE0526857023FF55AAF344A1268FD
:1019B800950716D5E268012A13D0012002B0BDE8C8
:1019C800F081314A2E4D1360FFF756FA064604E0BF
:1019D800FFF752FA801B02283ED86B6F9F07F7D497
:1019E80079E7274920690A6822F0F80242EAC0022A
:1019F8000A601A077FF570AF58E70193136C43F03C
:101A080080531364136C03F080530193019B0126E8
:101A18008BE71B4A136843F480331360FFF72CFAF3
:101A2800174D064604E0FFF727FA801B642813D8F1
:101A38002B689803F7D504E72B6843F480732B6071
:101A4800FFF71AFA07462B68DA053FF573AFFFF779
:101A580013FAC01B0228F6D9032002B0BDE8F081B2
:101A6800074B1A6F42F004021A671A6F42F001021C
:101A78001A67FFF701FA024D804641F288370FE0F6
:101A88000038024000004742800E4742600047424B
:101A980000700040FFF7F0F9A0EB0800B842DBD86F
:101AA8002B6F9B07F6D5002E3FF418AF66E74A6800
:101AB80056027FF5A4AE6BE72B4A2C4D1360FFF757
:101AC800DBF9064604E0FFF7D7F9801B0228C3D8E4
:101AD8002B689907F7D42368E6E6244A136F43F086
:101AE80001031367C5E7214B1A6842F480221A6084
:101AF8001A6842F480321A6090E7FFF7BDF906468B
:101B080004E0FFF7B9F9801B0228A5D82B689901D2
:101B1800F7D4E369D4F820E0676AE66AA26A206B22
:101B28001349124C43EA0E0343EA871343EA066358
:101B3800520843EA0073013A43EA024301226B6008
:101B48000A60FFF799F9054604E0FFF795F9401B8D
:101B5800022881D823689A01F7D5DCE64A6856023C
:101B68003FF585AE22E700BF00004742003802403B
:101B7800600047422DE9F04107460D461646984653
:101B88003C6801E0731C06D1A06835EA0003F9D06F
:101B98000020BDE8F081FFF76FF9A0EB080086424E
:101BA800EED83B6879685A68B1F5827F22F0E00286
:101BB8005A6015D0BA6AB2F5005F08D00122002336
:101BC80087F8512087F850300320BDE8F0811A6863
:101BD80022F400521A601A6842F400521A60EDE7C3
:101BE800BA68B2F5004F02D0B2F5806FE2D11A6838
:101BF80022F040021A60DDE770B54568B5F5827FCE
:101C08000446134618D00A460121FFF7B3FF88B1EE
:101C1800636D43F020036365032070BD00680268AC
:101C280022F0400202600A4620468021FFF7A2FF08
:101C38000028EDD1002070BD8268B2F5004FEDD0CC
:101C4800B2F5806FEFD10668356825F040050A4681
:101C580035600121FFF78EFF0028D9D1EAE700BFE0
:101C680070B5164B164D1B684668A5FB035382B02A
:101C78005B0D4FF47A7505FB03F3B6F5827F0446D6
:101C8800019307D10CE0019B2268013B0193936803
:101C98001B0602D5019B002BF5D1002002B070BDB8
:101CA80013460A468021FFF765FF0028F5D0636DCB
:101CB80043F0200363650320F0E700BF080000201D
:101CC800819F5E162DE9F043044683B0012084F815
:101CD80050000F46904699460A9DFFF7CDF894F8B4
:101CE80051206168D2B2012A064611D0B1F5827F2F
:101CF80009D002200122002384F8512084F85030B2
:101D080003B0BDE8F083A368002BF2D1042AF0D118
:101D1800002F5CD0B8F1000F59D0B9F1000F56D0A0
:101D280094F851302268C4F83880042B1CBF05236E
:101D380084F8513000236365A4F83E90A4F83690E7
:101D48001068A4F83C9040062763A4F834902364F4
:101D5800636403D4136843F040031360E368B3F586
:101D6800006F52D0002941D13B781373E38E226B68
:101D7800013B9BB20132E38622630127E38E9BB2CB
:101D88001BB9E38F9BB2002B34D023689A68910764
:101D980003D5E28E92B202B1DFB99A68D2070DD5A7
:101DA800E28F92B252B1A26BDB681370E38FA26B21
:101DB800013B9BB20132E387A2630127FFF75CF87E
:101DC800801B8542DAD86B1CD8D0032092E701200B
:101DD80090E7226B12781A73E28E216B2368013A1E
:101DE80092B20131E28621630027D6E7B9F1010FEB
:101DF800C3D1B9E7324629462046FFF731FF00280C
:101E080044D020236365012074E7002935D0B9F157
:101E1800010F32D00127E38E9BB21BB9E38F9BB22F
:101E2800002BE7D023689A68910703D5E28E92B217
:101E380002B1BFB99A68D2070CD5E28F92B24AB103
:101E4800A26BDB6822F8023BE38FA263013B9BB2E3
:101E5800E3870127FFF710F8801BA842DBD3681C33
:101E6800D9D0B2E7216B31F8022BDA60E28E216318
:101E7800013A92B2E2860027DCE737F8023BD360EA
:101E8800E38E2763013B9BB2E386C3E7A368002B7D
:101E98007FF430AF23680190DA6801929B68019360
:101EA800019B27E700283AD090F85120F8B5002583
:101EB800044602F0FF0185625AB3A7686368E668C2
:101EC80020696269E1693B43334303431343266A4C
:101ED800A0692768626A0B43022184F851103968A7
:101EE800334300F40076000C334300F004002B4326
:101EF800024321F0400139603B607A60FB690022AF
:101F080023F400630121FB611046626584F85110D7
:101F1800F8BD80F8501001F075F9A56ACDE70120E9
:101F2800704700BF2DE9F04190F85040012C82B075
:101F380003D1022002B0BDE8F0811D46012380F8DC
:101F48005030044617468846FEF796FF064694F832
:101F58005100C0B2012809D002200122002384F8D0
:101F6800512084F8503002B0BDE8F081B8F1000F7C
:101F7800F3D0002FF1D0A268C4F8308000230321E9
:101F8800B2F5004F84F85110A3636365A3876364B7
:101F98002364E786A786E38723684ED01A6852062B
:101FA80003D41A6842F040021A60E268B2F5006F82
:101FB800626847D0002A35D0012F33D0E18E89B22C
:101FC80089B123689A68920723D5226B12781A730D
:101FD800E18E236B013989B2E186E18E013389B242
:101FE80023630029EDD1324629462046FFF738FE03
:101FF80008B120236365A36833B922680193D368C5
:10200800019393680193019B606D003018BF012014
:10201800A3E7FEF731FF801B8542CFD86B1CCDD0DC
:1020280003209AE798F800201A73E38E226B013B8D
:102038009BB20132E3862263C0E71A6842F4804209
:102048001A60ABE7FAB1012F1DD0E38E9BB2002BCB
:10205800C9D023689A6890070DD5226B32F8021B05
:10206800D960E38E2263013B9BB2E386E38E9BB289
:10207800002BEED1B7E7FEF7FFFE801BA842E4D3A2
:10208800691CE2D0CCE7414631F8022BDA60E38ED6
:102098002163013B9BB2E386D7E700BF2DE9F041FE
:1020A8004568B5F5827F82B0044617461E468846C5
:1020B8001CD094F85010012903D1022002B0BDE8C9
:1020C800F081012384F85030FEF7D6FE054694F8D7
:1020D8005100C0B2012819D002200122002384F83F
:1020E800512084F8503002B0BDE8F0818368002B9D
:1020F800DFD190F850300422012B80F85120DCD039
:1021080000963B460A46FFF7DDFDD7E7B8F1000F1A
:10211800E3D0002FE1D0A268C4F83880002304215E
:10212800B2F5004F84F8511023636365A3862364D6
:102138006364E787A787E386236850D01A68520646
:1021480003D41A6842F040021A60E36843BBE38F85
:102158009BB28BB123689A68D70737D5A26B1B7BD4
:102168001370E38FA26B013B9BB2E387E38F0132CD
:102178009BB2A263002BEDD12A4631462046FFF7D9
:102188003BFD08B120236365606D003018BF012056
:10219800A3E7FEF771FE401B864201D8731C1CD1D1
:1021A800E38F9BB2002BE7D022689368D907F0D55C
:1021B800A36BD26823F8022BE18FA363013989B29C
:1021C800E187E38F9BB2002BEED1D5E7FEF754FEF3
:1021D800401B8642BBD8701CB9D003207DE71A6823
:1021E80022F480421A60A9E72DE9F84301EB410681
:1021F8000D4606F1080121F0070100AF9946ADEB45
:10220800010DF72390464946013604461046002240
:102218008DF80030FFF71AF932466946386A0A2302
:10222800FFF73CFF494640460122FFF70FF985B109
:1022380005EB45056D44201F6A469378547812F8DB
:10224800031F1B0143EA04330B43954240F8043F44
:10225800F3D1BD46BDE8F8832DE9F04182B002AC68
:1022680060F07F000E4604F8040D002598461746D6
:10227800114630462A468DF805508DF80650FFF76E
:10228800E5F821460A2340460322FFF707FF3046B8
:1022980039460122FFF7DAF89DF806009DF8053067
:1022A80043EA002002B0BDE8F08100BFF8B504465B
:1022B80008200D4616461F46FFF7CEFF3B462080F6
:1022C800324629460A20FFF7C7FF3B46A080324620
:1022D80029460C20FFF7C0FF3B46E08032462946DE
:1022E8000E20FFF7B9FF3B46608032462946102092
:1022F800FFF7B2FF3B462081324629461220FFF7FE
:10230800ABFF3B466081324629461420FFF7A4FF05
:102318003B46A081324629461620FFF79DFF3B46E3
:10232800E081324629461820FFF796FF3B46208277
:10233800324629461A20FFF78FFF3B466082324615
:1023480029461C20FFF788FF3B46A08232462946D3
:102358001E20FFF781FFE082F8BD00BF2DE9F041A4
:1023680084B004AB002703F8017D0D4604461646E9
:10237800194600922B460246D02000F0FFFD2B465E
:102388002246B6210096E0209DF80F8000F01CFE42
:102398000A20FEF777FD00962B462246332174204B
:1023A80000F012FE01280DD000962B46224614217B
:1023B800752000F009FE01280CBF3846002004B043
:1023C800BDE8F081A8F15807B7FA87F77F09EBE76E
:1023D80084B02DE9F04F83B00CAC84E80F0012995B
:1023E800BDF830304D68BDF93400BDF936205C00C9
:1023F800C3EB2513C4EBE50403FB03F300FB04F074
:102408001B1302FB03F2C31203EBA23202EB82009E
:102418008030139C00122060002B00F0D480BDF99E
:102428003E40D1F800E0BDF94080D317B2F5FA324A
:1024380043F1FF3304FB03F6E517A4FB020102FB9B
:10244800056631444F0447EAD0374604BDF93C00DD
:10245800A2FB024502FB03FCCEF5801E05EB4C05F2
:102468004FEAC00B704608FB05FCC1174FEAE87934
:1024780004FB09CCCDE90001A8FB048918EB060888
:10248800019EE1444FF0000A49EB07094FEACE707C
:1024980018EB0A084FEAC67141EA5E0149EB0B09DD
:1024A800B0EB080861EB090918EB080649EB0907C6
:1024B80016EB080647EB0907B901B001801941EA94
:1024C8009661BDF93860BDF93AA0794106FB03F37E
:1024D800F7174FEAEA7B0AFB05FE02FB0737A6FB64
:1024E800022304FB0BEE3B44AAFB044575444FEA68
:1024F800142A4FEA810E1F0383004EEA907E1603CA
:1025080013EB08004AEA056A4EEB090147EA12573D
:102518001AEB060ABDF832204FEA252B4BEB070BC6
:102528001AF1000AAAFB02454BF5004B8E00830006
:1025380002FB0B5546EA907613EB080046EB0901BF
:102548006A10EB17FEF776FABDF946204C13450BD7
:1025580045EAC14502FB04F6D31705FB0366A2FB57
:1025680005233344BDF9446002FB04F405FB03442E
:1025780006FB01FEA2FB0523F717234400FB07EE29
:10258800540EA6FB0067774444EAC3144FEAD648C2
:1025980000194FEA636548EA473869414FEAE74955
:1025A80018EB0008BDF9424049EB01094FEA182031
:1025B80040EA09602201139912184A6003B0BDE885
:1025C800F04F04B07047636003B0BDE8F04F04B04B
:1025D800704700BF84B0F0B589B006AD179CBDF850
:1025E800587000940EAC84E80F0000243B4628463F
:1025F800159A05940221049406940794149CFFF7F5
:10260800F3FD12AB93E803008DE8030004AE0396D4
:1026180002950EAB0FCBFFF7DBFE049A059B84E80F
:102628000C0009B0BDE8F04004B0704738B5054665
:1026380000680C46FDF736FF0022084BFEF7C2F88B
:10264800FEF7A8F920606868FDF72CFF0022044B0C
:10265800FDF78EFFFEF79EF9606038BD0000594017
:102668000000703F2DE9F04184B004AB002403F86A
:10267800014D0E4605461746194600923346024656
:10268800752000F07BFC33462A46802100976B209A
:102698009DF80F8000F098FC0A20FEF7F3FB0097E6
:1026A80033462A464021702000F08EFC012855D080
:1026B80033462A46009701216B2000F085FC3346FB
:1026C80001282A464FF0000100974FF06C0018BF10
:1026D8000C4600F079FC334601282A4600974FF053
:1026E80007014FF0190018BF002400F06DFC3346B5
:1026F80001282A4600974FF001014FF01A0018BF31
:10270800002400F061FC334601282A4600974FF068
:1027180018014FF01C0018BF002400F055FC334688
:1027280001282A4600974FF002014FF01D0018BFFC
:10273800002400F049FC0097012833462A464FF050
:1027480008014FF01B0018BF002400F03DFC0128D1
:102758000CBF2046002004B0BDE8F081A8F11204A7
:10276800B4FA84F46409A3E7F0B587B004460025F9
:10277800019300920B46072202A93B20039502957C
:102788000495ADF8145000F051FCBDF80870BDF880
:102798000A60BDF80C50BDF80E00BDF81010BDF869
:1027A8001220BDF8143027806680A580E080218142
:1027B8006281A38107B0F0BD38B50546B0F90000C5
:1027C8000C46FDF76FFE00224FF07D53FDF7D0FE5B
:1027D800FEF7E0F82060B5F90200FDF763FE00227D
:1027E8004FF07D53FDF7C4FEFEF7D4F86060B5F9ED
:1027F8000400FDF757FE00224FF07D53FDF7B8FEA9
:10280800FEF7C8F8A060B5F90600FDF74BFE1BA35C
:10281800D3E90023FDF7D6FF0022174BFDF7F6FC9E
:10282800FEF7B8F8E060B5F90800FDF73BFE10A325
:10283800D3E90023FDF7C6FFFEF7ACF82061B5F930
:102848000A00FDF72FFE0AA3D3E90023FDF7BAFF1C
:10285800FEF7A0F86061B5F90C00FDF723FE04A3AC
:10286800D3E90023FDF7AEFFFEF794F8A06138BD69
:10287800000000000060504000003940CDCCCCCCB6
:10288800CC6C74402DE9F04184B004AB002403F80B
:10289800014D0E4605461746194600923346024634
:1028A8008F2000F06BFB33462A4604210097212035
:1028B8009DF80F8000F088FB0A20FEF7E3FA0097E6
:1028C80033462A461021202000F07EFB012818D02C
:1028D80033462A4600970E21232000F075FB00217D
:1028E8000128009733462A464FF0220018BF0C46AD
:1028F80000F06AFB01280CBF2046002004B0BDE8A8
:10290800F081A8F13D04B4FA84F46409E0E700BF5B
:1029180030B585B00446019300920B46002502A904
:102928000322E820ADF80C50029500F07FFBBDF8BB
:102938000810BDF80A20BDF80C3021806280A38001
:1029480005B030BD0000000038B50546B0F90000FC
:102958000C46FDF7A7FD10A3D3E90023FDF732FFCE
:10296800FEF718F82060B5F90200FDF79BFD0AA3F1
:10297800D3E90023FDF726FFFEF70CF86060B5F9F0
:102988000400FDF78FFD04A3D3E90023FDF71AFF28
:10299800FEF700F8A06038BD0000000000BABA4099
:1029A80070B5364A06460D4635484FF40061FFF7C4
:1029B80059FE344A10F1FF344FF40041304818BF33
:1029C8000124FFF74FFE2D4A01284FF400712C48CF
:1029D80018BF44F00204FFF7C1FC2A4A01284FF44B
:1029E8000051294818BF44F00404FFF7B7FC012838
:1029F800224A23484FF480611CD0FFF743FF012887
:102A080044F008042BD030461C4B1D494FF400728B
:102A1800FFF74CFC28461B4B1B494FF4005244F06F
:102A28001004FFF743FC002208211748FEF70EFDAB
:102A3800204670BDFFF726FF0128E4D130460F4B32
:102A48000F494FF40072FFF731FC28460D4B0E4931
:102A58004FF40052FFF72AFC002CE9D0E3E7304698
:102A6800064B07494FF40072FFF720FC2846054B38
:102A780005494FF40052FFF719FCD4E72C00002059
:102A8800000002402001002000080240F0B595B087
:102A980007A83422002100F08BFC00241E4B009470
:102AA80003940294049405940694196C1B4A41F00B
:102AB800805119641B6C03F080530093009B0194B0
:102AC800136823F4404343F48043136013680E945F
:102AD80003F44043019301230225082148220A9365
:102AE80007A8032310260F9110921293019F0795B0
:102AF8000D95119513950B96FEF766FE0F224FF470
:102B0800805302A8294603950494069402920593DB
:102B1800FEF758FD15B0F0BD0038024000700040C7
:102B28002DE9F04FBBB00DAE0FAD4FF000080DF121
:102B3800980BCDF86480CDF86080CDF86880ADF84A
:102B48006C80CDF87080CDF83480CDF83C80CDF81D
:102B58002C80CDF8B080CDF8CC80CDF84480CDF86D
:102B68004C80CDF87480CDF87880ADF87C80C6F8BC
:102B78000480C5F80480ADF83080CDF8B480CDF875
:102B8800B880CDF8BC80CDF8C080CDF8C480CDF831
:102B9800C880CDF8D080CDF8D480CDF8D880CDF8D5
:102BA800DC80CDF8E080CDF8E480CDF84880CDF821
:102BB8005080CDF85480CDF85880CDF85C80FEF771
:102BC80035F9FFF763FFD24BCDF82080CDF8988018
:102BD800CBF80480CBF80880CBF80C80CBF81080B9
:102BE8001A6BCC48CC4FCD4C42F004021A631A6BD6
:102BF80002F004020892089ACDF824801A6B42F079
:102C080001021A631A6B02F001020992099ACDF8BF
:102C180028801A6B42F002021A631B6B03F002034E
:102C28000A9301224FF400510A9BFEF70FFC42461B
:102C38003C21B848FEF70AFC42461421B848FEF782
:102C480005FC01224FF41E41B548FEF7FFFB424642
:102C58004FF48071B348FEF7F9FB4FF0010942F2D7
:102C68000C035946AB4826934FF0040ACDF8A080D0
:102C7800CDF8A480CDF89C90FEF7E0FA5946A84814
:102C8800CDF89C90CDF8A080CDF8A480CDF898A080
:102C9800FEF7D4FA49F610635946A1482693022351
:102CA800CDF89C90CDF8A0802993FEF7C7FA0222B0
:102CB80030235946974829922693CDF89C90CDF811
:102CC800A080FEF7BBFA59469648CDF898A0CDF8F3
:102CD8009C80CDF8A080FEF7B1FA4FF48073594676
:102CE8009048CDF89C90CDF8A080CDF8A48026938C
:102CF800FEF7A4FA8C4B3B604FF400710A234FF0A7
:102D0800100A4FF482723846C7F80880C7F80C805A
:102D1800C7F81080C7F81480C7F82080C7F8248047
:102D2800C7F828807A60B9610791C7F81CA0FB62D0
:102D38000693FFF7B7F87D4B7D4AC3F808804FF438
:102D48008271184659600799C3F80C80C3F810803F
:102D5800C3F814809961C3F81CA0C3F82080C3F895
:102D68002480C3F82880069BC3620260FFF79AF8A4
:102D7800704BDFF8D4E17049C3F800E04FF48042AB
:102D880018461A615960C3F80880C3F80C80C3F864
:102D98001480C3F81880C3F81C80C3F82080FEF79D
:102DA80059FB664BDFF8A4A123602046644BC4F8A6
:102DB8000480C4F80880C4F8108084F8188084F867
:102DC8002080C4F82C80C4F80C80C4F81C9084F8C7
:102DD8003080C4F81490A362CDF89880CBF80480B2
:102DE800CBF80880CBF80C80FEF75EF8594609232B
:102DF8002046CDF89C90CDF8A0802693FEF704F9E4
:102E08004F4A504BCAF828205046CAF80480CAF8DE
:102E18000880CAF810808AF818808AF82080CAF8D2
:102E28002C80CAF80C80CAF81C908AF83080CAF83E
:102E38001490CAF80030CDF89880CBF80480CBF80D
:102E48000880CBF80C8020ACFEF72EF808235046FB
:102E58005946CDF89C90CDF8A0802693FEF7D4F87B
:102E680059462046FFF79CFDDFF8C090B8460DF1A3
:102E7800A80A434618A84FF400622949FFF774FCD2
:102E88004B461CA84FF400422549FFF76DFC24ABC4
:102E980093E803008DE803004FF40073204A059778
:102EA80003920296049394E80F00FFF793FB9AE8C5
:102EB80003001E4A05928DE803004FF40053154A9B
:102EC8000392029504939BE80F00FFF783FB01220E
:102ED80010211048FEF7BAFA43460BA84FF4806257
:102EE8000F49FFF715FD002210210A48FEF7AEFA38
:102EF8002CA918A8FFF760FC33A91CA8FFF75CFCF5
:102F080011A93046FFF792FB13A9284620E000BF1D
:102F180000380240000802402C0000207801002000
:102F28000000024000040240003800402001002058
:102F3800003C0040CC000020A08601000020014099
:102F48000100000F002101400054004084000020CF
:102F5800FFF76CFB012210210748FEF777FA15A945
:102F68000BA8FFF7F1FC002210210348FEF76EFAC8
:102F78000120FDF787FF7CE7000002402DE9F041C2
:102F880082B002AC002760F07F001546ADF80470EF
:102F980004F8040D88463A46194628461E46FEF7A8
:102FA80055FA21460A2308980222FFF777F8314696
:102FB80028460122FEF74AFA9DF8053088F80030C5
:102FC80002B0BDE8F08100BF2DE9F04385B04FF0B5
:102FD8000008DDF83090144607460E46104619469C
:102FE80042461D468DF80C708DF80D60FEF72EFADE
:102FF8000A2303A948460222FEF794FF29462046E1
:103008000122FEF723FA04A9CDF80090384601F80A
:10301800058D2B462246FFF7B1FF9DF80B00801B5C
:10302800B0FA80F0400905B0BDE8F0832DE9F0471B
:10303800560000AF154606F1080222F00702ADEB74
:10304800020DB7F820A001369946804632460C4654
:103058006846002100F0ACF968F07F085146484600
:1030680000228DF80080FEF7F1F932466946786A49
:103078000A23FFF713F8514648460122FEF7E6F9FE
:1030880065B1A11E68460022447810F8023F01325B
:1030980043EA0423AA4221F8023FF5D1BD46BDE820
:1030A800F08700BF00B583B00D4B002100915A6C2A
:1030B80042F480425A645A6C02F480420092009AA8
:1030C80001911A6C42F080521A641B6C03F0805311
:1030D80001930720019BFEF74FF803B05DF804FB4E
:1030E8000038024010B5026825498AB000238A4298
:1030F8000693059307930893099322D021498A429E
:1031080001D00AB010BD204A0393516C1F4841F406
:1031180000715164516C01F4007103910399049397
:10312800136B43F002031363136B03F0020304935E
:103138000122032305A9049C05920693FEF77EF855
:10314800DFE7114A0193516C104841F480715164D2
:10315800516C01F48071019101990293136B43F052
:1031680002031363136B03F0020302930222032387
:1031780005A9029C05920693FEF760F8C1E700BF17
:1031880000200140002101400038024000040240B4
:10319800F0B50268184B89B000249A42049403944D
:1031A80005940694079401D009B0F0BD134D01941D
:1031B8002B6B134843F002032B632B6B03F00203C2
:1031C8000193C0230322039303A904231227012692
:1031D8000793DDF804E0049705960692FEF72EF8AB
:1031E80002942B6C43F400132B642B6C03F4001330
:1031F8000293029B09B0F0BD005400400038024021
:103208000004024070B5026827498AB000238A4248
:103218000693059307930893099327D023498A4275
:1032280001D00AB070BD224A0393116C214841F4C1
:1032380000411164116C01F4004103910399049356
:10324800136B43F002031363136B03F0020304933D
:10325800049E05A938250224032206230595069411
:1032680008920993FDF7EAFF0AB070BD104A01936E
:10327800116C104841F480411164116C01F48041D3
:10328800019101990293136B43F002031363136BCB
:1032980003F00203029305A94FF4604502240322B8
:1032A8000523029EDAE700BF00380040003C0040DA
:1032B8000038024000040240704700BF704700BF5A
:1032C800FDF7CEBD1049114BD1F8882042F47002A9
:1032D80010B4C1F888201A680D4C002042F0010291
:1032E8001A6098601A6822F0847222F480321A6098
:1032F8005C601A684FF0006422F480221A60D8607B
:103308008C605DF8044B704700ED00E00038024027
:1033180010300024DFF834D0002103E00C4B5B5858
:10332800435004310B480C4B42189A42F6D30B4ACF
:1033380002E0002342F8043B094B9A42F9D3FFF715
:10334800C1FF00F011F8FFF7EBFB70470000022007
:1033580008340008000000200C0000200C000020A9
:10336800C0010020FEE7000070B50D4E0D4CA41BF7
:10337800A4100025A54209D10B4E0C4C00F020F8F2
:10338800A41BA4100025A54205D170BD56F8253010
:1033980098470135EEE756F8253098470135F2E7AA
:1033A8000034000800340008003400080434000821
:1033B80002440346934200D1704703F8011BF9E722
:1033C800F8B500BFF8BC08BC9E467047F8B500BF0A
:0833D800F8BC08BC9E467047DA
:1033E00000000000000000000102030406070809B5
:0833F0000000000001020304CB
:0833F80014D7FF7F0100000063
:04340000ED010008D2
:04340400C9010008F2
:0C34080001000000100000000024F4008F
:040000050800331D9F
:00000001FF
