:020000040800F2
:100000000000022081CA0008D1CA0008D1CA000835
:10001000D1CA0008D1CA0008D1CA000800000000F7
:10002000000000000000000000000000B5C800084B
:10003000D1CA000800000000C3C80008D1C80008E9
:10004000D1CA0008D1CA0008D1CA0008D1CA000824
:10005000D1CA0008D1CA0008D1CA0008DDC800080A
:10006000D1CA0008D1CA0008D1CA000811C90008C5
:10007000D1CA0008D1CA000825C9000839C900083A
:100080004DC90008D1CA0008D1CA0008D1CA000869
:10009000D1CA0008D1CA0008D1CA000861C9000845
:1000A000D1CA0008D1CA0008D1CA0008D1CA0008C4
:1000B000D1CA0008D1CA0008D1CA0008D1CA0008B4
:1000C000D1CA0008D1CA0008D1CA0008D1CA0008A4
:1000D000D1CA0008D1CA0008D1CA0008D1CA000894
:1000E000D1CA0008D1CA0008D1CA0008D1CA000884
:1000F000D1CA0008D1CA0008D1CA0008D1CA000874
:10010000D1CA000889C90008D1CA0008D1CA0008AC
:10011000D1CA0008D1CA0008D1CA0008D1CA000853
:100120009DC90008B1C90008C5C90008D9C900089F
:10013000D1CA00080000000000000000D1CA000879
:10014000D1CA0008D1CA0008D1CA0008D1CA000823
:10015000D1CA0008EDC9000801CA0008D1CA0008C8
:10016000D1CA0008D1CA0008D1CA0008D1CA000803
:10017000D1CA0008D1CA0008D1CA00080000000096
:1001800000000000D1CA00080000000000000000CC
:10019000D1CA00080000000000000000D1CA000819
:1001A000000000000000000000000000D1CA0008AC
:1001B000D1CA0008D1CA0008D1CA0008D1CA0008B3
:0401C000D1CA000898
:1001C80010B5054C237833B9044B13B10448AFF389
:1001D80000800123237010BD74000020000000007F
:1001E80068CD000808B5034B1BB103490348AFF3BA
:1001F800008008BD000000007800002068CD0008DD
:1002080081F0004102E000BF83F0004330B54FEABF
:1002180041044FEA430594EA050F08BF90EA020F2C
:100228001FBF54EA000C55EA020C7FEA645C7FEABF
:10023800655C00F0E2804FEA5454D4EB5555B8BFE2
:100248006D420CDD2C4480EA020281EA030382EA53
:10025800000083EA010180EA020281EA0303362DE5
:1002680088BF30BD11F0004F4FEA01314FF4801CB8
:100278004CEA113102D0404261EB410113F0004FCA
:100288004FEA03334CEA133302D0524263EB430381
:1002980094EA050F00F0A780A4F10104D5F1200E1F
:1002A8000DDB02FA0EFC22FA05F2801841F100017A
:1002B80003FA0EF2801843FA05F359410EE0A5F14E
:1002C80020050EF1200E012A03FA0EFC28BF4CF07F
:1002D800020C43FA05F3C01851EBE37101F0004535
:1002E80007D54FF0000EDCF1000C7EEB00006EEB42
:1002F8000101B1F5801F1BD3B1F5001F0CD34908CC
:100308005FEA30004FEA3C0C04F101044FEA445222
:1003180012F5800F80F09A80BCF1004F08BF5FEAA9
:10032800500C50F1000041EB045141EA050130BD89
:100338005FEA4C0C404141EB010111F4801FA4F12C
:100348000104E9D191F0000F04BF01460020B1FA81
:1003580081F308BF2033A3F10B03B3F120020CDAB9
:100368000C3208DD02F1140CC2F10C0201FA0CF097
:1003780021FA02F10CE002F11402D8BFC2F1200CFC
:1003880001FA02F120FA0CFCDCBF41EA0C019040B2
:10039800E41AA2BF01EB0451294330BD6FEA0404FB
:1003A8001F3C1CDA0C340EDC04F11404C4F12002E6
:1003B80020FA04F001FA02F340EA030021FA04F3F8
:1003C80045EA030130BDC4F10C04C4F1200220FA4F
:1003D80002F001FA04F340EA0300294630BD21FA8D
:1003E80004F0294630BD94F0000F83F4801306BF53
:1003F80081F480110134013D4EE77FEA645C18BF47
:100408007FEA655C29D094EA050F08BF90EA020FDD
:1004180005D054EA000C04BF1946104630BD91EAD5
:10042800030F1EBF0021002030BD5FEA545C05D1D8
:100438004000494128BF41F0004130BD14F5800417
:100448003CBF01F5801130BD01F0004545F0FE418B
:1004580041F470014FF0000030BD7FEA645C1ABFC0
:10046800194610467FEA655C1CBF0B46024650EAF7
:10047800013406BF52EA033591EA030F41F4002123
:1004880030BD00BF90F0000F04BF0021704730B5A9
:100498004FF4806404F132044FF000054FF000017E
:1004A80050E700BF90F0000F04BF0021704730B53F
:1004B8004FF4806404F1320410F0004548BF404214
:1004C8004FF000013EE700BF42004FEAE2014FEA69
:1004D80031014FEA02701FBF12F07F4393F07F4F44
:1004E80081F06051704792F0000F14BF93F07F4F76
:1004F800704730B54FF4607401F0004521F00041B9
:1005080020E700BF50EA010208BF704730B54FF03E
:1005180000050AE050EA010208BF704730B511F043
:10052800004502D5404261EB41014FF4806404F17B
:1005380032045FEA915C3FF4DCAE4FF003025FEAFD
:10054800DC0C18BF03325FEADC0C18BF033202EB85
:10055800DC02C2F1200300FA03FC20FA02F001FADF
:1005680003FE40EA0E0021FA02F11444C1E600BF7E
:1005780070B54FF0FF0C4CF4E06C1CEA11541DBF31
:100588001CEA135594EA0C0F95EA0C0F00F0DEF8FC
:100598002C4481EA030621EA4C5123EA4C5350EAE1
:1005A800013518BF52EA033541F4801143F4801332
:1005B80038D0A0FB02CE4FF00005E1FB02E506F0C3
:1005C8000042E0FB03E54FF00006E1FB03569CF018
:1005D800000F18BF4EF0010EA4F1FF04B6F5007F1E
:1005E80064F5407404D25FEA4E0E6D4146EB060690
:1005F80042EAC62141EA55514FEAC52040EA5E5019
:100608004FEACE2EB4F1FD0C88BFBCF5E06F1ED8C2
:10061800BEF1004F08BF5FEA500E50F1000041EBF9
:10062800045170BD06F0004646EA010140EA0200A6
:1006380081EA0301B4EB5C04C2BFD4EB0C0541EAC8
:10064800045170BD41F480114FF0000E013C00F3DD
:10065800AB8014F1360FDEBF002001F0004170BD01
:10066800C4F10004203C35DA0C341BDC04F114041A
:10067800C4F1200500FA05F320FA04F001FA05F2A6
:1006880040EA020001F0004221F0004110EBD37073
:1006980021FA04F642EB06015EEA430E08BF20EA9F
:1006A800D37070BDC4F10C04C4F1200500FA04F342
:1006B80020FA05F001FA04F240EA020001F00041D4
:1006C80010EBD37041F100015EEA430E08BF20EA47
:1006D800D37070BDC4F1200500FA05F24EEA020E8F
:1006E80020FA04F301FA05F243EA020321FA04F0BE
:1006F80001F0004121FA04F220EA020000EBD37075
:100708005EEA430E08BF20EAD37070BD94F0000F74
:100718000FD101F00046400041EB010111F4801FA8
:1007280008BF013CF7D041EA060195F0000F18BF59
:10073800704703F00046520043EB030313F4801F95
:1007480008BF013DF7D043EA0603704794EA0C0F4F
:100758000CEA135518BF95EA0C0F0CD050EA410665
:1007680018BF52EA4306D1D181EA030101F00041E2
:100778004FF0000070BD50EA410606BF104619460A
:1007880052EA430619D094EA0C0F02D150EA013616
:1007980013D195EA0C0F05D152EA03361CBF104657
:1007A80019460AD181EA030101F0004141F0FE41F6
:1007B80041F470014FF0000070BD41F0FE4141F47A
:1007C800780170BD70B54FF0FF0C4CF4E06C1CEA7A
:1007D80011541DBF1CEA135594EA0C0F95EA0C0F2F
:1007E80000F0A7F8A4EB050481EA030E52EA0335EA
:1007F8004FEA013100F088804FEA03334FF080550B
:1008080045EA131343EA12634FEA022245EA111537
:1008180045EA10654FEA00260EF000419D4208BFE8
:10082800964244F1FD0404F5407402D25B084FEA95
:100838003202B61A65EB03055B084FEA32024FF441
:1008480080104FF4002CB6EB020E75EB030E22BF9E
:10085800B61A754640EA0C005B084FEA3202B6EB5E
:10086800020E75EB030E22BFB61A754640EA5C000D
:100878005B084FEA3202B6EB020E75EB030E22BF9D
:10088800B61A754640EA9C005B084FEA3202B6EB9E
:10089800020E75EB030E22BFB61A754640EADC005D
:1008A80055EA060E18D04FEA051545EA16754FEABF
:1008B80006164FEAC30343EA52734FEAC2025FEADD
:1008C8001C1CC0D111F4801F0BD141EA00014FF06C
:1008D80000004FF0004CB6E711F4801F04BF01433D
:1008E8000020B4F1FD0C88BFBCF5E06F3FF6AFAE59
:1008F800B5EB030C04BFB6EB020C5FEA500C50F1E9
:10090800000041EB045170BD0EF0004E4EEA11316B
:1009180014EB5C04C2BFD4EB0C0541EA045170BD72
:1009280041F480114FF0000E013C90E645EA060EB6
:100938008DE60CEA135594EA0C0F08BF95EA0C0FE4
:100948003FF43BAF94EA0C0F0AD150EA01347FF42C
:1009580034AF95EA0C0F7FF425AF104619462CE703
:1009680095EA0C0F06D152EA03353FF4FDAE104666
:10097800194622E750EA410618BF52EA43067FF4B7
:10098800C5AE50EA41047FF40DAF52EA43057FF447
:10099800EBAE12E74FF0FF3C06E000BF4FF0010C52
:1009A80002E000BF4FF0010C4DF804CD4FEA410CB6
:1009B8007FEA6C5C4FEA430C18BF7FEA6C5C1BD083
:1009C80001B050EA410C0CBF52EA430C91EA030F04
:1009D80002BF90EA020F0020704710F1000F91EA61
:1009E800030F58BF994208BF90422CBFD8176FEA2F
:1009F800E37040F0010070474FEA410C7FEA6C5CFD
:100A080002D150EA013C07D14FEA430C7FEA6C5C03
:100A1800D6D152EA033CD3D05DF8040B704700BF2F
:100A28008446104662468C461946634600E000BF7D
:100A380001B5FFF7B7FF002848BF10F1000F01BD4F
:100A48004DF808EDFFF7F4FF0CBF012000205DF81A
:100A580008FB00BF4DF808EDFFF7EAFF34BF01209F
:100A680000205DF808FB00BF4DF808EDFFF7E0FF38
:100A780094BF012000205DF808FB00BF4DF808ED89
:100A8800FFF7CEFF94BF012000205DF808FB00BFF0
:100A98004DF808EDFFF7C4FF34BF012000205DF8D2
:100AA80008FB00BF4FEA410C7FEA6C5C02D150EAB8
:100AB800013C0AD14FEA430C7FEA6C5C02D152EA4E
:100AC800033C02D14FF0000070474FF0010070471F
:100AD8004FEA4102B2F1E04324BFB3F5001CDCF158
:100AE800FE5C0DD901F0004C4FEAC0024CEA507090
:100AF800B2F1004F40EB830008BF20F001007047BF
:100B080011F0804F21D113F13872BCBF01F00040C1
:100B1800704741F480114FEA5252C2F11802C2F1F3
:100B2800200C10FA0CF320FA02F018BF40F0010074
:100B38004FEAC1234FEAD32303FA0CFC40EA0C0026
:100B480023FA02F34FEA4303CCE77FEA625307D163
:100B580050EA01331EBF4FF0FE4040F4400070479A
:100B680001F0004040F0FE4040F40000704700BF34
:100B78007BB972B90029BEBF00204FF0004106E0E2
:100B880008BF00281CBF6FF000414FF0FF3000F095
:100B9800C5B9ADF1080C6DE904CE002909DB002BBD
:100BA8001ADB00F04DF8DDF804E0DDE9022304B0BB
:100BB8007047404261EB4101002B1BDB00F040F81D
:100BC800DDF804E0DDE9022304B0404261EB4101B5
:100BD800524263EB43037047524263EB430300F016
:100BE8002FF8DDF804E0DDE9022304B0404261EBB0
:100BF80041017047524263EB430300F021F8DDF8EE
:100C080004E0DDE9022304B0524263EB430370477A
:100C180053B94AB9002908BF00281CBF4FF0FF315B
:100C28004FF0FF3000F07AB9ADF1080C6DE904CE51
:100C380000F006F8DDF804E0DDE9022304B07047AF
:100C48002DE9F0478C460D460446089E002B51D1ED
:100C58008A4217466DD9B2FA82FEBEF1000F0BD058
:100C6800CEF1200C01FA0EF520FA0CFC02FA0EF770
:100C78004CEA050C00FA0EF44FEA174A250CBCFBA7
:100C8800FAF81FFA87F90AFB18CC45EA0C4508FB65
:100C980009F3AB420AD9ED1908F1FF3280F023813C
:100CA800AB4240F22081A8F102083D44ED1AA4B2FB
:100CB800B5FBFAF00AFB105544EA054400FB09F9B4
:100CC800A14509D9E41900F1FF3380F00A81A14553
:100CD80040F2078102383C44A4EB090440EA08408A
:100CE8000021002E61D024FA0EF4002334607360D2
:100CF800BDE8F0878B4207D9002E54D0002186E842
:100D080021000846BDE8F087B3FA83F1002940F0D6
:100D18008E80AB4202D3824200F2FA80841A65EBDD
:100D280003050120AC46002E3FD086E81010BDE830
:100D3800F08712B90127B7FBF2F7B7FA87FEBEF1C1
:100D4800000F34D1EB1B3A0C1FFA87FC0121B3FBCF
:100D5800F2F8250C02FB183345EA03450CFB08F3AF
:100D6800AB4207D9ED1908F1FF3002D2AB4200F2CD
:100D7800D1808046ED1AA3B2B5FBF2F002FB105504
:100D880043EA05440CFB00FCA44507D9E41900F12B
:100D9800FF3302D2A44500F2B8801846A4EB0C0435
:100DA80040EA08409DE731463046BDE8F087CEF17D
:100DB800200405FA0EF307FA0EF720FA04F83A0CA5
:100DC80025FA04F448EA0308B4FBF2F14FEA18459F
:100DD80002FB11441FFA87FC45EA044501FB0CF3AA
:100DE800AB4200FA0EF409D9ED1901F1FF3080F099
:100DF8008A80AB4240F2878002393D44EB1A1FFAE1
:100E080088F5B3FBF2F002FB103345EA034500FB1B
:100E18000CF3AB4207D9ED1900F1FF386FD2AB42A2
:100E28006DD902383D44EB1A40EA01418FE7C1F120
:100E3800200722FA07F88B4005FA01F448EA030371
:100E480020FA07FE4FEA134CFD404EEA040EB5FBAC
:100E5800FCF94FEA1E440CFB19551FFA83F844EAC3
:100E6800054509FB08F4AC4202FA01F200FA01FA5E
:100E780008D9ED1809F1FF3043D2AC4241D9A9F1A4
:100E880002091D442D1B1FFA8EFEB5FBFCF00CFB5E
:100E980010554EEA054400FB08F8A04507D9E418A8
:100EA80000F1FF3529D2A04527D902381C4440EA71
:100EB8000940A4EB0804A0FB02894C45C6464D46F0
:100EC80015D312D056B1BAEB0E0364EB050404FA3D
:100ED80007F7CB401F43CC40376074600021BDE862
:100EE800F0871846F8E69046E0E6C245EAD2B8EB45
:100EF800020E69EB03050138E4E72846D7E74046C8
:100F080091E78146BEE7014678E702383C4445E769
:100F1800084608E7A8F102083D442BE7704700BFE0
:100F280080B500AF0E4A0E4B1B6843F40073136084
:100F38000B4A0B4B1B6843F480631360084A084B49
:100F48001B6843F480731360032000F0E1FB00206A
:100F580000F008F80BF030F80023184680BD00BFF9
:100F6800003C024080B582B000AF7860124B1A682E
:100F7800124B1B7819464FF47A73B3FBF1F3B2FBAB
:100F8800F3F3184600F007FC0346002B01D00123B9
:100F98000EE07B680F2B0AD8002279684FF0FF30EB
:100FA80000F0C1FB064A7B681360002300E00123C0
:100FB80018460837BD4680BD080000200400002000
:100FC8000000002080B400AF064B1B781A46064B81
:100FD8001B681344044A136000BFBD465DF8047BD8
:100FE800704700BF04000020F002002080B400AF6A
:100FF800034B1B681846BD465DF8047B704700BF6D
:10100800F002002080B584B000AF7860FFF7EEFFF3
:10101800B8607B68FB60FB68B3F1FF3F05D0094B04
:101028001B781A46FB681344FB6000BFFFF7DEFF1E
:101038000246BB68D21AFB689A42F7D300BF103742
:10104800BD4680BD0400002080B584B000AF786044
:101058000023FB737B68002B01D1012333E07B68FD
:101068001B6C002B09D178680AF0CEFF7B68002240
:101078005A647B68002283F83C207B681B6C03F071
:101088001003002B18D17B681B6C23F4885323F0C2
:10109800020343F002027B681A64786800F04CF996
:1010A8007B6800225A647B681B6C23F0030343F0BF
:1010B80001027B681A6401E00123FB737B6800224C
:1010C80083F83C20FB7B18461037BD4680BD0000E6
:1010D80090B484B000AF786039600023BB607B684F
:1010E80093F83C30012B01D1022315E17B680122E2
:1010F80083F83C203B681B68092B26D97B681A6853
:101108007B681B68D9683B681B689BB21846034616
:101118005B0003441E3B072000FA03F3DB430B404C
:10112800D3607B681A687B681B68D9683B689868D5
:101138003B681B689BB21C4623465B0023441E3B4E
:1011480000FA03F30B43D36023E07B681A687B68DB
:101158001B6819693B681B689BB2184603465B000D
:101168000344072000FA03F3DB430B4013617B6859
:101178001A687B681B6819693B6898683B681B6834
:101188009BB21C4623465B00234400FA03F30B433F
:1011980013613B685B68062B24D87B6819687B68F9
:1011A8001B68586B3B685A6813469B001344053B01
:1011B8001F2202FA03F3DB4303404B637B68196881
:1011C8007B681B68586B3B681B689BB21C463B6876
:1011D8005A6813469B001344053B04FA03F3034380
:1011E8004B634CE03B685B680C2B24D87B68196820
:1011F8007B681B68186B3B685A6813469B0013444E
:10120800233B1F2202FA03F3DB4303400B637B6893
:1012180019687B681B68186B3B681B689BB21C4687
:101228003B685A6813469B001344233B04FA03F3B4
:1012380003430B6323E07B6819687B681B68D86AE3
:101248003B685A6813469B001344413B1F2202FA2D
:1012580003F3DB430340CB627B6819687B681B6838
:10126800D86A3B681B689BB21C463B685A681346A1
:101278009B001344413B04FA03F30343CB62294B1D
:10128800FB607B681B68284A93420FD13B681B6848
:10129800122B0BD1FB685B6823F40002FB685A60D1
:1012A800FB685B6843F48002FB685A607B681B68D4
:1012B8001D4A93422BD13B681B681C4A934203D0BA
:1012C8003B681B68112B22D1FB685B6823F4800202
:1012D800FB685A60FB685B6843F40002FB685A606D
:1012E8003B681B68114A934211D1114B1B68114A84
:1012F800A2FB03239A0C13469B0013445B00BB60BC
:1013080002E0BB68013BBB60BB68002BF9D17B687E
:10131800002283F83C20002318461037BD4690BCB5
:10132800704700BF00230140002001401200001058
:101338000800002083DE1B4380B485B000AF7860CE
:10134800794BFB60FB685B6823F44032FB685A60AA
:10135800FB685A687B685B681A43FB685A607B685D
:101368001B687A681268526822F480725A607B6837
:101378001B687A68126851687A68126912020A430F
:101388005A607B681B687A681268526822F040725B
:101398005A607B681B687A68126851687A68926834
:1013A8000A435A607B681B687A681268926822F45C
:1013B80000629A607B681B687A68126891687A682C
:1013C800D2680A439A607B689B6A584A934222D043
:1013D8007B681B687A681268926822F070629A606B
:1013E8007B681B687A68126891687A68926A0A430F
:1013F8009A607B681B687A681268926822F040528B
:101408009A607B681B687A68126891687A68D26A01
:101418000A439A600FE07B681B687A6812689268D2
:1014280022F070629A607B681B687A68126892681A
:1014380022F040529A607B681B687A68126892684A
:1014480022F002029A607B681B687A6812689168C9
:101458007A68127E52000A439A607B6893F82030BB
:10146800002B1BD07B681B687A681268526842F4AC
:1014780000625A607B681B687A681268526822F4B6
:1014880060425A607B681B687A68126851687A689B
:10149800526A013A52030A435A6007E07B681B68A4
:1014A8007A681268526822F400625A607B681B6886
:1014B8007A681268D26A22F47002DA627B681B6862
:1014C8007A681268D16A7A68D269013A12050A43C1
:1014D800DA627B681B687A681268926822F4007284
:1014E8009A607B681B687A68126891687A6892F8D3
:1014F800302052020A439A607B681B687A68126837
:10150800926822F480629A607B681B687A68126825
:1015180091687A68526992020A439A6000BF143748
:10152800BD465DF8047B7047002301400100000FB1
:1015380080B485B000AF78607B6803F00703FB6078
:101548000C4BDB68BB60BA684FF6FF031340BB6007
:10155800FB681A02BB68134343F0BF6343F40033CC
:10156800BB60044ABB68D36000BF1437BD465DF852
:10157800047B704700ED00E080B400AF044BDB68EB
:101588001B0A03F007031846BD465DF8047B704745
:1015980000ED00E080B483B000AF0346FB7197F91B
:1015A8000730002B0BDB094997F907305B09FA79FB
:1015B80002F01F02012000FA02F241F8232000BFC6
:1015C8000C37BD465DF8047B704700BF00E100E0C2
:1015D80080B483B000AF0346FB7197F90730002B46
:1015E80010DB0B4997F907305B09FA7902F01F0203
:1015F800012000FA02F2203341F82320BFF34F8F75
:10160800BFF36F8F00BF0C37BD465DF8047B704792
:1016180000E100E080B483B000AF03463960FB719D
:1016280097F90730002B0ADB0D4997F907303A681C
:10163800D2B21201D2B20B4483F800230AE009495E
:10164800FB7903F00F03043B3A68D2B21201D2B21D
:101658000B441A7600BF0C37BD465DF8047B704713
:1016680000E100E000ED00E080B489B000AFF86070
:10167800B9607A60FB6803F00703FB61FB69C3F19B
:101688000703042B28BF0423BB61FB690433062B23
:1016980002D9FB69033B00E000237B610122BB699F
:1016A80002FA03F35A1EBB681A407B699A4001216B
:1016B8007B6901FA03F3591E7B680B4013431846F4
:1016C8002437BD465DF8047B7047000080B582B0C2
:1016D80000AF78607B68013BB3F1807F01D30123C1
:1016E8000FE00A4A7B68013B53600F214FF0FF303F
:1016F800FFF790FF054B00229A60044B07221A60FF
:10170800002318460837BD4680BD00BF10E000E042
:1017180080B582B000AF78607868FFF709FF00BF36
:101728000837BD4680BD80B586B000AF0346B960B6
:101738007A60FB7300237B61FFF71EFF78617A688C
:10174800B9687869FFF790FF024697F90F3011469C
:101758001846FFF75FFF00BF1837BD4680BD80B54C
:1017680082B000AF0346FB7197F907301846FFF7C0
:1017780011FF00BF0837BD4680BD80B582B000AFFD
:101788000346FB7197F907301846FFF721FF00BFA2
:101798000837BD4680BD80B582B000AF78607868F4
:1017A800FFF794FF034618460837BD4680BD000082
:1017B80080B586B000AF786000237B61FFF716FC28
:1017C80038617B68002B01D1012399E07B680022F6
:1017D80083F834207B68022283F835207B681B68F5
:1017E8007A681268126822F001021A600FE0FFF7A7
:1017F800FDFB02463B69D31A052B08D97B682022DA
:101808005A657B68032283F83520032378E07B68D8
:101818001B681B6803F00103002BE8D17B681B6879
:101828001B687B617A69384B13407B617B685A6817
:101838007B689B681A437B68DB681A437B681B6973
:101848001A437B685B691A437B689B691A437B6808
:10185800DB691A437B681B6A13437A6913437B610C
:101868007B685B6A042B07D17B68DA6A7B681B6B31
:1018780013437A6913437B617B681B687A691A6032
:101888007B681B685B697B617B6923F007037B616D
:101898007B685B6A7A6913437B617B685B6A042BAC
:1018A80017D17B689B6A7A6913437B617B68DB6A23
:1018B800002B0ED0786800F099FA0346002B08D068
:1018C8007B6840225A657B68012283F83520012312
:1018D80016E07B681B687A695A61786800F050FAEC
:1018E8000346FB607B68DB6D3F229A40FB689A6089
:1018F8007B6800225A657B68012283F83520002323
:1019080018461837BD4680BD3F8010F080B586B0B8
:1019180000AFF860B9607A603B600023FB75FB6834
:101928009B6D3B61FB6893F83430012B01D1022396
:1019380048E0FB68012283F83420FB6893F83530CF
:10194800DBB2012B37D1FB68022283F83520FB6814
:1019580000225A653B687A68B968F86800F0E2F9CD
:10196800FB68DB6D3F229A403B699A60FB681B6805
:10197800FA681268126842F016021A60FB681B685F
:10198800FA681268526942F080025A61FB681B6C5F
:10199800002B07D0FB681B68FA681268126842F0CF
:1019A80008021A60FB681B68FA681268126842F03D
:1019B80001021A6005E0FB68002283F83420022344
:1019C800FB75FB7D18461837BD4680BD80B483B0D3
:1019D80000AF78607B6893F83530DBB2022B04D017
:1019E8007B6880225A6501230CE07B68052283F816
:1019F80035207B681B687A681268126822F0010239
:101A08001A60002318460C37BD465DF8047B704702
:101A180080B586B000AF78600023BB60924B1B682E
:101A2800924AA2FB03239B0A7B617B689B6D3B6107
:101A38003B691B68FB607B68DB6D08229A40FB688A
:101A48001340002B1AD07B681B681B6803F0040343
:101A5800002B13D07B681B687A681268126822F022
:101A680004021A607B68DB6D08229A403B699A6021
:101A78007B685B6D43F001027B685A657B68DB6DB0
:101A880001229A40FB681340002B12D07B681B6828
:101A98005B6903F08003002B0BD07B68DB6D0122B0
:101AA8009A403B699A607B685B6D43F002027B68F1
:101AB8005A657B68DB6D04229A40FB681340002B53
:101AC80012D07B681B681B6803F00203002B0BD045
:101AD8007B68DB6D04229A403B699A607B685B6D8A
:101AE80043F004027B685A657B68DB6D10229A40DC
:101AF800FB681340002B43D07B681B681B6803F00E
:101B08000803002B3CD07B68DB6D10229A403B69B0
:101B18009A607B681B681B6803F48023002B18D02D
:101B28007B681B681B6803F40023002B08D17B68C3
:101B38001B6C002B24D07B681B6C786898471FE0CF
:101B48007B689B6C002B1BD07B689B6C78689847E4
:101B580016E07B681B681B6803F48073002B07D1B1
:101B68007B681B687A681268126822F008021A609B
:101B78007B681B6C002B03D07B681B6C78689847CC
:101B88007B68DB6D20229A40FB681340002B00F035
:101B98008E807B681B681B6803F01003002B00F025
:101BA80086807B68DB6D20229A403B699A607B685F
:101BB80093F83530DBB2052B36D17B681B687A6821
:101BC8001268126822F016021A607B681B687A682D
:101BD8001268526922F080025A617B681B6C002BE4
:101BE80003D17B689B6C002B07D07B681B687A68E5
:101BF8001268126822F008021A607B68DB6D3F22C7
:101C08009A403B699A607B68002283F834207B689D
:101C1800012283F835207B681B6D002B7DD07B6803
:101C28001B6D7868984778E07B681B681B6803F42D
:101C38008023002B1CD07B681B681B6803F40023DF
:101C4800002B08D17B685B6C002B30D07B685B6C09
:101C5800786898472BE07B68DB6B002B27D07B6884
:101C6800DB6B7868984722E008000020B5814E1B9E
:101C78007B681B681B6803F48073002B0FD17B689B
:101C88001B687A681268126822F010021A607B6872
:101C9800002283F834207B68012283F835207B6892
:101CA800DB6B002B03D07B68DB6B786898477B681D
:101CB8005B6D002B32D07B685B6D03F00103002B5A
:101CC80022D07B68052283F835207B681B687A68F8
:101CD8001268126822F001021A60BB680133BB6007
:101CE8007A69934207D87B681B681B6803F0010375
:101CF800002BF2D100E000BF7B68002283F834207B
:101D08007B68012283F835207B68DB6C002B05D0CB
:101D18007B68DB6C7868984700E000BF1837BD46E1
:101D280080BD00BF80B485B000AFF860B9607A604C
:101D38003B60FB681B68FA681268126822F480220C
:101D48001A60FB681B683A685A60FB689B68402BFE
:101D580008D1FB681B687A689A60FB681B68BA68D8
:101D6800DA6007E0FB681B68BA689A60FB681B6862
:101D78007A68DA6000BF1437BD465DF8047B7047A7
:101D880080B485B000AF78607B681B68DBB2103B1D
:101D9800144AA2FB03231B09FB60134AFB68134484
:101DA8001B781A467B68DA65FB68032B09D97B68C0
:101DB8001B6823F47F7323F003031A1D7B689A655D
:101DC80007E07B681B6823F47F7323F003037A68BA
:101DD80093657B689B6D18461437BD465DF8047B98
:101DE800704700BFABAAAAAADCCD000880B485B0B2
:101DF80000AF78600023FB737B689B6ABB607B68DD
:101E08009B69002B1FD1BB68032B55D801A252F840
:101E180023F000BF2D1E00083F1E00082D1E0008DD
:101E2800C11E00087B68DB6A03F08073002B45D075
:101E38000123FB7342E07B68DB6AB3F1C07F3FD1CB
:101E48000123FB733CE07B689B69B3F5005F21D1FC
:101E5800BB68032B36D801A252F823F0751E000880
:101E68007B1E0008751E00088D1E00080123FB73E9
:101E78002FE07B68DB6A03F08073002B24D00123FA
:101E8800FB7321E07B68DB6AB3F1C07F1ED10123BD
:101E9800FB731BE0BB68022B02D9032B03D018E0AD
:101EA8000123FB7315E07B68DB6A03F08073002B6A
:101EB8000ED00123FB730BE000BF0AE000BF08E06F
:101EC80000BF06E000BF04E000BF02E000BF00E082
:101ED80000BFFB7B18461437BD465DF8047B70478E
:101EE80080B489B000AF7860396000237B6100233B
:101EF8003B610023BB610023FB6165E10122FB69B3
:101F080002FA03F37B613B681A687B6913403B6103
:101F18003A697B699A4240F054813B685B68022BBE
:101F280003D03B685B68122B23D1FB69DA087B6816
:101F3800083253F82230BB61FB6903F007039B00AA
:101F48000F2202FA03F3DB43BA691340BB613B6813
:101F58001A69FB6903F007039B0002FA03F3BA69E5
:101F68001343BB61FB69DA087B680832B96943F837
:101F780022107B681B68BB61FB695B00032202FAC5
:101F880003F3DB43BA691340BB613B685B6803F04A
:101F98000302FB695B0002FA03F3BA691343BB61EE
:101FA8007B68BA691A603B685B68012B0BD03B6899
:101FB8005B68022B07D03B685B68112B03D03B683A
:101FC8005B68122B30D17B689B68BB61FB695B0047
:101FD800032202FA03F3DB43BA691340BB613B688F
:101FE800DA68FB695B0002FA03F3BA691343BB6161
:101FF8007B68BA699A607B685B68BB610122FB6990
:1020080002FA03F3DB43BA691340BB613B685B68C0
:102018001B0903F00102FB6902FA03F3BA691343CF
:10202800BB617B68BA695A607B68DB68BB61FB6926
:102038005B00032202FA03F3DB43BA691340BB6176
:102048003B689A68FB695B0002FA03F3BA691343B9
:10205800BB617B68BA69DA603B685B6803F08053F0
:10206800002B00F0AE800023FB605C4A5B4B5B6C8E
:1020780043F480435364594B5B6C03F48043FB6027
:10208800FB68574AFB699B08023352F82330BB614F
:10209800FB6903F003039B000F2202FA03F3DB43FF
:1020A800BA691340BB617B684E4A934225D07B686E
:1020B8004D4A93421FD07B684C4A934219D07B68A3
:1020C8004B4A934213D07B684A4A93420DD07B68AF
:1020D800494A934207D07B68484A934201D1062374
:1020E8000CE007230AE0052308E0042306E00323A5
:1020F80004E0022302E0012300E00023FA6902F071
:10210800030292009340BA691343BB613449FB69E7
:102118009B080233BA6941F82320394B1B68BB611D
:102128003B69DB43BA691340BB613B685B6803F4F6
:102138008033002B03D0BA693B691343BB61304A33
:10214800BB6913602E4B5B68BB613B69DB43BA69B3
:102158001340BB613B685B6803F40033002B03D07A
:10216800BA693B691343BB61254ABB695360244B79
:102178009B68BB613B69DB43BA691340BB613B6841
:102188005B6803F48013002B03D0BA693B691343DF
:10219800BB611B4ABB699360194BDB68BB613B6938
:1021A800DB43BA691340BB613B685B6803F4001307
:1021B800002B03D0BA693B691343BB61104ABB6962
:1021C800D360FB690133FB61FB690F2B7FF696AE89
:1021D80000BF2437BD465DF8047B704700380240D5
:1021E800003801400000024000040240000802409C
:1021F800000C024000100240001402400018024087
:10220800003C014080B483B000AF78600B467B800F
:1022180013467B707B78002B03D07A887B689A61A1
:1022280003E07B881A047B689A6100BF0C37BD46BF
:102238005DF8047B7047000080B582B000AF0346AC
:10224800FB80084B5A69FB881340002B06D0054ACF
:10225800FB885361FB88184600F006F800BF083772
:10226800BD4680BD003C014080B483B000AF03464A
:10227800FB8000BF0C37BD465DF8047B704700004B
:1022880090B585B000AF78607B68002B01D1012341
:102298000FE17B6893F83D30DBB2002B06D17B68F9
:1022A800002283F83C20786809F08AFF7B682422A2
:1022B80083F83D207B681B687A681268126822F0F0
:1022C80001021A6000F0F2F9F8607B685B687B4AEB
:1022D800934207D8FB687A4A934294BF01230023AC
:1022E800DBB206E0FB68774A934294BF01230023E0
:1022F800DBB2002B01D00123DBE0FB68724AA2FBB2
:1023080003239B0CBB607B681B687A681268526861
:1023180022F03F01BA680A435A607B681A687B68F2
:102328001B681B6A23F03F017B685B686348834234
:1023380002D8BB68013309E0BB684FF4967000FB14
:1023480003F36248A0FB03039B0901330B431362A9
:102358007B6818687B681B68DB6923F44F4222F0AE
:10236800FF027B685B6855498B420DD8FB68591E94
:102378007B685B685B00B1FBF3F30133C3F30B03CA
:10238800042B38BF04234FE07B689B68002B11D1D6
:10239800FB685C1E7B6859680B465B000B44B4FB0A
:1023A800F3F30133C3F30B03002B0CBF012300230A
:1023B800DBB212E0FB685C1E7B6859680B469B0029
:1023C8000B4499000B44B4FBF3F30133C3F30B0341
:1023D800002B0CBF01230023DBB2002B01D001230B
:1023E80022E07B689B68002B0ED1FB685C1E7B6833
:1023F80059680B465B000B44B4FBF3F30133C3F39A
:102408000B0343F400430FE0FB685C1E7B685968CC
:102418000B469B000B4499000B44B4FBF3F30133C8
:10242800C3F30B0343F440431343C3617B681B6846
:102438007A681268126822F0C0017A68D0697A68EE
:10244800126A02430A431A607B681A687B681B6831
:102458009B6823F4034323F0FF03796808697968CC
:10246800C96801430B4393607B681B687A681268EC
:10247800D26822F0FF017A6850697A68926902434B
:102488000A43DA607B681B687A681268126842F04F
:1024980001021A607B6800221A647B68202283F894
:1024A8003D207B6800221A637B68002283F83E2067
:1024B800002318461437BD4690BD00BFA086010012
:1024C8007F841E00FF083D0083DE1B43D34D62104E
:1024D80080B584B000AF786039607B68002B01D18B
:1024E8000123CAE0674B1B6803F00F023B689A425E
:1024F8000CD2644B3A68D2B21A70624B1B6803F074
:102508000F023B689A4201D00123B6E07B681B6842
:1025180003F00203002B20D07B681B6803F0040340
:10252800002B05D0584A584B9B6843F4E0539360FE
:102538007B681B6803F00803002B05D0524A524BF6
:102548009B6843F4604393604F494F4B9B6823F06B
:10255800F0027B689B6813438B607B681B6803F001
:102568000103002B44D07B685B68012B07D1464BE5
:102578001B6803F40033002B19D101237DE07B682D
:102588005B68022B03D07B685B68032B07D13E4B4B
:102598001B6803F00073002B09D101236DE03A4B4F
:1025A8001B6803F00203002B01D1012365E03649C3
:1025B800354B9B6823F003027B685B6813438B6091
:1025C800FEF714FDF8600AE0FEF710FD0246FB680E
:1025D800D31A41F28832934201D903234DE02A4BA2
:1025E8009B6803F00C027B685B689B009A42EBD106
:1025F800244B1B6803F00F023B689A420CD9214B0D
:102608003A68D2B21A701F4B1B6803F00F023B687E
:102618009A4201D0012330E07B681B6803F0040371
:10262800002B08D01849184B9B6823F4E0527B68AC
:10263800DB6813438B607B681B6803F00803002B7F
:1026480009D01149104B9B6823F460427B681B69D1
:10265800DB0013438B6000F07BFB01460A4B9B6851
:102668001B0903F00F03094AD35C21FA03F3084A54
:1026780013600020FEF776FC002318461037BD468D
:1026880080BD00BF003C02400038024078CE000800
:102698000800002080B400AF034B1B681846BD46F5
:1026A8005DF8047B704700BF0800002080B500AFCC
:1026B800FFF7F0FF0146054B9B689B0A03F00703F1
:1026C800034AD35C21FA03F3184680BD0038024060
:1026D80088CE000880B500AFFFF7DCFF0146054B48
:1026E8009B685B0B03F00703034AD35C21FA03F3EF
:1026F800184680BD0038024088CE000880B58CB0EE
:1027080000AF786000237B6200233B620023FB61FB
:102718000023BB6100237B6100233B610023FB6036
:102728000023FB620023BB627B681B6803F0010384
:10273800002B10D06F496F4BD3F88C3023F0C06258
:102748007B689B6B1343C1F88C307B689B6B002BB9
:1027580001D10123FB627B681B6803F00203002B95
:1027680010D06449634BD3F88C3023F0C0527B6897
:10277800DB6B1343C1F88C307B68DB6B002B01D11A
:102788000123FB627B681B6803F00403002B17D04E
:102798005849584BD3F88C3023F440127B681B6B94
:1027A8001343C1F88C307B681B6BB3F5801F01D1D4
:1027B8000123FB627B681B6B002B01D10123BB62E9
:1027C8007B681B6803F00803002B17D04949494B65
:1027D800D3F88C3023F440027B685B6B1343C1F859
:1027E8008C307B685B6BB3F5800F01D10123FB62F2
:1027F8007B685B6B002B01D10123BB627B681B6884
:1028080003F02003002B00F08A800023BB60394AC4
:10281800384B1B6C43F080531364364B1B6C03F02E
:102828008053BB60BB68344A334B1B6843F48073E6
:102838001360FEF7DBFB786208E0FEF7D7FB024681
:102848007B6AD31A022B01D9032378E22A4B1B682F
:1028580003F48073002BF0D0264B1B6F03F44073F6
:102868003B623B6A002B2FD07B681B6C03F44072E1
:102878003B6A9A4228D01F4B1B6F23F440733B627C
:102888001E4B01221A601D4B00221A60194A3B6A2E
:102898001367184B1B6F03F00103012B14D1FEF7CC
:1028A800A5FB78620AE0FEF7A1FB02467B6AD31A11
:1028B80041F28832934201D9032340E20D4B1B6F4A
:1028C80003F00203002BEED07B681B6C03F440730B
:1028D800B3F5407F14D10749064B9B6823F4F812DF
:1028E8007B681B6C23F0704323F4407313438B60A5
:1028F8000CE000BF0038024000700040400E474224
:102908004A4A4A4B9B6823F4F81393604749474B5C
:102918001A6F7B681B6CC3F30B0313430B677B684D
:102928001B6803F01003002B04D0414A7B6893F81E
:10293800583013607B681B6803F08003002B0AD0B3
:102948003A493A4BD3F8943023F440027B68DB6C65
:102958001343C1F894307B681B6803F04003002BD5
:102968000AD03249314BD3F8943023F080627B6827
:102978009B6C1343C1F894307B681B6803F4807325
:10298800002B11D02949294BD3F8943023F0006249
:102998007B685B6D1343C1F894307B685B6DB3F162
:1029A800006F01D10123BB627B681B6803F40073CD
:1029B800002B0AD01D491D4BD3F8943023F08052C8
:1029C8007B685B6C1343C1F894307B681B6803F425
:1029D8008063002B11D01549144BD3F8943023F0A1
:1029E80000527B681B6D1343C1F894307B681B6DE4
:1029F800B3F1005F01D10123FB62FB6A012B05D013
:102A08007B681B68B3F5006F40F0FF80094B00221C
:102A18001A60FEF7EBFA78620EE0FEF7E7FA024674
:102A28007B6AD31A022B07D9032388E100380240B6
:102A3800E0114742680047427E4B1B6803F0006381
:102A4800002BEAD17B681B6803F00103002B03D03D
:102A58007B689B6B002B09D07B681B6803F0020323
:102A6800002B28D07B68DB6B002B24D1714BD3F86B
:102A780084301B0C03F0030301335B00FB616D4BD7
:102A8800D3F884301B0E03F00F03BB6169497B68E0
:102A98005A687B689B689B011A43FB695B08013B8A
:102AA8001B041A43BB691B061A437B685B691B0737
:102AB8001343C1F884307B681B6803F00403002BC0
:102AC80004D07B681B6BB3F5801F0AD07B681B683A
:102AD80003F00803002B35D07B685B6BB3F5800FE0
:102AE80030D1544BD3F884301B0C03F0030301336B
:102AF8005B00FB614F4BD3F884301B0F03F00703D7
:102B08007B614C497B685A687B689B689B011A43C8
:102B1800FB695B08013B1B041A437B681B691B06A6
:102B28001A437B691B071343C1F884304149414B61
:102B3800D3F88C3023F01F027B689B6A013B134358
:102B4800C1F88C307B681B6803F48063002B29D0A4
:102B58007B681B6DB3F1005F24D1364BD3F884300A
:102B68001B0C03F0030301335B00BB61314BD3F84B
:102B780084301B0F03F007037B612E497B685A687A
:102B88007B689B689B011A437B68DB685B08013B99
:102B98001B041A43BB691B061A437B691B071343B3
:102BA800C1F884307B681B6803F40063002B16D0DF
:102BB80020497B685A687B689B689B011A437B683D
:102BC800DB685B08013B1B041A437B681B691B0617
:102BD8001A437B685B691B071343C1F88430164BA3
:102BE80001221A60FEF702FA786208E0FEF7FEF9A1
:102BF80002467B6AD31A022B01D903239FE00D4BAF
:102C08001B6803F00063002BF0D0BB6A012B40F077
:102C180095800A4B00221A60FEF7E8F978620FE007
:102C2800FEF7E4F902467B6AD31A022B08D903237C
:102C380085E000BF00380240680047427000474204
:102C4800414B1B6803F00053B3F1005FE8D07B6889
:102C58001B6803F00403002B03D07B681B6B002B5D
:102C680009D07B681B6803F00803002B2BD07B6816
:102C78005B6B002B27D1344BD3F888301B0C03F047
:102C8800030301335B003B612F497B689A697B68CA
:102C9800DB699B011A433B695B08013B1B041A4330
:102CA8007B685B6A1B061343C1F888302649264BAC
:102CB800D3F88C3023F4F8527B68DB6A013B1B02A3
:102CC8001343C1F88C307B681B6803F48073002BB6
:102CD8001DD07B685B6DB3F1006F18D11A4BD3F828
:102CE80088301B0E03F00F03FB6017497B689A6955
:102CF8007B68DB699B011A437B681B6A5B08013BA5
:102D08001B041A43FB681B061343C1F888300F4B9A
:102D180001221A60FEF76AF9786208E0FEF766F9A0
:102D280002467B6AD31A022B01D9032307E0064B1C
:102D38001B6803F00053B3F1005FEFD1002318467E
:102D48003037BD4680BD00BF0038024070004742A2
:102D58002DE9F04F91B000AF00237B630023FB63A4
:102D680000233B630023FB620023BB639E4B9B68ED
:102D780003F00C030C2B00F22D8101A252F823F072
:102D8800BD2D0008DD2F0008DD2F0008DD2F00080D
:102D9800C32D0008DD2F0008DD2F0008DD2F0008F7
:102DA800C92D0008DD2F0008DD2F0008DD2F0008E1
:102DB800DF2E00088D4BBB630FE18D4BBB630CE12D
:102DC800894B5B6803F03F037B63874B5B6803F4C5
:102DD8008003002B23D0844B5B689B094FF00004D1
:102DE80040F2FF114FF0000203EA010304EA020473
:102DF8007F4A02FB04F1002202FB03F20A447C49E9
:102E0800A3FB0101531819467B6B4FF000041A46C7
:102E18002346FDF7FDFE03460C46FB634DE0724B6F
:102E28005B689B094FF0000440F2FF114FF000026D
:102E380001EA030102EA04020B46144660017862C3
:102E4800786A40EAD36078625B013B62D7E908346C
:102E58005B1A64EB02044FEA841949EA93694FEA62
:102E68008318B8EB030869EB04094FEAC903FB614F
:102E7800FB6943EA5873FB614FEAC803BB61D7E9B2
:102E8800068918EB010849EB02094FEA89237B619F
:102E98007B6943EA98537B614FEA88233B61D7E912
:102EA8000489404649467B6B4FF000041A46234686
:102EB800FDF7AEFE03460C46FB634B4B5B681B0CF1
:102EC80003F0030301335B003B63FA6B3B6BB2FB1C
:102ED800F3F3BB6381E0444B5B6803F03F037B6320
:102EE800414B5B6803F48003002B23D03E4B5B68A7
:102EF8009B094FF0000440F2FF114FF0000203EA73
:102F0800010304EA02043A4A02FB04F1002202FB2C
:102F180003F20A443649A3FB0101531819467B6B97
:102F28004FF000041A462346FDF772FE03460C468E
:102F3800FB6343E02C4B5B689B094FF0000440F2B5
:102F4800FF114FF0000201EA030102EA04020B46F6
:102F580014466001F860F86840EAD360F8605B01E5
:102F6800BB60D7E902345B1A64EB0204A60146EAA7
:102F780093669D01ED1A66EB0406F3007B607B689F
:102F880043EA55737B60EB003B6097E860006D187F
:102F980046EB02064FEA862B4BEA955B4FEA852AF9
:102FA80055465E46284631467B6B4FF000041A466C
:102FB8002346FDF72DFE03460C46FB630A4B5B6870
:102FC8001B0F03F00703FB62FA6BFB6AB2FBF3F318
:102FD800BB6302E0054BBB6300BFBB6B18464437BD
:102FE800BD46BDE8F08F00BF003802400024F40061
:102FF80040787D0180B586B000AF786000233B61E2
:103008007B681B6803F00103002B00F08380954B5D
:103018009B6803F00C03042B19D0924B9B6803F0B8
:103028000C03082B06D18F4B5B6803F48003B3F5C0
:10303800800F0CD08B4B9B6803F00C030C2B12D128
:10304800884B5B6803F48003B3F5800F0BD1854B85
:103058001B6803F40033002B5BD07B685B68002B94
:1030680057D1012316E27B685B68B3F5803F06D130
:103078007C4A7C4B1B6843F4803313601DE07B68FB
:103088005B68B3F5A02F0CD1764A764B1B6843F4E6
:1030980080231360734A734B1B6843F480331360B7
:1030A8000BE0704A6F4B1B6823F4803313606D4A42
:1030B8006C4B1B6823F4802313607B685B68002BD0
:1030C80013D0FDF793FF386108E0FDF78FFF024644
:1030D8003B69D31A642B01D90323DBE1614B1B68DD
:1030E80003F40033002BF0D014E0FDF77FFF3861C4
:1030F80008E0FDF77BFF02463B69D31A642B01D930
:103108000323C7E1574B1B6803F40033002BF0D1AE
:1031180000E000BF7B681B6803F00203002B6FD040
:10312800504B9B6803F00C03002B17D04D4B9B684A
:1031380003F00C03082B05D14A4B5B6803F48003AA
:10314800002B0BD0474B9B6803F00C030C2B1CD1B6
:10315800444B5B6803F48003002B16D1414B1B687A
:1031680003F00203002B05D07B68DB68012B01D03C
:1031780001238FE13B493B4B1B6823F0F8027B6836
:103188001B69DB0013430B603AE07B68DB68002BAC
:1031980020D0354B01221A60FDF728FF386108E07E
:1031A800FDF724FF02463B69D31A022B01D90323FA
:1031B80070E12C4B1B6803F00203002BF0D0294967
:1031C800284B1B6823F0F8027B681B69DB0013435C
:1031D8000B6015E0244B00221A60FDF707FF3861E9
:1031E80008E0FDF703FF02463B69D31A022B01D919
:1031F80003234FE11B4B1B6803F00203002BF0D1A4
:103208007B681B6803F00803002B37D07B685B6979
:10321800002B16D0154B01221A60FDF7E7FE386126
:1032280008E0FDF7E3FE02463B69D31A022B01D9F9
:1032380003232FE10B4B5B6F03F00203002BF0D04D
:103248001CE00A4B00221A60FDF7D0FE38610FE03F
:10325800FDF7CCFE02463B69D31A022B08D903239B
:1032680018E100BF0038024000004742800E474284
:103278008A4B5B6F03F00203002BE9D17B681B6864
:1032880003F00403002B00F097800023FB75834BA9
:103298001B6C03F08053002B0FD10023FB607F4A87
:1032A8007E4B1B6C43F0805313647C4B1B6C03F008
:1032B8008053FB60FB680123FB75794B1B6803F4A3
:1032C8008073002B18D1764A754B1B6843F48073C2
:1032D8001360FDF78BFE386108E0FDF787FE0246B4
:1032E8003B69D31A022B01D90323D3E06C4B1B682B
:1032F80003F48073002BF0D07B689B68012B06D108
:10330800664A664B1B6F43F0010313671CE07B683A
:103318009B68052B0CD1614A604B1B6F43F004037B
:1033280013675E4A5D4B1B6F43F0010313670BE0A5
:103338005A4A5A4B1B6F23F001031367574A574BDE
:103348001B6F23F0040313677B689B68002B15D061
:10335800FDF74CFE38610AE0FDF748FE02463B697E
:10336800D31A41F28832934201D9032392E04B4B9E
:103378001B6F03F00203002BEED014E0FDF736FEBE
:1033880038610AE0FDF732FE02463B69D31A41F282
:103398008832934201D903237CE0404B1B6F03F032
:1033A8000203002BEED1FB7D012B05D13B4A3B4BA1
:1033B8001B6C23F0805313647B689B69002B68D0D7
:1033C800364B9B6803F00C03082B60D07B689B6925
:1033D800022B45D1334B00221A60FDF707FE3861F6
:1033E80008E0FDF703FE02463B69D31A022B01D918
:1033F80003234FE0294B1B6803F00073002BF0D127
:1034080026497B68DA697B681B6A1A437B685B6AB2
:103418009B011A437B689B6A5B08013B1B041A43A8
:103428007B68DB6A1B061A437B681B6B1B0713430D
:103438004B601C4B01221A60FDF7D8FD386108E08B
:10344800FDF7D4FD02463B69D31A022B01D90323A9
:1034580020E0124B1B6803F00073002BF0D018E03B
:10346800104B00221A60FDF7C1FD386108E0FDF736
:10347800BDFD02463B69D31A022B01D9032309E09B
:10348800064B1B6803F00073002BF0D101E0012309
:1034980000E0002318461837BD4680BD00380240BA
:1034A800007000406000474280B582B000AF78608D
:1034B8007B68002B01D1012383E07B685B7FDBB253
:1034C800002B05D17B6800221A77786808F0C0FEC7
:1034D8007B6802225A777B681B68CA225A627B681B
:1034E8001B6853225A62786800F059FA0346002B89
:1034F80008D07B681B68FF225A627B6804225A77CF
:1035080001235EE07B681A687B681B689B6823F46C
:10351800E00323F0400393607B681B687A681268B5
:1035280091687A6850687A68126910437A685269B3
:1035380002430A439A607B681B687A68D2681A61FA
:103548007B681B687A68126811697A689268120445
:103558000A431A617B681B687A681268D26822F08D
:103568008002DA607B681B689B6803F02003002BED
:103578000ED1786800F0EBF90346002B08D07B6881
:103588001B68FF225A627B6804225A77012318E0DD
:103598007B681B687A681268126C22F480221A64AD
:1035A8007B681B687A681268116C7A6892690A43AA
:1035B8001A647B681B68FF225A627B6801225A776B
:1035C800002318460837BD4680BD90B587B000AFC8
:1035D800F860B9607A6000237B61FB681B7F012B70
:1035E80001D10223AAE0FB6801221A77FB680222B4
:1035F8005A777B68002B26D1FB681B689B6803F011
:103608004003002B02D1BB680022DA70BB681B782C
:10361800184600F0F0F903461C04BB685B781846AE
:1036280000F0E9F903461B021C43BB689B78184667
:1036380000F0E1F9034644EA0302BB68DB781B04A7
:1036480013437B6118E0FB681B689B6803F0400329
:10365800002B02D1BB680022DA70BB681B781A0401
:10366800BB685B781B021343BA6892781A43BB683D
:10367800DB781B0413437B61FB681B68CA225A6210
:10368800FB681B6853225A62F86800F088F9034601
:10369800002B0BD0FB681B68FF225A62FB680422D0
:1036A8005A77FB6800221A77012347E0FB681A68FB
:1036B8007B6903F07F3323F0FE431360FB681B68CC
:1036C800FA681268926822F480229A60FB681B6884
:1036D800FA6812689168BA68D068BA6812690243D1
:1036E8000A439A60FB681B68FA681268D26822F07D
:1036F8008002DA60FB681B689B6803F02003002BDC
:1037080011D1F86800F023F90346002B0BD0FB68B1
:103718001B68FF225A62FB6804225A77FB68002262
:103728001A7701230AE0FB681B68FF225A62FB68CC
:1037380001225A77FB6800221A77002318461C37A3
:10374800BD4690BD80B586B000AFF860B9607A60BC
:1037580000237B61FB681B689A6ABB685A60FB6838
:103768001B681B69C3F30E02BB689A60FB681B6881
:103778001B6803F07F3323F0FE437B617B691B0CDE
:10378800DBB203F03F03DAB2BB681A707B691B0A2D
:10379800DBB203F07F03DAB2BB685A707B69DBB235
:1037A80003F07F03DAB2BB689A707B691B0CDBB24B
:1037B80003F04003DAB2BB68DA707B68002B1AD1D9
:1037C800BB681B78184600F034F903461A46BB68F4
:1037D8001A70BB685B78184600F02BF903461A4646
:1037E800BB685A70BB689B78184600F022F90346FC
:1037F8001A46BB689A70002318461837BD4680BD24
:1038080090B587B000AFF860B9607A6000237B613B
:10381800FB681B7F012B01D1022394E0FB68012286
:103828001A77FB6802225A777B68002B0ED1BB6897
:103838005B7803F01003002B08D0BB685B7823F09B
:103848001003DBB20A33DAB2BB685A707B68002B0C
:103858001CD1BB68DB78184600F0CDF803461C0481
:10386800BB685B78184600F0C6F803461B021C4389
:10387800BB689B78184600F0BEF8034644EA03028A
:10388800BB681B785B0313437B610EE0BB68DB7886
:103898001A04BB685B781B021343BA6892781A4310
:1038A800BB681B785B0313437B61FB681B68CA22F8
:1038B8005A62FB681B6853225A62F86800F06FF876
:1038C8000346002B0BD0FB681B68FF225A62FB687B
:1038D80004225A77FB6800221A77012333E0FB6839
:1038E8001A687B6923F07F4323F0C0035360FB68A9
:1038F8001B68FA681268D26822F08002DA60FB68F6
:103908001B689B6803F02003002B11D1F86800F0B6
:103918001EF80346002B0BD0FB681B68FF225A6277
:10392800FB6804225A77FB6800221A7701230AE011
:10393800FB681B68FF225A62FB6801225A77FB6802
:1039480000221A77002318461C37BD4690BD80B563
:1039580084B000AF78600023FB607B681B687A68DE
:103968001268D26822F0A002DA60FDF73FFBF86027
:1039780009E0FDF73BFB0246FB68D31AB3F57A7FF3
:1039880001D9032307E07B681B68DB6803F0200389
:10399800002BEED0002318461037BD4680BD80B5F9
:1039A80084B000AF78600023FB607B681B68DB682D
:1039B80003F04003002B19D17B681B684FF0FF32DE
:1039C800DA60FDF713FBF86009E0FDF70FFB02462C
:1039D800FB68D31AB3F57A7F01D9032307E07B6824
:1039E8001B68DB6803F04003002BEED00023184669
:1039F8001037BD4680BD80B485B000AF0346FB716B
:103A08000023FB6005E0FB680133FB60FB790A3BA0
:103A1800FB71FB79092BF6D8FB68DBB21B01DAB224
:103A2800FB791343DBB218461437BD465DF8047BB7
:103A3800704780B485B000AF0346FB710023FB607C
:103A4800FB791B09DBB21A4613469B0013445B0043
:103A5800FB60FB7903F00F03DAB2FB68DBB21344B7
:103A6800DBB218461437BD465DF8047B704780B555
:103A780082B000AF78607B68002B01D101231DE084
:103A88007B6893F83430DBB2002B05D17B680022C9
:103A98001A77786808F0F2FB7B68032283F83420F1
:103AA800786800F00FF87B6800229A637B68002230
:103AB8001A637B68012283F83420002318460837EC
:103AC800BD4680BDB0B58EB004AF786000237B6280
:103AD8000023FB6000233B6100237B610023BB6163
:103AE8000023FB6176233B627B681D686C4607F107
:103AF800180393E8070084E8070007F10C030ECBCE
:103B0800284602F08DFE1C4B00221A607B681B6859
:103B1800184602F0CEFE184B01221A600220FDF76B
:103B280071FA786800F0EAFF78627B6A002B0BD0A4
:103B38007B68012283F834207B689A6B7B6A1A437E
:103B48007B689A63012313E0786800F00EFF7862BF
:103B58007B6A002B0BD07B68012283F834207B68BA
:103B68009A6B7B6A1A437B689A63012300E00023FF
:103B780018462837BD46B0BDA080254280B58CB018
:103B880000AFF860B9607A603B600023FB62BB68F5
:103B9800002B07D1FB689B6B43F00062FB689A63BC
:103BA8000123ABE0FB6893F83430DBB2012B40F023
:103BB800A480FB6800229A637A683B681A44FB6811
:103BC800DB6D9A4207D9FB689B6B43F00072FB6878
:103BD8009A63012392E0FB68032283F83420FB6890
:103BE8001B680022DA62FB681B68FA681268D26BED
:103BF80042F49572DA63FB68DB6B424ADA63FB686E
:103C0800DB6B414ADA64FB68DB6B00221A65FB68F0
:103C1800D86BFB681B6880331946BA683B685B023F
:103C28009B08FDF773FE394B01221A60FB685B6C39
:103C3800012B02D07B685B027B604FF0FF337B6116
:103C48003B685B02BB619023FB6102233B6200235C
:103C58007B620123BB62FB681B6807F114021146F3
:103C6800184602F08EFEFB681B684FF40071184678
:103C780002F0B3FEF862FB6A002B10D0FB681B68E9
:103C880040F2FF529A63FB689A6BFB6A1A43FB681F
:103C98009A63FB68012283F8342001232EE03B68F5
:103CA800012B0AD9FB6882221A63FB681B687968B2
:103CB800184602F0DAFEF86209E0FB6881221A630E
:103CC800FB681B687968184602F0ABFEF862FB6A6D
:103CD800002B10D0FB681B6840F2FF529A63FB6808
:103CE8009A6BFB6A1A43FB689A63FB68012283F8A4
:103CF8003420012302E0002300E002231846303775
:103D0800BD4680BD83470008F14700088C852542E1
:103D180080B58CB000AFF860B9607A603B60002372
:103D2800FB62BB68002B07D1FB689B6B43F000620A
:103D3800FB689A630123ABE0FB6893F83430DBB28D
:103D4800012B40F0A480FB6800229A637A683B68E4
:103D58001A44FB68DB6D9A4207D9FB689B6B43F0FA
:103D68000072FB689A63012392E0FB68032283F8E0
:103D78003420FB681B680022DA62FB681B68FA685B
:103D88001268D26B42F01A02DA63FB681B6C424A73
:103D9800DA63FB681B6C414ADA64FB681B6C00221F
:103DA8001A65FB685B6C012B02D07B685B027B6049
:103DB800FB681B684FF40071184602F00EFEF862AB
:103DC800FB6A002B10D0FB681B6840F2FF529A6315
:103DD800FB689A6BFB6A1A43FB689A63FB680122CB
:103DE80083F83420012353E03B68012B0AD9FB6890
:103DF800A0221A63FB681B687968184602F07DFEEA
:103E0800F86209E0FB6890221A63FB681B6879680E
:103E1800184602F04EFEF862FB6A002B10D0FB68D1
:103E28001B6840F2FF529A63FB689A6BFB6A1A435D
:103E3800FB689A63FB68012283F83420012327E09A
:103E4800174B01221A60FB68186CB968FB681B687D
:103E580080331A463B685B029B08FDF757FD4FF01D
:103E6800FF337B613B685B02BB619023FB610023EE
:103E78003B6200237B620123BB62FB681B6807F17E
:103E880014021146184602F07CFD002300E00223CC
:103E980018463037BD4680BD59470008F14700082D
:103EA8008C85254280B584B000AF78600023FB6024
:103EB8007B681B685B6B03F48073002B00F08B80BE
:103EC8007B681B684FF480729A637B681B687A680A
:103ED8001268D26B22F49D72DA637B681B6B03F065
:103EE8000803002B3AD07B681B6B03F00203002BFE
:103EF80005D17B681B6B03F02003002B11D07B6876
:103F08001B68184602F01EFEF860FB68002B08D0FC
:103F18007B689A6BFB681A437B689A63786800F041
:103F280015F97B681B6840F2FF529A637B6801228F
:103F380083F834207B681B6B03F00103002B05D149
:103F48007B681B6B03F00203002B03D0786806F034
:103F5800A9FCF3E0786806F09BFCEFE07B681B6B3C
:103F680003F08003002B00F0E9807B681B6B03F0F3
:103F78002003002B11D07B681B68184602F0E2FD75
:103F8800F860FB68002B08D07B689A6BFB681A43C3
:103F98007B689A63786800F0D9F87B681B6B03F03C
:103FA8000103002B40F0CA807B681B6B03F00203FF
:103FB800002B40F0C3807B681B687A681268D26A5D
:103FC80022F00802DA627B68012283F834207868DC
:103FD80006F05EFCB2E07B681B685B6B03F4804311
:103FE800002B08D07B681B684FF480429A6378687E
:103FF80000F0E0FFA2E07B681B685B6B03F4004302
:10400800002B08D07B681B684FF400429A637868DD
:1040180000F0A8FF92E07B681B685B6B03F03A0333
:10402800002B00F08B807B681B685B6B03F002033E
:10403800002B05D07B689B6B43F002027B689A6378
:104048007B681B685B6B03F00803002B05D07B685B
:104058009B6B43F008027B689A637B681B685B6B09
:1040680003F02003002B05D07B689B6B43F02002F4
:104078007B689A637B681B685B6B03F01003002BFB
:1040880005D07B689B6B43F010027B689A637B6862
:104098001B6840F2FF529A637B681B687A68126853
:1040A800D26B22F49D72DA637B681B6B03F080038A
:1040B800002B36D07B681B6C002B11D07B681B6CE7
:1040C800204A1A657B681B6C1846FDF77FFC03467F
:1040D800002B33D07B681B6C184600F0CAFB2DE020
:1040E8007B68DB6B002B11D07B68DB6B164A1A658B
:1040F8007B68DB6B1846FDF769FC0346002B1DD077
:104108007B68DB6B184600F0F2FB17E07B68002247
:104118009A637B68012283F83420786806F0AEFB46
:104128000CE07B681B6B03F00803002B06D07B6850
:10413800012283F83420786800F008F800BF1037AF
:10414800BD4680BD7B480008F748000880B483B0AE
:1041580000AF786000BF0C37BD465DF8047B704740
:1041680090B484B000AF786039600023FB607B684E
:104178005B6E1B0EFB60FB689B09DBB203F003035D
:10418800DAB23B681A70FB689B08DBB203F00F03D6
:10419800DAB23B685A70FB68DBB203F00303DAB2A9
:1041A8003B689A707B685B6E1B0CDBB2FB60FB683C
:1041B800DAB23B68DA707B685B6E1B0ADBB2FB60C5
:1041C800FB68DAB23B681A717B685B6EDBB2FB6036
:1041D800FB68DAB23B685A717B689B6E1B0EFB600A
:1041E800FB689BB21B019AB23B68DA807B689B6EC6
:1041F8001B0CDBB2FB603B68DB889AB2FB681B09CF
:104208009BB203F00F039BB213439AB23B68DA8068
:10421800FB68DBB203F00F03DAB23B681A727B6803
:104228009B6E1B0ADBB2FB60FB68DB09DBB203F0A9
:104238000103DAB23B685A72FB689B09DBB203F0F0
:104248000103DAB23B689A72FB685B09DBB203F0E0
:104258000103DAB23B68DA72FB681B09DBB203F0D0
:104268000103DAB23B681A733B6800225A737B6811
:104278005B6C002B40F08680FB689B0203F4406275
:104288003B681A617B689B6EDBB2FB603B681A690E
:10429800FB689B001A433B681A617B68DB6E1B0E48
:1042A800DBB2FB603B681A69FB689B0903F00303F8
:1042B8001A433B681A61FB68DB08DBB203F00703AB
:1042C800DAB23B681A75FB68DBB203F00703DAB2AF
:1042D8003B685A757B68DB6E1B0CDBB2FB60FB68C6
:1042E8005B09DBB203F00703DAB23B689A75FB6837
:1042F8009B08DBB203F00703DAB23B68DA75FB68A8
:10430800DBB25B00DBB203F00603DAB23B681A7675
:104318007B68DB6E1B0ADBB2FB603B681B7EDAB294
:10432800FB68DB09DBB203F00103DBB21343DAB24B
:104338003B681A763B681B695A1C7B685A653B6860
:104348001B7EDBB2023301229A407B685B6D02FB65
:1043580003F27B685A653B681B7ADBB21A46012375
:1043680003FA02F27B689A657B685B6D7A68926DE6
:10437800520A02FB03F27B68DA657B684FF400722D
:104388001A6651E07B685B6C012B3CD17B689B6EA5
:10439800DBB2FB60FB681B0403F47C123B681A6108
:1043A8007B68DB6E1B0EDBB2FB603B681A69FB683F
:1043B8001B021A433B681A617B68DB6E1B0CDBB27D
:1043C800FB603B681A69FB681A433B681A617B68A3
:1043D800DB6E1B0ADBB2FB603B681B694FF0000415
:1043E800013344F100049A027B685A657B685A6D70
:1043F8007B68DA657B684FF400729A657B689A6D12
:104408007B681A6610E07B681B6840F2FF529A636B
:104418007B689B6B43F080527B689A637B680122C0
:1044280083F834200123C1E0FB689B09DBB203F069
:104438000103DAB23B685A76FB68DBB25B00DBB299
:1044480003F07E03DAB23B689A767B68DB6EDBB2F8
:10445800FB603B689B7EDAB2FB68DB09DBB203F0EA
:104468000103DBB21343DAB23B689A76FB68DBB22E
:1044780003F07F03DAB23B68DA767B681B6F1B0EAA
:10448800DBB2FB60FB68DB09DBB203F00103DAB2E5
:104498003B681A77FB685B09DBB203F00303DAB207
:1044A8003B685A77FB689B08DBB203F00703DAB274
:1044B8003B689A77FB68DBB29B00DBB203F00C0326
:1044C800DAB23B68DA777B681B6F1B0CDBB2FB60E8
:1044D8003B68DB7FDAB2FB689B09DBB203F00303BE
:1044E800DBB21343DAB23B68DA77FB685B09DBB20D
:1044F80003F00103DAB23B6883F820203B6800220E
:1045080083F82120FB68DBB203F00103DAB23B68D1
:1045180083F822207B681B6F1B0ADBB2FB60FB68F9
:10452800DB09DBB203F00103DAB23B6883F823202E
:10453800FB689B09DBB203F00103DAB23B6883F83E
:104548002420FB685B09DBB203F00103DAB23B68A5
:1045580083F82520FB681B09DBB203F00103DAB2FC
:104568003B6883F82620FB689B08DBB203F0030353
:10457800DAB23B6883F82720FB68DBB203F0030359
:10458800DAB23B6883F828207B681B6FDBB2FB60DC
:10459800FB685B08DBB203F07F03DAB23B6883F8A1
:1045A80029203B68012283F82A2000231846103767
:1045B800BD4690BC704780B483B000AF7860396066
:1045C8007B685A6C3B681A607B689A6C3B685A60D7
:1045D8007B68DA6C3B689A607B681A6D3B68DA60C6
:1045E8007B685A6D3B681A617B689A6D3B685A61B3
:1045F8007B68DA6D3B689A617B681A6E3B68DA61A2
:10460800002318460C37BD465DF8047B7047B0B5EB
:104618008EB004AF7860396000237B627B68032228
:1046280083F834207B685B6C032B2ED03B68B3F592
:10463800805F06D17B689B6B43F080527B689A63EE
:1046480029E03B68B3F5006F0AD1786800F028FBD1
:1046580078627B689A6B7B6A1A437B689A631AE074
:104668003B68002B0AD1786800F067FB78627B68AA
:104678009A6B7B6A1A437B689A630CE07B689B6B36
:1046880043F000627B689A6305E07B689B6B43F0AC
:1046980080527B689A637B689B6B002B0AD07B688F
:1046A8001B6840F2FF529A637B68012283F834202A
:1046B800012324E07B685B68FB607B689B683B6147
:1046C8007B68DB687B613B68BB617B685B69FB611E
:1046D8007B689B693B627B681D686C4607F1180321
:1046E80093E8070084E8070007F10C030ECB28467F
:1046F80002F096F87B68012283F8342000231846DC
:104708002837BD46B0BD80B586B000AF78600423B9
:10471800FB7500233B610023FB6007F10C0319467E
:10472800786800F093FA38613B69002B05D07B6804
:104738009A6B3B691A437B689A63FB685B0ADBB236
:1047480003F00F03FB75FB7D18461837BD4680BD87
:1047580080B485B000AF78607B689B6BFB60FB68BA
:104768001B68FA681268D26B42F48072DA6300BF81
:104778001437BD465DF8047B704780B584B000AF40
:1047880078607B689B6BFB600023BB60FB681B6BDE
:10479800822B11D1FB681B68184602F0D3F9B86068
:1047A800BB68002B08D0FB689A6BBB681A43FB6890
:1047B8009A63F868FFF7CAFCFB681B68FA68126816
:1047C800D26A22F00802DA62FB681B6840F2FF52E4
:1047D8009A63FB68012283F83420F86806F062F8CF
:1047E80000BF1037BD4680BD80B584B000AF78608B
:1047F8007B689B6BFB60FB68DB6B5B6D012B04D0FC
:10480800FB681B6C5B6D012B2CD1FB681B6840F2AD
:10481800FF529A63FB681B68FA681268D26B22F42D
:104828009D72DA63FB689B6B43F08042FB689A6376
:10483800F868FFF768FF0346FB72FB7A062B02D085
:10484800FB7A052B0AD1FB681B68184602F07AF937
:104858000246FB689B6B1A43FB689A63FB6801225C
:1048680083F83420F868FFF771FC00BF1037BD46A5
:1048780080BD80B584B000AF78607B689B6BFB60BF
:10488800FB681B6C002B02D0FB6800221A64FB68D3
:10489800DB6B002B27D1F868FFF735FF0346FB7267
:1048A800FB6800229A63FB68012283F83420FB7AB4
:1048B800062B02D0FB7A052B15D1FB681B6818461E
:1048C80002F040F90246FB689B6B1A43FB689A6347
:1048D800FB689B6B002B03D0F86805F0CFFF02E064
:1048E800F868FFF733FC00BF1037BD4680BD80B5C0
:1048F80084B000AF78607B689B6BFB60FB68DB6B08
:10490800002B02D0FB680022DA63FB681B6C002BCB
:1049180027D1F868FFF7F7FE0346FB72FB68002211
:104928009A63FB68012283F83420FB7A062B02D0B5
:10493800FB7A052B15D1FB681B68184602F002F9B3
:104948000246FB689B6B1A43FB689A63FB689B6B88
:10495800002B03D0F86805F091FF02E0F868FFF734
:10496800F5FB00BF1037BD4680BDB0B594B004AFAD
:1049780078600023FB630123FB817B681B68184672
:1049880001F0A5FF0346002B02D14FF08063B1E090
:104998007B685B6C032B2FD07B681B68184602F082
:1049A800EBF9F863FB6B002B01D0FB6BA2E07B6893
:1049B8001B680021184601F0CFFF02467B685A6742
:1049C8007B681B680421184601F0C6FF02467B6815
:1049D8009A677B681B680821184601F0BDFF0246EC
:1049E8007B68DA677B681B680C21184601F0B4FF06
:1049F80002467B68C3F880207B685B6C032B0DD074
:104A08007B681B6807F10E021146184602F0F5F99B
:104A1800F863FB6B002B01D0FB6B6BE07B685B6C76
:104A2800032B36D0FB891A467B681A657B681A689F
:104A38007B681B6D1B041946104602F0BDF9F8632C
:104A4800FB6B002B01D0FB6B54E07B681B680021DB
:104A5800184601F081FF02467B685A667B681B682E
:104A68000421184601F078FF02467B689A667B6845
:104A78001B680821184601F06FFF02467B68DA665A
:104A88007B681B680C21184601F066FF02467B68AC
:104A98001A677B681B680421184601F05DFF03460E
:104AA8001A0D7B68DA6407F1100319467868FFF776
:104AB80057FB7B6819687B681B6D1B044FF000046B
:104AC8001A462346084602F061F8F863FB6B002B90
:104AD80001D0FB6B0EE07B681D687B686C4603F1B8
:104AE800100207CA84E8070004330ECB284601F0F9
:104AF80097FE002318464037BD46B0BD80B586B046
:104B080000AF78600023BB6000237B6100233B611A
:104B18000023FB607B681B68184602F05CF8F860AD
:104B2800FB68002B01D0FB688CE07B681B6818468B
:104B380002F071F8F860FB68002B3DD07B6800221A
:104B48009A6432E0BB685A1CBA604FF6FF7293420F
:104B580002D14FF0807375E07B681B68002118460E
:104B680002F07AF8F860FB68002B02D04FF080530F
:104B780068E07B681B680021184602F091F8F8602D
:104B8800FB68002B02D04FF080535BE07B681B680A
:104B98000021184601F0E0FE78617B69DB0F012BEC
:104BA80001D1012300E000233B613B69002BC9D000
:104BB8007B6800225A6444E07B6801229A6431E0F1
:104BC800BB685A1CBA604FF6FF72934202D14FF08D
:104BD800807337E07B681B680021184602F03CF8B8
:104BE800F860FB68002B01D0FB682BE07B681B6832
:104BF8004FF08041184602F053F8F860FB68002B2C
:104C080001D0FB681EE07B681B680021184601F094
:104C1800A3FE78617B69DB0F012B01D1012300E042
:104C280000233B613B69002BCAD07B6903F08043BA
:104C3800002B03D07B6801225A6402E07B680022C3
:104C48005A64002318461837BD4680BD80B584B025
:104C580000AF786039600023FB603B68002B02D10D
:104C68004FF0006318E07B681A687B681B6D1B04B3
:104C78001946104602F0E4F8F860FB68002B01D0F2
:104C8800FB6809E07B681B680021184601F064FE98
:104C980002463B681A60002318461037BD4680BD9F
:104CA80080B586B000AF78600023FB6000233B61CD
:104CB80000237B617B681B680021184601F04CFECD
:104CC800034603F00073B3F1007F02D14FF4006391
:104CD8002FE007F10C031946786800F07BF878613B
:104CE8007B69002B01D07B6923E03B6903F48023B7
:104CF800002B1CD07B681A687B681B6D1B04194647
:104D0800104601F0A9FF78617B69002B01D07B690F
:104D18000FE07B681B680221184601F0E6FF786106
:104D28007B69002B01D07B6903E0002301E04FF091
:104D3800806318461837BD4680BD80B586B000AF81
:104D480078600023FB6000233B6100237B617B6864
:104D58001B680021184601F0FFFD034603F00073AD
:104D6800B3F1007F02D14FF400632FE007F10C0389
:104D78001946786800F02EF878617B69002B01D01D
:104D88007B6923E03B6903F48033002B1CD07B68EC
:104D98001A687B681B6D1B041946104601F05CFFFE
:104DA80078617B69002B01D07B690FE07B681B6809
:104DB8000021184601F099FF78617B69002B01D02A
:104DC8007B6903E0002301E04FF080631846183741
:104DD800BD4680BD90B58FB000AF786039600023C4
:104DE8003B63FCF703F9F86200237B630023FB6055
:104DF80000233B617B681B680821184601F0EDFD24
:104E080038633B6B002B01D03B6BA7E07B681A68CB
:104E18007B681B6D1B041946104601F01DFF3863A3
:104E28003B6B002B01D03B6B98E04FF0FF337B616D
:104E38000823BB613023FB6102233B6200237B62B2
:104E48000123BB627B681B6807F1140211461846F0
:104E580001F097FD7B681B68184601F06AFF38630C
:104E68003B6B002B22D03B6B78E07B681B685B6B4D
:104E780003F40013002B0ED07B6B9B0007F10C0290
:104E8800D4187B681B68184601F0F5FC03462360BC
:104E98007B6B01337B63FCF7A9F80246FB6AD31AE4
:104EA800B3F1FF3F02D14FF0004357E07B681B6826
:104EB8005A6B40F22A431340002BD6D07B681B68FC
:104EC8005B6B03F00803002B05D07B681B68082286
:104ED8009A63082342E07B681B685B6B03F002035C
:104EE800002B05D07B681B6802229A63022335E0F9
:104EF8007B681B685B6B03F02003002B05D07B6885
:104F08001B6820229A63202328E07B681B6840F2F4
:104F1800FF529A633B680433FA681106FA68120272
:104F280002F47F021143FA68120A02F47F42114325
:104F3800FA68120E0A431A603B691A063B691B029B
:104F480003F47F031A433B691B0A03F47F431A43A4
:104F58003B691B0E1A433B681A60002318463C370E
:104F6800BD4690BD90B585B000AF78600023FB606A
:104F78007B689B6ABB600023FB600DE0FB689B00BD
:104F8800BA68D4187B681B68184601F074FC03469D
:104F98002360FB680133FB60FB68072BEED97B6855
:104FA8009B6A03F120027B689A6200231846143733
:104FB800BD4690BD80B584B000AF78600023FB602B
:104FC8007B681B6ABB600023FB600BE07B6818688A
:104FD800FB689B00BA681344194601F059FCFB684A
:104FE8000133FB60FB68072BF0D97B681B6A03F170
:104FF80020027B681A62002318461037BD4680BD20
:1050080080B582B000AF78607B68002B01D10123A6
:1050180055E07B6800229A627B6893F85130DBB2D6
:10502800002B06D17B68002283F85020786807F0AF
:1050380015FA7B68022283F851207B681B687A681E
:105048001268126822F040021A607B681B687A684E
:1050580051687A68926811437A68D26811437A680D
:10506800126911437A68526911437A68926902F4A5
:10507800007211437A68D26911437A68126A11433F
:105088007A68926A0A431A607B681B687A68926930
:10509800120C02F004017A68526A0A435A607B686B
:1050A8001B687A681268D26922F40062DA617B6848
:1050B80000225A657B68012283F851200023184694
:1050C8000837BD4680BD80B588B000AFF860B960CC
:1050D8003B601346FB800023FB77FB6893F8503056
:1050E800012B01D102231CE1FB68012283F8502027
:1050F800FBF77CFFB861FB88FB82FB6893F85130B3
:10510800DBB2012B02D00223FB7701E1BB68002B45
:1051180002D0FB88002B02D10123FB77F8E0FB6863
:10512800032283F85120FB6800225A65FB68BA689D
:105138001A63FB68FA889A86FB68FA88DA86FB683D
:1051480000229A63FB6800229A87FB680022DA87AC
:10515800FB6800225A64FB6800221A64FB689B689B
:10516800B3F5004F07D1FB681B68FA68126812682C
:1051780042F480421A60FB681B681B6803F0400316
:10518800402B07D0FB681B68FA681268126842F067
:1051980040021A60FB68DB68B3F5006F4BD1FB680F
:1051A8005B68002B02D0FB8A012B3ED1FB681B6891
:1051B800FA68126B1288DA60FB681B6B9A1CFB6832
:1051C8001A63FB68DB8E9BB2013B9AB2FB68DA86F6
:1051D8002BE0FB681B689B6803F00203022B12D1CB
:1051E800FB681B68FA68126B1288DA60FB681B6B35
:1051F8009A1CFB681A63FB68DB8E9BB2013B9AB270
:10520800FB68DA8611E0FBF7F1FE0246BB69D21AA9
:105218003B689A4203D33B68B3F1FF3F02D13B6836
:10522800002B02D10323FB7772E0FB68DB8E9BB275
:10523800002BCED14CE0FB685B68002B02D0FB8AC8
:10524800012B40D1FB681B680C33FA68126B12788B
:105258001A70FB681B6B5A1CFB681A63FB68DB8EB1
:105268009BB2013B9AB2FB68DA862CE0FB681B68AC
:105278009B6803F00203022B13D1FB681B680C33F5
:10528800FA68126B12781A70FB681B6B5A1CFB6861
:105298001A63FB68DB8E9BB2013B9AB2FB68DA8625
:1052A80011E0FBF7A3FE0246BB69D21A3B689A429B
:1052B80003D33B68B3F1FF3F02D13B68002B02D117
:1052C8000323FB7724E0FB68DB8E9BB2002BCDD158
:1052D800BA693968F86800F085FD0346002B02D0EA
:1052E800FB6820225A65FB689B68002B0AD10023C3
:1052F8003B61FB681B68DB683B61FB681B689B685C
:105308003B613B69FB685B6D002B01D00123FB7798
:10531800FB68012283F85120FB68002283F85020A3
:10532800FB7F18462037BD4680BD80B588B002AFE8
:10533800F860B9603B601346FB800023FB75FB688F
:105348005B68B3F5827F12D1FB689B68002B0ED196
:10535800FB68042283F85120FA883B6800931346BF
:10536800BA68B968F86800F0E6F80346DFE0FB6859
:1053780093F85030012B01D10223D8E0FB680122B9
:1053880083F85020FBF732FE3861FB6893F8513000
:10539800DBB2012B02D00223FB75BFE0BB68002BF8
:1053A80002D0FB88002B02D10123FB75B6E0FB6815
:1053B800042283F85120FB6800225A65FB68BA680A
:1053C8009A63FB68FA889A87FB68FA88DA87FB6829
:1053D80000221A63FB6800229A86FB680022DA869C
:1053E800FB6800221A64FB6800225A64FB689B6809
:1053F800B3F5004F07D1FB681B68FA68126812689A
:1054080022F480421A60FB681B681B6803F04003A3
:10541800402B07D0FB681B68FA681268126842F0D4
:1054280040021A60FB68DB68002B61D12DE0FB6845
:105438001B689B6803F00103012B14D1FB689B6B6D
:10544800FA6812680C321278D2B21A70FB689B6B39
:105458005A1CFB689A63FB68DB8F9BB2013B9AB2CC
:10546800FB68DA8711E0FBF7C1FD02463B69D21AF7
:105478003B689A4203D33B68B3F1FF3F02D13B68D4
:10548800002B02D10323FB7548E0FB68DB8F9BB23E
:10549800002BCCD131E0FB681B689B6803F001034B
:1054A800012B13D1FB689B6BFA681268D26892B221
:1054B8001A80FB689B6B9A1CFB689A63FB68DB8FFE
:1054C8009BB2013B9AB2FB68DA8711E0FBF78EFDCD
:1054D80002463B69D21A3B689A4203D33B68B3F150
:1054E800FF3F02D13B68002B02D10323FB7515E077
:1054F800FB68DB8F9BB2002BCDD13A693968F8681D
:1055080000F00AFC0346002B02D0FB6820225A65F3
:10551800FB685B6D002B01D00123FB75FB68012242
:1055280083F85120FB68002283F85020FB7D184641
:105538001837BD4680BD80B58CB000AFF860B96043
:105548007A607B800123FB62002387F82B30FB689D
:1055580093F85030012B01D1022388E1FB68012226
:1055680083F85020FBF742FD7862FB6893F85130CE
:1055780087F82330FB685B68FB617B887B8397F83F
:105588002330012B0FD0FB69B3F5827F07D1FB686D
:105598009B68002B03D197F82330042B03D00223F8
:1055A80087F82B3059E1BB68002B05D07B68002BAE
:1055B80002D07B88002B03D1012387F82B304CE1E4
:1055C800FB6893F85130DBB2042B03D0FB6805224B
:1055D80083F85120FB6800225A65FB687A689A6351
:1055E800FB687A88DA87FB687A889A87FB68BA68E2
:1055F8001A63FB687A88DA86FB687A889A86FB6879
:1056080000221A64FB6800225A64FB681B681B6846
:1056180003F04003402B07D0FB681B68FA68126848
:10562800126842F040021A60FB68DB68B3F5006F4D
:1056380078D1FB685B68002B02D07B8B012B66D18D
:10564800FB681B68FA68126B1288DA60FB681B6BD0
:105658009A1CFB681A63FB68DB8E9BB2013B9AB20B
:10566800FB68DA8653E0FB681B689B6803F002035B
:10567800022B1BD1FB68DB8E9BB2002B16D0FB6A7A
:10568800012B13D1FB681B68FA68126B1288DA6069
:10569800FB681B6B9A1CFB681A63FB68DB8E9BB26A
:1056A800013B9AB2FB68DA860023FB62FB681B6841
:1056B8009B6803F00103012B19D1FB68DB8F9BB2B8
:1056C800002B14D0FB689B6BFA681268D26892B200
:1056D8001A80FB689B6B9A1CFB689A63FB68DB8FDC
:1056E8009BB2013B9AB2FB68DA870123FB62FBF7A6
:1056F8007DFC02467B6AD21ABB6B9A4207D3BB6B0E
:10570800B3F1FF3F03D0032387F82B30A5E0FB68F4
:10571800DB8E9BB2002BA6D1FB68DB8F9BB2002BE4
:10572800A1D17CE0FB685B68002B02D07B8B012B4E
:105738006BD1FB681B680C33FA68126B12781A700D
:10574800FB681B6B5A1CFB681A63FB68DB8E9BB2F9
:10575800013B9AB2FB68DA8657E0FB681B689B68D6
:1057680003F00203022B1CD1FB68DB8E9BB2002BDB
:1057780017D0FB6A012B14D1FB681B680C33FA683D
:10578800126B12781A70FB681B6B5A1CFB681A6341
:10579800FB68DB8E9BB2013B9AB2FB68DA8600237A
:1057A800FB62FB681B689B6803F00103012B19D19E
:1057B800FB68DB8F9BB2002B14D0FB689B6BFA68ED
:1057C8001268D268D2B21A70FB689B6B5A1CFB68CD
:1057D8009A63FB68DB8F9BB2013B9AB2FB68DA875E
:1057E8000123FB62FBF702FC02467B6AD21ABB6B01
:1057F8009A4203D3BB6BB3F1FF3F02D1BB6B002BC3
:1058080003D1032387F82B3027E0FB68DB8E9BB29C
:10581800002BA2D1FB68DB8F9BB2002B9DD17A6A4B
:10582800B96BF86800F0DEFA0346002B06D00123B6
:1058380087F82B30FB6820225A650EE0FB689B68CE
:10584800002B0AD100237B61FB681B68DB687B6146
:10585800FB681B689B687B617B69FB68012283F896
:105868005120FB68002283F8502097F82B30184607
:105878003037BD4680BD000080B586B000AFF86007
:10588800B9607A607B800023FB75FB6893F8503021
:10589800012B01D10223E3E0FB68012283F85020A9
:1058A800FB6893F85130BB75FB685B683B61BB7D57
:1058B800012B0DD03B69B3F5827F06D1FB689B684D
:1058C800002B02D1BB7D042B02D00223FB75C2E062
:1058D800BB68002B05D07B68002B02D07B88002B8F
:1058E80002D10123FB75B6E0FB6893F85130DBB2B7
:1058F800042B03D0FB68052283F85120FB680022A3
:105908005A65FB68BA681A63FB687A889A86FB68E6
:105918007A88DA86FB687A689A63FB687A889A8755
:10592800FB687A88DA87FB6800221A64FB68002221
:105938005A64FB6893F85130DBB2042B08D1FB683A
:10594800DB6C494A1A64FB68DB6C484ADA6307E097
:10595800FB68DB6C464A1A64FB68DB6C454ADA6311
:10596800FB68DB6C444ADA64FB68DB6C00221A656E
:10597800FB68D86CFB681B680C331946FB689B6B8B
:105988001A46FB68DB8F9BB2FBF7C0FF0346002B70
:105998000CD0FB685B6D43F01002FB685A6501236D
:1059A800FB75FB68012283F8512054E0FB681B68F3
:1059B800FA681268526842F001025A60FB689B6CF0
:1059C80000221A64FB689B6C0022DA63FB689B6CFC
:1059D8000022DA64FB689B6C00221A65FB68986CED
:1059E800FB681B6B1946FB681B680C331A46FB687F
:1059F800DB8E9BB2FBF78AFF0346002B0CD0FB68BB
:105A08005B6D43F01002FB685A650123FB75FB6868
:105A1800012283F851201EE0FB681B681B6803F015
:105A28004003402B07D0FB681B68FA6812681268AD
:105A380042F040021A60FB681B68FA6812685268F4
:105A480042F020025A60FB681B68FA6812685268C4
:105A580042F002025A60FB68002283F85020FB7D66
:105A680018461837BD4680BDD55B0008C15A0008E6
:105A7800F15B0008455B00080D5C000880B483B04A
:105A880000AF786000BF0C37BD465DF8047B7047F7
:105A980080B483B000AF786000BF0C37BD465DF8B6
:105AA800047B704780B483B000AF786000BF0C37C8
:105AB800BD465DF8047B704780B584B000AF786060
:105AC8007B689B6BFB60FBF791FAB8607B681B688F
