:020000040800F2
:100000000000022055630008A5630008A5630008EE
:10001000A5630008A5630008A563000800000000B0
:1000200000000000000000000000000069620008FD
:10003000A5630008000000006D62000871620008FE
:10004000A5630008A5630008A5630008A563000870
:10005000A5630008A5630008A56300087562000891
:10006000A5630008A5630008A5630008A563000850
:10007000A5630008A5630008A5630008A563000840
:10008000A5630008A5630008A5630008A563000830
:10009000A5630008A5630008A5630008B162000815
:1000A000A5630008A5630008A5630008A563000810
:1000B000A5630008C5620008A5630008A5630008E1
:1000C000A5630008A5630008A5630008A5630008F0
:1000D000A5630008A5630008A5630008A5630008E0
:1000E000A5630008A5630008A5630008A5630008D0
:1000F000A5630008A5630008A5630008A5630008C0
:10010000A5630008A5630008A5630008A5630008AF
:10011000A5630008A5630008A5630008A56300089F
:10012000ED620008A5630008F9620008A5630008F5
:10013000A56300080000000000000000A56300089F
:10014000A5630008A5630008A5630008A56300086F
:10015000A5630008A5630008A5630008A56300085F
:10016000A5630008A5630008A5630008A56300084F
:10017000A5630008A5630008A5630008000000004F
:1001800000000000A563000800000000000000005F
:10019000A56300080000000000000000A56300083F
:1001A000000000000000000000000000A56300083F
:1001B000A5630008A5630008A5630008A5630008FF
:0401C000A56300082B
:1001C80010B5054C237833B9044B13B10448AFF389
:1001D80000800123237010BD78000020000000007B
:1001E8003C66000808B5034B1BB103490348AFF34D
:1001F800008008BD000000007C0000203C6600086C
:1002080081F0004102E000BF83F0004330B54FEABF
:1002180041044FEA430594EA050F08BF90EA020F2C
:100228001FBF54EA000C55EA020C7FEA645C7FEABF
:10023800655C00F0E2804FEA5454D4EB5555B8BFE2
:100248006D420CDD2C4480EA020281EA030382EA53
:10025800000083EA010180EA020281EA0303362DE5
:1002680088BF30BD11F0004F4FEA01314FF4801CB8
:100278004CEA113102D0404261EB410113F0004FCA
:100288004FEA03334CEA133302D0524263EB430381
:1002980094EA050F00F0A780A4F10104D5F1200E1F
:1002A8000DDB02FA0EFC22FA05F2801841F100017A
:1002B80003FA0EF2801843FA05F359410EE0A5F14E
:1002C80020050EF1200E012A03FA0EFC28BF4CF07F
:1002D800020C43FA05F3C01851EBE37101F0004535
:1002E80007D54FF0000EDCF1000C7EEB00006EEB42
:1002F8000101B1F5801F1BD3B1F5001F0CD34908CC
:100308005FEA30004FEA3C0C04F101044FEA445222
:1003180012F5800F80F09A80BCF1004F08BF5FEAA9
:10032800500C50F1000041EB045141EA050130BD89
:100338005FEA4C0C404141EB010111F4801FA4F12C
:100348000104E9D191F0000F04BF01460020B1FA81
:1003580081F308BF2033A3F10B03B3F120020CDAB9
:100368000C3208DD02F1140CC2F10C0201FA0CF097
:1003780021FA02F10CE002F11402D8BFC2F1200CFC
:1003880001FA02F120FA0CFCDCBF41EA0C019040B2
:10039800E41AA2BF01EB0451294330BD6FEA0404FB
:1003A8001F3C1CDA0C340EDC04F11404C4F12002E6
:1003B80020FA04F001FA02F340EA030021FA04F3F8
:1003C80045EA030130BDC4F10C04C4F1200220FA4F
:1003D80002F001FA04F340EA0300294630BD21FA8D
:1003E80004F0294630BD94F0000F83F4801306BF53
:1003F80081F480110134013D4EE77FEA645C18BF47
:100408007FEA655C29D094EA050F08BF90EA020FDD
:1004180005D054EA000C04BF1946104630BD91EAD5
:10042800030F1EBF0021002030BD5FEA545C05D1D8
:100438004000494128BF41F0004130BD14F5800417
:100448003CBF01F5801130BD01F0004545F0FE418B
:1004580041F470014FF0000030BD7FEA645C1ABFC0
:10046800194610467FEA655C1CBF0B46024650EAF7
:10047800013406BF52EA033591EA030F41F4002123
:1004880030BD00BF90F0000F04BF0021704730B5A9
:100498004FF4806404F132044FF000054FF000017E
:1004A80050E700BF90F0000F04BF0021704730B53F
:1004B8004FF4806404F1320410F0004548BF404214
:1004C8004FF000013EE700BF42004FEAE2014FEA69
:1004D80031014FEA02701FBF12F07F4393F07F4F44
:1004E80081F06051704792F0000F14BF93F07F4F76
:1004F800704730B54FF4607401F0004521F00041B9
:1005080020E700BF50EA010208BF704730B54FF03E
:1005180000050AE050EA010208BF704730B511F043
:10052800004502D5404261EB41014FF4806404F17B
:1005380032045FEA915C3FF4DCAE4FF003025FEAFD
:10054800DC0C18BF03325FEADC0C18BF033202EB85
:10055800DC02C2F1200300FA03FC20FA02F001FADF
:1005680003FE40EA0E0021FA02F11444C1E600BF7E
:1005780070B54FF0FF0C4CF4E06C1CEA11541DBF31
:100588001CEA135594EA0C0F95EA0C0F00F0DEF8FC
:100598002C4481EA030621EA4C5123EA4C5350EAE1
:1005A800013518BF52EA033541F4801143F4801332
:1005B80038D0A0FB02CE4FF00005E1FB02E506F0C3
:1005C8000042E0FB03E54FF00006E1FB03569CF018
:1005D800000F18BF4EF0010EA4F1FF04B6F5007F1E
:1005E80064F5407404D25FEA4E0E6D4146EB060690
:1005F80042EAC62141EA55514FEAC52040EA5E5019
:100608004FEACE2EB4F1FD0C88BFBCF5E06F1ED8C2
:10061800BEF1004F08BF5FEA500E50F1000041EBF9
:10062800045170BD06F0004646EA010140EA0200A6
:1006380081EA0301B4EB5C04C2BFD4EB0C0541EAC8
:10064800045170BD41F480114FF0000E013C00F3DD
:10065800AB8014F1360FDEBF002001F0004170BD01
:10066800C4F10004203C35DA0C341BDC04F114041A
:10067800C4F1200500FA05F320FA04F001FA05F2A6
:1006880040EA020001F0004221F0004110EBD37073
:1006980021FA04F642EB06015EEA430E08BF20EA9F
:1006A800D37070BDC4F10C04C4F1200500FA04F342
:1006B80020FA05F001FA04F240EA020001F00041D4
:1006C80010EBD37041F100015EEA430E08BF20EA47
:1006D800D37070BDC4F1200500FA05F24EEA020E8F
:1006E80020FA04F301FA05F243EA020321FA04F0BE
:1006F80001F0004121FA04F220EA020000EBD37075
:100708005EEA430E08BF20EAD37070BD94F0000F74
:100718000FD101F00046400041EB010111F4801FA8
:1007280008BF013CF7D041EA060195F0000F18BF59
:10073800704703F00046520043EB030313F4801F95
:1007480008BF013DF7D043EA0603704794EA0C0F4F
:100758000CEA135518BF95EA0C0F0CD050EA410665
:1007680018BF52EA4306D1D181EA030101F00041E2
:100778004FF0000070BD50EA410606BF104619460A
:1007880052EA430619D094EA0C0F02D150EA013616
:1007980013D195EA0C0F05D152EA03361CBF104657
:1007A80019460AD181EA030101F0004141F0FE41F6
:1007B80041F470014FF0000070BD41F0FE4141F47A
:1007C800780170BD70B54FF0FF0C4CF4E06C1CEA7A
:1007D80011541DBF1CEA135594EA0C0F95EA0C0F2F
:1007E80000F0A7F8A4EB050481EA030E52EA0335EA
:1007F8004FEA013100F088804FEA03334FF080550B
:1008080045EA131343EA12634FEA022245EA111537
:1008180045EA10654FEA00260EF000419D4208BFE8
:10082800964244F1FD0404F5407402D25B084FEA95
:100838003202B61A65EB03055B084FEA32024FF441
:1008480080104FF4002CB6EB020E75EB030E22BF9E
:10085800B61A754640EA0C005B084FEA3202B6EB5E
:10086800020E75EB030E22BFB61A754640EA5C000D
:100878005B084FEA3202B6EB020E75EB030E22BF9D
:10088800B61A754640EA9C005B084FEA3202B6EB9E
:10089800020E75EB030E22BFB61A754640EADC005D
:1008A80055EA060E18D04FEA051545EA16754FEABF
:1008B80006164FEAC30343EA52734FEAC2025FEADD
:1008C8001C1CC0D111F4801F0BD141EA00014FF06C
:1008D80000004FF0004CB6E711F4801F04BF01433D
:1008E8000020B4F1FD0C88BFBCF5E06F3FF6AFAE59
:1008F800B5EB030C04BFB6EB020C5FEA500C50F1E9
:10090800000041EB045170BD0EF0004E4EEA11316B
:1009180014EB5C04C2BFD4EB0C0541EA045170BD72
:1009280041F480114FF0000E013C90E645EA060EB6
:100938008DE60CEA135594EA0C0F08BF95EA0C0FE4
:100948003FF43BAF94EA0C0F0AD150EA01347FF42C
:1009580034AF95EA0C0F7FF425AF104619462CE703
:1009680095EA0C0F06D152EA03353FF4FDAE104666
:10097800194622E750EA410618BF52EA43067FF4B7
:10098800C5AE50EA41047FF40DAF52EA43057FF447
:10099800EBAE12E74FF0FF3C06E000BF4FF0010C52
:1009A80002E000BF4FF0010C4DF804CD4FEA410CB6
:1009B8007FEA6C5C4FEA430C18BF7FEA6C5C1BD083
:1009C80001B050EA410C0CBF52EA430C91EA030F04
:1009D80002BF90EA020F0020704710F1000F91EA61
:1009E800030F58BF994208BF90422CBFD8176FEA2F
:1009F800E37040F0010070474FEA410C7FEA6C5CFD
:100A080002D150EA013C07D14FEA430C7FEA6C5C03
:100A1800D6D152EA033CD3D05DF8040B704700BF2F
:100A28008446104662468C461946634600E000BF7D
:100A380001B5FFF7B7FF002848BF10F1000F01BD4F
:100A48004DF808EDFFF7F4FF0CBF012000205DF81A
:100A580008FB00BF4DF808EDFFF7EAFF34BF01209F
:100A680000205DF808FB00BF4DF808EDFFF7E0FF38
:100A780094BF012000205DF808FB00BF4DF808ED89
:100A8800FFF7CEFF94BF012000205DF808FB00BFF0
:100A98004DF808EDFFF7C4FF34BF012000205DF8D2
:100AA80008FB00BF4FEA410C7FEA6C5C02D150EAB8
:100AB800013C0AD14FEA430C7FEA6C5C02D152EA4E
:100AC800033C02D14FF0000070474FF0010070471F
:100AD8004FEA4102B2F1E04324BFB3F5001CDCF158
:100AE800FE5C0DD901F0004C4FEAC0024CEA507090
:100AF800B2F1004F40EB830008BF20F001007047BF
:100B080011F0804F21D113F13872BCBF01F00040C1
:100B1800704741F480114FEA5252C2F11802C2F1F3
:100B2800200C10FA0CF320FA02F018BF40F0010074
:100B38004FEAC1234FEAD32303FA0CFC40EA0C0026
:100B480023FA02F34FEA4303CCE77FEA625307D163
:100B580050EA01331EBF4FF0FE4040F4400070479A
:100B680001F0004040F0FE4040F40000704700BF34
:100B78007BB972B90029BEBF00204FF0004106E0E2
:100B880008BF00281CBF6FF000414FF0FF3000F095
:100B9800C5B9ADF1080C6DE904CE002909DB002BBD
:100BA8001ADB00F04DF8DDF804E0DDE9022304B0BB
:100BB8007047404261EB4101002B1BDB00F040F81D
:100BC800DDF804E0DDE9022304B0404261EB4101B5
:100BD800524263EB43037047524263EB430300F016
:100BE8002FF8DDF804E0DDE9022304B0404261EBB0
:100BF80041017047524263EB430300F021F8DDF8EE
:100C080004E0DDE9022304B0524263EB430370477A
:100C180053B94AB9002908BF00281CBF4FF0FF315B
:100C28004FF0FF3000F07AB9ADF1080C6DE904CE51
:100C380000F006F8DDF804E0DDE9022304B07047AF
:100C48002DE9F0478C460D460446089E002B51D1ED
:100C58008A4217466DD9B2FA82FEBEF1000F0BD058
:100C6800CEF1200C01FA0EF520FA0CFC02FA0EF770
:100C78004CEA050C00FA0EF44FEA174A250CBCFBA7
:100C8800FAF81FFA87F90AFB18CC45EA0C4508FB65
:100C980009F3AB420AD9ED1908F1FF3280F023813C
:100CA800AB4240F22081A8F102083D44ED1AA4B2FB
:100CB800B5FBFAF00AFB105544EA054400FB09F9B4
:100CC800A14509D9E41900F1FF3380F00A81A14553
:100CD80040F2078102383C44A4EB090440EA08408A
:100CE8000021002E61D024FA0EF4002334607360D2
:100CF800BDE8F0878B4207D9002E54D0002186E842
:100D080021000846BDE8F087B3FA83F1002940F0D6
:100D18008E80AB4202D3824200F2FA80841A65EBDD
:100D280003050120AC46002E3FD086E81010BDE830
:100D3800F08712B90127B7FBF2F7B7FA87FEBEF1C1
:100D4800000F34D1EB1B3A0C1FFA87FC0121B3FBCF
:100D5800F2F8250C02FB183345EA03450CFB08F3AF
:100D6800AB4207D9ED1908F1FF3002D2AB4200F2CD
:100D7800D1808046ED1AA3B2B5FBF2F002FB105504
:100D880043EA05440CFB00FCA44507D9E41900F12B
:100D9800FF3302D2A44500F2B8801846A4EB0C0435
:100DA80040EA08409DE731463046BDE8F087CEF17D
:100DB800200405FA0EF307FA0EF720FA04F83A0CA5
:100DC80025FA04F448EA0308B4FBF2F14FEA18459F
:100DD80002FB11441FFA87FC45EA044501FB0CF3AA
:100DE800AB4200FA0EF409D9ED1901F1FF3080F099
:100DF8008A80AB4240F2878002393D44EB1A1FFAE1
:100E080088F5B3FBF2F002FB103345EA034500FB1B
:100E18000CF3AB4207D9ED1900F1FF386FD2AB42A2
:100E28006DD902383D44EB1A40EA01418FE7C1F120
:100E3800200722FA07F88B4005FA01F448EA030371
:100E480020FA07FE4FEA134CFD404EEA040EB5FBAC
:100E5800FCF94FEA1E440CFB19551FFA83F844EAC3
:100E6800054509FB08F4AC4202FA01F200FA01FA5E
:100E780008D9ED1809F1FF3043D2AC4241D9A9F1A4
:100E880002091D442D1B1FFA8EFEB5FBFCF00CFB5E
:100E980010554EEA054400FB08F8A04507D9E418A8
:100EA80000F1FF3529D2A04527D902381C4440EA71
:100EB8000940A4EB0804A0FB02894C45C6464D46F0
:100EC80015D312D056B1BAEB0E0364EB050404FA3D
:100ED80007F7CB401F43CC40376074600021BDE862
:100EE800F0871846F8E69046E0E6C245EAD2B8EB45
:100EF800020E69EB03050138E4E72846D7E74046C8
:100F080091E78146BEE7014678E702383C4445E769
:100F1800084608E7A8F102083D442BE7704700BFE0
:100F280038B50E4A0E4B12781B6805464FF47A7096
:100F3800B0FBF2F0B3FBF0F000F08CFB08B90F2D1A
:100F480001D9012038BD0446024629464FF0FF303A
:100F580000F028FB034B20461D6038BD0000002030
:100F68000C0000200400002008B50B4B1A6842F45E
:100F780000721A601A6842F480621A601A6842F4B1
:100F880080721A60032000F0FBFA0020FFF7C8FF08
:100F980004F08CFF002008BD003C0240034A044BCB
:100FA80011681B780B441360704700BFC400002011
:100FB80000000020014B1868704700BFC4000020E3
:100FC80038B50446FFF7F6FF631C054602D0044B0C
:100FD8001B781C44FFF7EEFF401B8442FAD838BD4B
:100FE80000000020002800F0A680F8B5056C044633
:100FF8003DB1236CDB060CD50023012084F83C307E
:10100800F8BD04F073FF6564236C84F83C50DB067C
:10101800F2D4226C49492368494D22F4885222F0BF
:10102800020242F0020222644A6822F440324A6014
:101038004A68606802434A6059682069D4F808E041
:10104800E768A26A21F4807159605E6846EA002662
:101058005E605E6826F040765E60586840EA0E0082
:101068005860986820F4006098609968AA4241EA3C
:101078000701996048D09968E06A21F07061996029
:1010880099680A439A60996821F0405199609A6872
:1010980002439A609968257E94F8200021F00201A5
:1010A80099609A6842EA45029A605A68002834D1E1
:1010B80022F400625A60DA6AE56994F83070666969
:1010C80022F47002DA62D86A013D40EA0550D8621B
:1010D800986820F400709860996841EA47219960FF
:1010E800996821F4806199609A68002042EA862212
:1010F8009A606064236C23F0030343F001032364C4
:10110800002384F83C30F8BD9A6822F070629A6037
:101118009A6822F040529A60BCE742F40062616A21
:101128005A605A6822F460425A605A68013942EAA1
:1011380041325A60BFE70120704700BF00230140D9
:101148000100000F10B490F83C3083B00022012B4E
:10115800019250D002689368012180F83C10D907A9
:1011680014D4324B324C1B689168A4FB03439B0C8C
:1011780003EB430341F0010191600193019B2BB103
:10118800019B013B0193019B002BF9D19368DB077D
:101198002CD5036C23F4E06323F0010343F480733C
:1011A800036453685C0505D5036C23F4405343F48A
:1011B80080530364036C13F480531CBF436C23F007
:1011C800060343646FF0220100241A4B80F83C4068
:1011D80011605968C90613D117498A4213D001F51D
:1011E80080718A421ED015498A4215D0002003B06A
:1011F8005DF8044B7047022003B05DF8044B70475C
:101208000D4B9A42F2D1906810F04050EED193689D
:1012180043F080439360EAE75B6803F01F030F2BFA
:10122800F1D9E3E75B68DB06EDD0DFE70C000020CF
:1012380083DE1B43002301400020014000220140BF
:10124800F0B590F83C3083B00024012B019467D0AE
:101258000568AB680124DF0780F83C4014D43D4B97
:101268003D4E1C68AB68A6FB0464A40C43F0010364
:1012780004EB4404AB600194019B2BB1019C013C3D
:101288000194019C002CF9D1AB68DE0745D5046CAC
:1012980024F4E06424F0010444F4807404646B686A
:1012A8005C0505D5036C23F4405343F48053036471
:1012B800036C2A4C2A4F13F480531CBF436C23F051
:1012C800060343640646806B13464FF0000E254A1A
:1012D80086F83CE0C2636FF02202C46407642A60A7
:1012E8006C6844F080646C60AC6844F480740A46AE
:1012F800AC6005F14C0100F061FA1B4B5A6812F022
:101308001F0F32680FD119498A420FD001F5807139
:101318008A421AD016498A4211D0002003B0F0BD83
:10132800022003B0F0BD114B9A42F6D1906810F03C
:101338004050F2D1936843F080439360EEE75B68D6
:1013480003F01F030F2BF1D9E7E75B68DB06EDD04D
:10135800E3E700BF0C00002083DE1B439513000861
:1013680085130008AD130008002301400020014048
:1013780000220140704700BF704700BF08B5806B6E
:10138800FFF7FAFF08BD00BF704700BF806B08B5C4
:1013980040230364436C43F004034364FFF7F4FF02
:1013A80008BD00BF836B1A6C12F0500F10B51A6C91
:1013B80023D142F4007219681A648A6812F0405FF7
:1013C80017D11A7EAAB9CA6A12F4700F02D08A68B5
:1013D80050050ED44A6822F020024A601A6C22F4A2
:1013E80080721A641A6CD10403D41A6C42F0010298
:1013F8001A641846FFF7BEFF10BDD20604D49B6BD3
:10140800BDE81040DB6C18471846FFF7BDFF10BD5C
:10141800F0B590F83C3083B00022012B019257D0F0
:101428000D680123092D2E4680F83C3029D8046820
:101438008B68226905EB450E072707FA0EF722EAA3
:1014480007022261226903FA0EF3134323614B68F2
:10145800062B2BD803EB8303626B053B1F219940B6
:1014680022EA01026263626B06FA03F313436363C1
:101478003E4B9C423ED0002380F83C30184603B0D7
:10148800F0BD04688B68E768AEB206EB46021E3A08
:101498004FF0070E0EFA02FE27EA0E07E760E7682C
:1014A80093403B43E3604B68062BD3D90C2B12D8EF
:1014B80003EB8303A3F123011F22236B8A4023EA52
:1014C80002032363236B06FA01F119432163CFE773
:1014D800022003B0F0BD03EB8302413AE36A1F2107
:1014E800914023EA0103E362E36A06FA02F1194331
:1014F800E162BDE7122D2BD01D4B9D420BD0112D63
:10150800B9D11C4B5A6822F480025A605A6842F4D6
:1015180000025A60AFE7174A174B5168174C21F47D
:1015280080015160516841F4000151601B68A4FBBF
:1015380003239B0C03EB83035B000193019B002BAC
:1015480099D0019B013B0193019B002BF9D192E7B4
:10155800D3F8042322F40002C3F80423D3F80423A5
:1015680042F48002C3F8042385E700BF002001404D
:1015780012000010002301400C00002083DE1B43F2
:10158800074AD3684FF6FF010B40000243F0BF63E0
:1015980000F4E06043F400330343D360704700BFB6
:1015A80000ED00E0184B70B4DC68C4F30224C4F109
:1015B8000706042E04F1040328BF0426062B17D9B6
:1015C800033C0125A540013D2A400123B340013BCE
:1015D8001940A140002841EA02010CDB00F16040FB
:1015E80000F561400901C9B280F8001370BC70476A
:1015F80000221446E9E7054B00F00F0009010344F7
:10160800C9B2197670BC704700ED00E0FCEC00E050
:10161800002807DB00F01F0101234009024A8B4024
:1016280042F82030704700BF00E100E000280DDBE1
:10163800430920330122064900F01F0002FA00F096
:1016480041F82300BFF34F8FBFF36F8F704700BF80
:1016580000E100E00138B0F1807F0ED2084B10B4F1
:10166800084C5860F02084F8230000220721104617
:101678009A6019605DF8044B70470120704700BFFD
:1016880010E000E000ED00E0F8B50446FFF792FC3A
:10169800002C73D00222236884F835201A680021B0
:1016A80022F0010284F8341005461A6005E0FFF7BD
:1016B80081FC401B05283BD823681A68D107F6D45B
:1016C800A7686268E66825696169A0693A43324398
:1016D8002A430A43E169256A1F68354E02430A43D3
:1016E800616A2A433E40042942EA060227D01A606A
:1016F8005A6922F007021143DAB22E4D5961103AA5
:10170800A5FB021212092C4823F47F73815CE16562
:1017180023F00303032A88BF04333F228A400125AC
:101728000021A36508469A60616584F83550F8BDC4
:10173800032320226265184684F83530F8BDE56A2F
:10174800216BA66A29430A431A605A6946F00401C4
:1017580022F007021143002DCED088B1B0F5005F0A
:1017680018D0022E03D9032EC6D1EA01C4D501230D
:1017780040226265184684F83530F8BD0120F8BD6E
:10178800012E03D0F1D3022EB6D1EEE7B5F1C07F1A
:10179800B2D1ECE7032EAFD801A252F826F000BF71
:1017A80077170008731700087717000895170008BF
:1017B8003F8010F0ABAAAAAA54660008F0B490F8CB
:1017C8003440012C0DD090F83540866D0125AC428F
:1017D80080F8345008D0002380F834300220F0BC60
:1017E80070470220F0BC704704680227002580F883
:1017F800357045652568876825F48025402F256064
:1018080063600ABFA260A160E160C16D18BFE260B9
:101818003F238B40026CB360236843F016032360B8
:10182800636943F0800363611AB1236843F00803D6
:101838002360236843F0010323600020CFE700BF43
:10184800F0B583B00023876D0193C36D3D6862498D
:1018580008229A40154204460E6803D001680868B9
:10186800400776D401229A40154203D0216849697D
:10187800080668D404229A40154203D021680968F2
:1018880089075AD410229A40154203D02168086863
:1018980000073FD420229A40154203D021680868E7
:1018A800C00625D4636D0BB3636DDA071AD505231B
:1018B800216884F835300B68484A23F00103A2FBFD
:1018C80006020B60920A02E00B68DB0704D5019B55
:1018D80001339A420193F7D20022012384F834207D
:1018E80084F83530E36C0BB12046984703B0F0BD5F
:1018F800BA6094F83520052A3BD00B6813F4802F82
:101908000B6854D019035FD5E36B002BCAD020466F
:101918009847C7E7BA600A6812F4802F0A6822D18C
:10192800D20503D40A6822F008020A60226C002A51
:10193800B0D020469047E36DACE7BA60626D42F0E4
:10194800040262659EE7BA60626D42F00202626557
:1019580090E7086820F004000860BA60626D42F001
:10196800010262657EE71103E0D5A26C002AE0D18E
:1019780090E70A68206C22F016020A604A6922F091
:1019880080024A6120B30A6822F008020A603F22F6
:10199800216D02FA03F300200122BB6084F83400B1
:1019A80084F835200029A1D0204688479EE713F403
:1019B8008073A9D10A68012022F010020A6084F815
:1019C800343084F835009FE7636C002B9FD169E7BA
:1019D800A26C002AD7D1DAE70C000020B5814E1B93
:1019E8002DE9F04FD1F800C0DFF8FC81DFF8FCE109
:1019F80083B0002503E00135102D00F0938001230A
:101A0800AB4003EA0C029342F5D14E6826F0100A67
:101A1800BAF1020F00F089804FEA45090324D0F893
:101A280000B004FA09F4E44306F003070BEA040BD8
:101A380007FA09F70AF1FF3A47EA0B07BAF1010F6B
:101A4800076040F29880C7688B683C4003FA09F346
:101A58002343C360F300CED54FF00009CDF80490BE
:101A6800D8F8443043F48043C8F84430D8F84440A8
:101A780025F0030303F1804304F4804403F59C3309
:101A8800019405F00304019FD3F808A0A4000F27D0
:101A9800A7402AEA070A4E4FB8421AD007F58067CE
:101AA800B8427BD04B4FB8427DD04B4FB8427FD025
:101AB8004A4FB84200F08180494FB84200F0828016
:101AC800484FB8420CBF4FF006094FF0070909FA12
:101AD80004F94AEA09079F60DEF80030D443F703A7
:101AE80054BF23401343CEF80030DEF80430B70368
:101AF80054BF23401343CEF80430DEF80830F70211
:101B080054BF23401343CEF80830DEF80C30B60239
:101B180005F1010554BF23401343102DCEF80C30B6
:101B28007FF46DAF03B0BDE8F08F4FEAD50900EB45
:101B3800890905F00707D9F82040BF004FF00F0BBF
:101B48000BFA07FB24EA0B0A0C69BC4044EA0A04B6
:101B5800C9F820404FEA45090324D0F800A004FA48
:101B680009F4E44306F0030704EA0A0A07FA09F746
:101B780047EA0A070760876807EA040ACF6807FA8E
:101B880009F747EA0A078760D0F804A0C6F30017E8
:101B98002AEA0303AF401F43476054E74FF00109A7
:101BA80009FA04F995E74FF0020909FA04F990E7F0
:101BB8004FF0030909FA04F98BE74FF0040909FA11
:101BC80004F986E74FF0050909FA04F981E700BF2F
:101BD8000000024000080240000C024000100240D1
:101BE800001402400018024000380240003C014046
:101BF8000369194214BF01200020704702B9090483
:101C080081617047704700BF044A5169014200D1A1
:101C1800704708B55061FFF7F5FF08BD003C01406B
:101C28002DE9F843804617469946C1F307468DB219
:101C3800D8F80040012E26D0A06935EA000314BF69
:101C48000120002038B36069420526D47B1CF1D0FE
:101C5800FFF7B0F9A0EB0900874201D3002FE7D1C5
:101C680000222023C8F8302088F83D3088F83E202C
:101C7800D8F8403088F83C2043F02003C8F84030BA
:101C88000120BDE8F883626935EA020314BF012028
:101C980000200028D7D1BDE8F883236800226FF41C
:101CA800806043F40073202123606061C8F830200D
:101CB80088F83D1088F83E20D8F8403088F83C2055
:101CC80043F00403C8F840300120BDE8F88300BFA2
:101CD80070B505460C46164608E05169C9061BD47E
:101CE800FFF768F9801BA04207D834B12A68536906
:101CF80013F04003F1D0002070BD002220232A6396
:101D080085F83D3085F83E202B6C85F83C2043F063
:101D180020032B64012070BD6FF01000202150615A
:101D28002B6385F83D1085F83E302A6C85F83C30E9
:101D38002A64012070BD00BF2DE9F0418046174696
:101D48001D46C1F307468CB2D8F8001009E088692F
:101D580034EA00030CBF01200020B8420BD16B1CF1
:101D68000CD1012EF3D14B6934EA03030CBF0120D7
:101D78000020B842F3D00020BDE8F081FFF71AF93F
:101D8800069BC01A854201D3002DDDD100222023F5
:101D9800C8F8302088F83D3088F83E20D8F8403020
:101DA80088F83C2043F02003C8F840300120BDE803
:101DB800F08100BF002800F0A980F8B590F83D3008
:101DC800044603F0FF02002B00F08B8022682423D6
:101DD80084F83D30136823F00103136000F0ACFA77
:101DE80061684B4B99424BD84A4B984277D9226845
:101DF800494B5568A3FB00639B0C25F03F051D4329
:101E08005560156A013325F03F052B431362D569E8
:101E180049000138B0FBF1F00130C0F30B0025F4A4
:101E28004F45042838BF042025F0FF052843D0611A
:101E38001568E069266A2169E768636925F0C005C5
:101E48003043284310609068A56920F4034020F0CF
:101E5800FF00394301439160D1682B4321F0FF0112
:101E68000B43D3601168002341F001012025116064
:101E78001846236484F83D50236384F83E30F8BD47
:101E8800264B98422BD92268234B5768DFF890E0FD
:101E9800A668A3FB00539D0C27F03F072F434FF480
:101EA8009673576003FB05F3AEFB0353156A9B0952
:101EB80025F03F0501332B431362D56925F44F45BF
:101EC80025F0FF0596B9431E01EB4101B3FBF1F381
:101ED8000133C3F30B03BBB143F40040A6E7012071
:101EE800F8BD80F83C2004F095F86FE701EB81031A
:101EF80003EB8301431EB3FBF1F30133C3F30B037D
:101F080013B143F4404091E701208FE70120704767
:101F1800A08601007F841E0083DE1B43FF083D006E
:101F2800D34D62102DE9F041044688B098460D461D
:101F38001746FFF73FF894F83D30202B04D00225D0
:101F4800284608B0BDE8F081064600901923012212
:101F5800A0492046FFF7F0FE0028F0D194F83C3065
:101F6800012BECD023681A680121D00784F83C10B3
:101F780002D41A680A431A601A68974922F4006260
:101F88001A60222284F83D20102284F83E20002284
:101F98002264A4F82A80608DE162E16A1A686762A7
:101FA80042F48062082920851A603AD0012938D085
:101FB80011F5803F35D0226B112A32D000960E9B46
:101FC80000224FF001112046FFF7B6FE38BB236907
:101FD800B3F5804F2AD145F001032268DBB21361C3
:101FE80033460E9A7D492046FFF71AFE0546B0B9DA
:101FF800238D002B4ED1236803955A6903929A6961
:102008000392039A1A6842F400721A60002320228D
:1020180084F83D2084F83C3084F83E3090E7012570
:102028008EE71A6842F480721A60C7E7EF112368D6
:102038006B4907F0060747F0F0021A61204633465D
:102048000E9AFFF7EDFD0028E9D123680E9A63493F
:10205800EDB21D6120463346FFF7E2FD0246002837
:10206800DDD1236807905969079199690791079904
:10207800196841F48071196020460E9B00964FF054
:102088000111FFF759FE0028C9D1236847F0F1076D
:102098001F61A5E72268012B116800F08C80022BD4
:1020A80000F0A28041F480611160069551690691A3
:1020B80092690692069A4B4F032B4FD8012B6DD08D
:1020C800022B00960E9B4FF00002394620461CD08A
:1020D800FFF732FE0028A2D12368626A196821F44A
:1020E800806119601B691370638D626A218D009687
:1020F800013B9BB202F1010E013963850E9B2185DC
:102108000246C4F824E039462046FFF715FE0028A9
:1021180085D12368616A1A6842F400721A601B69E3
:102128000B70638D606A218D2268013B9BB26385C9
:10213800126900F1010E4B1EC4F824E02385427099
:10214800238D628D616A013B013A9BB292B20131E3
:10215800238562856162002BAED157E732460E991E
:102168002046FFF7B5FD00287FF459AF2268636A5F
:1021780012691A70628D2068238D616A013A92B2E1
:1021880062854269013B9BB201F1010E520723852A
:10219800C4F824E0DFD503694B70D1E732460E99C5
:1021A8002046FFF795FD00287FF439AF2268636A5F
:1021B80012691A70C4E721F48061116004955169AD
:1021C8000491916904910499116841F400711160B6
:1021D80071E700BF020010000000FFFF02000100CD
:1021E800080001000400010021F4806111601168F9
:1021F80041F4006111600595516905919269059254
:10220800059A58E760B1484A136803F00F038B42F8
:1022180008D2CBB21370136803F00F03994201D0B0
:102228000120704703682DE9F0419D0714D55C072C
:1022380004D53E4CA26842F4E052A2601A0704D5C5
:102248003A4CA26842F46042A260384C8568A268A1
:1022580022F0F0022A43A260DF0704460D4622D589
:102268004268012A5BD0931E012B304B1B6850D962
:10227800990725D52D4EB36823F003031343B360A4
:10228800FEF798FE41F28837804605E0FEF792FE99
:10229800A0EB0800B8423FD8B368626803F00C03AB
:1022A800B3EB820FF2D1204A136803F00F039D426B
:1022B80009D2EBB21370136803F00F039D4202D0EA
:1022C8000120BDE8F08123685A0706D51749E06860
:1022D8008A6822F4E05202438A601B0707D5134A32
:1022E8002169936823F4604343EAC103936000F0D3
:1022F8004FFA0E4B0E499B680E4AC3F30313CB5C8F
:1023080020FA03F300201360FEF70AFE0020BDE860
:10231800F0819801AED4D3E70320BDE8F081034BE8
:102328001B689E03A6D4CBE7003C0240003802405D
:10233800706600080C000020044B054A9B6805499C
:10234800C3F382230868D35CD84070470038024042
:10235800806600080C0000202DE9F043036813F0A4
:10236800010683B004460BD0A749866BD1F88C20B0
:1023780022F0C0623243B6FA86F6C1F88C2076099C
:102388009A070BD5A049E06BD1F88C2022F0C052F7
:1023980002430028C1F88C2008BF012613F0040569
:1023A80012D09949256BD1F88C20B5F5801F22F4FD
:1023B800401242EA050218BFB5FA85F5C1F88C202B
:1023C80012BF6D09002501261F070FD58E48616BC6
:1023D800D0F88C2022F440020A43B1F5800FC0F8EF
:1023E8008C2000F00781002908BF0125980600F11C
:1023F800B980DF0604D5854B94F858201A60236805
:10240800180608D58049E06CD1F8942022F44002DF
:102418000243C1F89420590608D57B49A06CD1F82D
:10242800942022F080620243C1F89420DA050CD58A
:102438007549606DD1F8942022F000620243B0F132
:10244800006FC1F8942008BF01259F0508D56E4983
:10245800606CD1F8942022F080520243C1F8942095
:1024680058050BD4012E15D0B3F5006F12D0012DED
:1024780000F0C280002003B0BDE8F0836248216DFF
:10248800D0F8942022F000520A43B1F1005FC0F85E
:102498009420E7D15E4B5C4E00221A60FEF78AFD5D
:1024A800074604E0FEF786FDC01B022856D83368AD
:1024B8001901F7D42368DA0740F1F280A26B002AE9
:1024C80040F0EE80504E6068D6F88420D6F88470CC
:1024D800A16802F4403207F070673A43024360692A
:1024E80042EA811242EA0072C6F884205E0704D5E7
:1024F800226BB2F5801F00F0F180180704D5626BDB
:10250800B2F5800F00F0EA80590504D5226DB2F1CA
:10251800005F00F00C811A0511D52369A668606870
:10252800E2686169384F1B0643EA86130343520881
:1025380043EA0173013A43EA0243C7F88430344B53
:10254800314E01221A60FEF735FD074633681B013C
:102558008DD4FEF72FFDC01B0228F7D9032003B046
:10256800BDE8F083284B2B4F002201921A6C42F0F1
:1025780080521A641B6C03F080530193019B3B68E3
:1025880043F480733B60FEF715FD804605E0FEF7D7
:1025980011FDA0EB08000228E0D83B68D905F6D564
:1025A8001949236C0A6F12F4407203F4407010D07A
:1025B80082420ED00B6F184A23F440730127002083
:1025C800176010600B670B6FDA0775D4236C03F480
:1025D8004070B0F5407F00F09F800B498A6822F474
:1025E800F8128A60084A116FC3F30B030B43136791
:1025F8002368FEE60126F9E6084B034D00221A601F
:10260800FEF7D8FC064610E000380240E0114742C9
:102618006800474200700040400E47427000474241
:10262800FEF7C8FC801B022898D82B689F00F7D4B7
:10263800226850073CD411071AD5636BC3B95249B5
:10264800A669D1F88830E569606A03F440333343FA
:1026580043EA851343EA0063C1F88830D1F88C3027
:10266800E06A23F4F853013843EA0023C1F88C30B8
:10267800D20503D5636DB3F1006F72D0434B424C62
:1026880001221A60FEF796FC054605E0FEF792FC6B
:10269800401B02283FF662AF23689B00F6D5E9E6A7
:1026A8009F077FF523AFE26B002A7FF41FAF09E78E
:1026B800236B002BC3D0BEE70F46FEF77BFC41F22D
:1026C8008838814606E0FEF775FCA0EB0900404516
:1026D8003FF644AF3B6F9B07F5D577E72A4E606816
:1026E800D6F88420D6F88470A16802F4403207F046
:1026F800E0473A430243206942EA811242EA006213
:10270800C6F88420D6F88C10A26A21F01F01013A7D
:102718000A43C6F88C20F7E61B48826823F070410C
:1027280022F4F81221F440710A4382605AE7164FE6
:102738006668D7F88400D7F88420E168C0F3014EB2
:1027480002F0E042A068324342EA80120EF101062C
:10275800490842EA4662013942EA0142C7F8842040
:10276800D9E60949A569D1F88830226AE06903F0F9
:1027780070632B43520843EA8013013A43EA024349
:10278800C1F888307AE700BF00380240700047423D
:10279800284908B58B6803F00C03082B07D00C2BCD
:1027A8001DD0254A2548042B18BF104608BD4A6885
:1027B8004B6813F4800302F03F0230D149681E4889
:1027C800C1F38811A1FB0001FEF722FA194B5B68DF
:1027D800C3F3014301335B00B0FBF3F008BD4A6863
:1027E8004B6813F4800302F03F020ED14968124887
:1027F800C1F38811A1FB0001FEF70AFA0D4B5B68D3
:10280800C3F30273B0FBF3F008BD4B680B48C3F386
:102818008813A3FB00010023FEF7FAF9EEE74B68E3
:102828000648C3F38813A3FB00010023FEF7F0F961
:10283800CCE700BF003802400024F40040787D0156
:102848002DE9F0410368DA0782B0044636D5AA4973
:102858008A6802F00C02042A00F0D6808A6802F026
:102868000C02082A00F0CC80A3498A6802F00C0206
:102878000C2A00F058816368B3F5803F00F00581A9
:10288800B3F5A02F00F06B819B4D2A6822F48032AB
:102898002A602A6822F480222A60002B40F0FA80FD
:1028A800FEF788FB064605E0FEF784FB801B6428DC
:1028B80000F20E812B689903F6D423689A072FD566
:1028C8008D4A916811F00C0F00F0AC80916801F00E
:1028D8000C01082900F0A28087498A6802F00C02DE
:1028E8000C2A00F07781E368002B00F02181834BEC
:1028F800814D01221A60FEF75DFB064605E0FEF7F2
:1029080059FB801B022800F2E3802B689807F6D554
:102918002B68226923F0F80343EAC2032B6023687B
:102928001A0715D56369002B00F08780744B724D28
:1029380001221A60FEF73EFB064605E0FEF73AFB69
:10294800801B022800F2C4806B6F9B07F6D52368B2
:10295800580720D4A369D3B1674DAA6802F00C02C6
:10296800082A66D0022B674B4FF000021A6000F06D
:102978000081FEF71FFB2C46054605E0FEF71AFB13
:10298800401B022800F2A48023689B01F6D4002093
:1029980002B0BDE8F081584A136C13F0805368D038
:1029A8000026594D2B68D90540F18280A368012B78
:1029B80000F0CF80052B00F08F804F4D2A6F22F05A
:1029C80001022A672A6F22F004022A67002B40F0CE
:1029D8008C80FEF7EFFA41F28837804605E0FEF773
:1029E800E9FAA0EB0800B84272D82B6F9807F6D422
:1029F800002EAFD0404A136C23F080531364A9E72C
:102A08004A6857027FF530AF3B4A126895037FF555
:102A180055AF6268002A7FF451AF0AE05268570246
:102A28003FF55AAF344A1268950716D5E268012A6D
:102A380013D0012002B0BDE8F081314A2E4D136059
:102A4800FEF7B8FA064604E0FEF7B4FA801B02283F
:102A58003ED86B6F9F07F7D479E7274920690A6842
:102A680022F0F80242EAC0020A601A077FF570AF46
:102A780058E70193136C43F080531364136C03F00D
:102A880080530193019B01268BE71B4A136843F48B
:102A980080331360FEF78EFA174D064604E0FEF702
:102AA80089FA801B642813D82B689803F7D504E7A4
:102AB8002B6843F480732B60FEF77CFA07462B687B
:102AC800DA053FF573AFFEF775FAC01B0228F6D991
:102AD800032002B0BDE8F081074B1A6F42F00402F0
:102AE8001A671A6F42F001021A67FEF763FA024D7D
:102AF800804641F288370FE0003802400000474224
:102B0800800E47426000474200700040FEF752FACC
:102B1800A0EB0800B842DBD82B6F9B07F6D5002E38
:102B28003FF418AF66E74A6856027FF5A4AE6BE734
:102B38002B4A2C4D1360FEF73DFA064604E0FEF7DB
:102B480039FA801B0228C3D82B689907F7D4236861
:102B5800E6E6244A136F43F001031367C5E7214BE8
:102B68001A6842F480221A601A6842F480321A60A5
:102B780090E7FEF71FFA064604E0FEF71BFA801BF3
:102B88000228A5D82B689901F7D4E369D4F820E086
:102B9800676AE66AA26A206B1349124C43EA0E037D
:102BA80043EA871343EA0663520843EA0073013A8B
:102BB80043EA024301226B600A60FEF7FBF905460F
:102BC80004E0FEF7F7F9401B022881D823689A0130
:102BD800F7D5DCE64A6856023FF585AE22E700BF26
:102BE8000000474200380240600047420368F0B5E1
:102BF8009D6A1C691B684D6003F07F3323F0FE4318
:102C0800180CC3F30627C4F30E04DBB200F0400E21
:102C180000F03F068C6081F803E00E704F708B70F7
:102C2800BAB93D091C09360906EB860605EB850588
:102C380004EB840400F00F0007F00F0703F00F0304
:102C480000EB460007EB450503EB440408704D70A4
:102C58008C700020F0BD00BF026838B5D36823F03F
:102C6800A003D3600446FEF7A5F9054605E0FEF784
:102C7800A1F9401BB0F57A7F05D82368DB689B066D
:102C8800F5D5002038BD032038BD00BF38B503682E
:102C9800DA68520601D5002038BD4FF0FF32DA60FD
:102CA8000446FEF787F905462368DB685B06F2D41D
:102CB800FEF780F9401BB0F57A7FF5D9032038BDBF
:102CC800F8B5002850D0437F044603F0FF02002BDC
:102CD8003FD023680220CA215322607759622046D8
:102CE8005A62FFF7D3FF054600282AD12368626895
:102CF800996827696669E06821F4E00121F04001DC
:102D0800996099683A4332430A439A6018611A698C
:102D1800A16842EA01421A61DA6822F08002DA60A8
:102D28009A68920619D5196CA66921F4802119644C
:102D38001A6CFF20324301211A64586261772846D1
:102D4800F8BD2268FF2104230125516228466377D4
:102D5800F8BD027703F098F9BBE72046FFF77CFF40
:102D68000028EED12368DEE701252846F8BD00BF1C
:102D7800F8B5037F012B7BD00E4602230121017792
:102D8800054643770168002A39D08C687078327814
:102D9800B37814F0400414BFF478F4704FEA0020BC
:102DA80040EA024018BF240418430443CA225323AC
:102DB8004A6228464B62FFF769FF074600285AD146
:102DC8002B68F26804F07F3020F0FE403469186008
:102DD800996821F480219960996822430A439A608E
:102DE800DA6822F08002DA609A6892064DD5FF20F0
:102DF80001210022586269772A773846F8BD8F6822
:102E0800307817F0400716BFF778F7703F040928A5
:102E18004FF0000407D90A38C0B2092804F10104A8
:102E2800F9D82401E4B273782043092B4FEA00440F
:102E380039D900200A3BDBB2092B00F10100F9D88F
:102E480000015FFA80FEB07843EA0E0309284FEAD2
:102E580003232BD90A38C0B2092802F10102F9D894
:102E68001201D2B23C432343104343EA00049DE7D6
:102E780002273846F8BD2968FF20042200230127CD
:102E880048626A772B773846F8BD2846FFF7E4FE94
:102E980008B92B68ABE72A68FF21042351622F7712
:102EA8006B770127A9E74FF0000ECCE70022D9E79E
:102EB800037F012B70B563D00446022301202077DD
:102EC80063774AB34878CA788B780D78000240EA6D
:102ED8000240184340EA45352368CA215322596203
:102EE80020465A62FFF7D2FE064600284BD12368D7
:102EF80025F07F4525F0C0055D60DA6822F0800284
:102F0800DA609A6892064ED5FF20012100225862A5
:102F180061772277304670BD4E78F0063DD4CB7885
:102F2800092B4FF0000007D90A3BDBB2092B00F14F
:102F38000100F9D80001C0B20343092E4FEA034348
:102F48003FD90020A6F10A05EEB2092E00F10100D2
:102F5800F8D80501EDB28878354309284FEA0525E8
:102F680031D90A38C0B2092802F10102F9D8120190
:102F7800D2B2097843EA41331D4310430543ABE716
:102F88000226304670BD2168FF2004220023012656
:102F9800486262772377304670BD26F010050A35FF
:102FA800EEB24E70BBE72046FFF756FE08B923681D
:102FB800AAE72268FF210423516226776377012656
:102FC800A8E70025C7E70022D3E700BF2DE9F043B3
:102FD80089B005468846FDF7EDFF0023064608211F
:102FE80028680093019301F07FFB044618B120463E
:102FF80009B0BDE8F083296D2868090401F040FC98
:1030080004460028F3D108204FF0FF3102220123A3
:10301800029103900DEB0001302728680694059271
:103028000793049701F04CFB286801F04BFC044619
:103038000028DCD1814640F22A4704E0FDF7BAFFB8
:10304800801B013015D02868436B3B42436B0BD182
:103058009B02F3D501F018FB08AB03EB890309F1D8
:10306800010943F8200CE9E7190705D5082484630A
:10307800BDE74FF00044BAE7436B9A0702D5022434
:103088008463B4E7436B9B0602D520248463AEE7D0
:103098009DE80C0040F2FF5112BA1BBA8163C8F8D0
:1030A8000420C8F80030A2E72DE9F0470D4686B0A5
:1030B800044690461F46FDF77DFF002D36D0064694
:1030C80094F83400C0B2012807D0A36B43F0005332
:1030D800A363012006B0BDE8F087E26D08EB0703A3
:1030E80000219342A1631CD8636C20680322012B42
:1030F80084F83420C1624FF4007118BF4FEA4828A1
:1031080001F0F2FAD0B1236840F2FF529A63A26B41
:1031180001231043A063184684F8343006B0BDE894
:10312800F087A36B43F00073A363D3E7A36B01207D
:1031380043F00063A36306B0BDE8F0874FF0FF31AA
:103148007A02902304904FF0010A00914FF002098F
:103158006946206801920293CDF80C90CDF814A02E
:1031680001F0AEFA574534D9C4F83090414620688A
:1031780001F0D8FA0028C6D1A8462268536B13F488
:10318800957F536B2CD11B040ED5A8F1040508F1CB
:103198001C0900E02268104601F076FA45F8040F91
:1031A8004D45F7D108F120080E9B2BB1FDF702FF22
:1031B8000E9B801B8342E0D8236840F2FF529A633B
:1031C800A36B012243F00043A363032084F8342057
:1031D80080E7C4F830A04146206801F093FAC9E7B7
:1031E800DD050AD5012F08D9636C032B05D01046DD
:1031F80001F0C6FA002886D12268536B180720D43C
:10320800536B990729D4536B9B060DD53EE001F00B
:103218003BFA0E9B48F8040B5BB3FDF7CBFE0E9B05
:10322800801B834225D92268536B13F40013104680
:10323800EDD140F2FF5501219563184684F834100A
:1032480048E740F2FF539363A36B012243F008035E
:10325800A363104684F834203CE740F2FF5393639D
:10326800A36B012243F00203A363104684F83420C1
:1032780030E7236840F2FF529A63A36B012243F0C0
:103288000043A363104684F8342023E740F2FF5339
:103298009363A36B012243F02003A363104684F8D1
:1032A800342017E72DE9F0410E4686B0044615464E
:1032B8009846FDF77FFE002E43D094F83430DBB2F9
:1032C800012B08D0A36B43F00053A36301231846D6
:1032D80006B0BDE8F081E16D05EB080207468A42B9
:1032E8004FF00000A06327D82368626C032184F89C
:1032F8003410012AD8624FF40071184618BF6D02C5
:1033080001F0F2F948B9B8F1010F58D9202329463C
:103318002363206801F024FAE0B1236840F2FF52E9
:103328009A63A36B012218431346A063184684F8D6
:10333800342006B0BDE8F081A26B42F00072A263AF
:10334800C5E7A36B43F00063A3630123184606B0E7
:10335800BDE8F0814FF0FF314FEA482590220390F5
:103368000490012300912068019569460292059313
:1033780001F0A6F92068436B13F48D7F436B25D1C8
:103388005D0409D53546203600E020682946043515
:1033980001F07EF9B542F8D10C9B2BB1FDF70AFE7E
:1033A8000C9BC01B8342E5D8236840F2FF529A6306
:1033B800A36BA363012384F83430032387E7102326
:1033C80029462363206801F0BDF9A5E7D9050AD588
:1033D800B8F1010F07D9636C032B04D001F0D0F9C1
:1033E80000289AD12068436B1A0712D4436B9B07B5
:1033F8001BD4436B13F0100323D040F2FF538363B5
:10340800A36B012243F01003A363134684F834200E
:103418005DE740F2FF538363A36B012243F0080387
:10342800A363134684F8342051E740F2FF538363C3
:10343800A36B012243F00203A363134684F83420EC
:1034480045E740F2FF510122816384F834203EE7CA
:10345800436EF0B5C3F3072204469F0FC3F3836698
:10346800C3F30165C3F30740DBB20F704E708D7074
:10347800C8700A714B71A36E1A0E1201CA80C888EF
:10348800C3F3035580B2C3F307222843C3F30345AC
:10349800C8804FEAD21E0D720020C2F38017C2F313
:1034A8004016C2F3001581F809E08F72CE720D73D1
:1034B8004873606C002840F08380920202F44062F6
:1034C8000A6108699A0002F47F720243E36E0A6196
:1034D8000869DA0B40EA9370086102F00602C3F348
:1034E8004255C3F38240C3F3C267C3F302660F7544
:1034F8004E758D75C8750A760A7EC3F3C0300243CF
:103508000A760A69087E01320230824062650D7AC5
:103518000120A840450A02FB05F24FF40075E26558
:10352800A065C3F307222566500000F07E00C2F3B1
:1035380080124A7688768A7EC3F3C010024303F06D
:103548007F038A76CB76236F9A0DDD0FC3F3417420
:10355800C3F3826002F00C020D774C778877CA7744
:10356800CA7FC3F381500243C3F34056C3F30045F7
:10357800C3F3C0340020CA77C3F3803E81F82060CB
:10358800C3F3403781F82100C3F3003681F8225095
:10359800012281F82340C3F38125C3F30124C3F337
:1035A800460381F824E081F8257081F8266081F8C7
:1035B800275081F8284081F8293081F82A20F0BD69
:1035C80001280CD0236840F2FF529A63A36B0122B2
:1035D80043F08053A363104684F83420F0BD1B04E5
:1035E80003F47C130B61E36E0A69180E42EA0022A9
:1035F8000A610869C3F3074202430A610A69920231
:1036080002F580624FF400706265E265A065C3F35D
:103618000722206688E700BFF0B599B00025762319
:103628000A950B950C930AAB044693E807002768A4
:1036380007958DE8070008950995724E07AB0ECBE4
:10364800384601F005F801273560206801F026F8B2
:1036580002203760FDF7B4FC2068069501F0B2F847
:10366800054638B1012084F83400A36B1D43A563D7
:1036780019B0F0BD206801F0CDF8D8B1A5644FF6B7
:10368800FF75069B5A1CAB424FF00001069268D0AA
:10369800206801F0F5F80146002865D1206801F09E
:1036A800FFF8014600285FD1206800F0FFFF0028DE
:1036B800E7DA20E0A7644FF6FF76069B5A1CB34270
:1036C8004FF0000106924CD0206801F0D9F84FF075
:1036D800804105460028C5D1206801F0E1F805467B
:1036E80001460028BED1206800F0E0FFC30FE4D0F7
:1036F800420000F184800023636401232068ADF850
:10370800163000F0CFFF48B94FF08065012084F8EB
:103718003400A36B2B43A36319B0F0BD636C032B78
:1037280025D10421206800F0C1FF000DE0640DA937
:103738002046FFF78DFE226D20681204002301F059
:1037480031F805460028E1D1231D54F8106B94E8A0
:1037580007008DE8070030460ECB00F079FF2846B9
:1037680086E74FF080757DE74FF080557AE720684F
:1037780001F0BAF805460028C8D10146206800F0D3
:1037880095FF04216067206800F090FF0821A0677A
:10379800206800F08BFF0C21E067206800F086FFAE
:1037A800636CC4F88000032BBBD00DF116012068B0
:1037B80001F0B6F805460028A8D1636C032BB0D0F9
:1037C800BDF8161021652068090401F09BF805462C
:1037D80000289BD10146206800F068FF042160663C
:1037E800206800F063FF0821A066206800F05EFFF3
:1037F8000C21E066206800F059FF206791E76364B8
:103808007BE700BFA0802542C0B190F8343010B5E6
:1038180003F0FF0204466BB1032384F834302046DA
:10382800FFF7FAFE00230122A3631846236384F8F6
:10383800342010BD027702F035FCEDE70120704717
:10384800F0B4436C876CC66C056D446D826D0B607B
:10385800C36D006EC8614F608E60CD600C61002042
:103868004A618B61F0BC7047F0B5436C0322934208
:103878008BB0044680F834200E4617D0B1F5805F2F
:1038880014D0B1F5006F34D0002940D0836B43F0D9
:1038980000638363A56B85B10123226840F2FF5161
:1038A8001846916384F834300BB0F0BDA36B43F035
:1038B8008053A363A56B002DEED16269A3690796B7
:1038C800099308920AAB13E907006668E368A768DA
:1038D8000496266806938DE80700059704AB0ECB7F
:1038E800304600F0B5FE0123284684F834300BB08A
:1038F800F0BD0023194600680493059300F0D6FE36
:1039080080011DD53046A36B1843A063C2E7006849
:103918000491059100F0CAFE820105D54FF40060BC
:10392800A16B0843A063B5E704A92046FFF74EFB47
:103938000028F5D1059BDB030ED44FF08060EFE73C
:1039480004A92046FFF742FB0028DCD1059B590358
:103958000ED44FF08060D6E7216D2068090400F08E
:103968008FFF0028DCD10146206801F057F8D7E71F
:10397800216D2068090400F083FF0028C3D10221CB
:10398800206801F04BF8BEE7016D10B50904044644
:10399800006801F023F820B1A16B0843A063002060
:1039A80010BD0146206800F081FEC0F3432010BD21
:1039B8002DE9F04107460D46164698463C6801E059
:1039C800731C06D1A06835EA0003F9D00020BDE8D1
:1039D800F081FDF7EFFAA0EB08008642EED83B68CD
:1039E80079685A68B1F5827F22F0E0025A6015D0F2
:1039F800BA6AB2F5005F08D00122002387F8512087
:103A080087F850300320BDE8F0811A6822F400528C
:103A18001A601A6842F400521A60EDE7BA68B2F503
:103A2800004F02D0B2F5806FE2D11A6822F040024E
:103A38001A60DDE770B54568B5F5827F0446134620
:103A480018D00A460121FFF7B3FF88B1636D43F030
:103A580020036365032070BD0068026822F04002FD
:103A680002600A4620468021FFF7A2FF0028EDD118
:103A7800002070BD8268B2F5004FEDD0B2F5806FBE
:103A8800EFD10668356825F040050A463560012102
:103A9800FFF78EFF0028D9D1EAE700BF70B5164BB3
:103AA800164D1B684668A5FB035382B05B0D4FF4A7
:103AB8007A7505FB03F3B6F5827F0446019307D1B7
:103AC8000CE0019B2268013B019393681B0602D519
:103AD800019B002BF5D1002002B070BD13460A46A9
:103AE8008021FFF765FF0028F5D0636D43F02003C0
:103AF80063650320F0E700BF0C000020819F5E167D
:103B08002DE9F043044683B0012084F850000F46A5
:103B1800904699460A9DFDF74DFA94F85120616840
:103B2800D2B2012A064611D0B1F5827F09D002200F
:103B38000122002384F8512084F8503003B0BDE8F6
:103B4800F083A368002BF2D1042AF0D1002F5CD0B7
:103B5800B8F1000F59D0B9F1000F56D094F8513090
:103B68002268C4F83880042B1CBF052384F8513020
:103B780000236365A4F83E90A4F836901068A4F872
:103B88003C9040062763A4F834902364636403D40C
:103B9800136843F040031360E368B3F5006F52D035
:103BA800002941D13B781373E38E226B013B9BB212
:103BB8000132E38622630127E38E9BB21BB9E38FB0
:103BC8009BB2002B34D023689A68910703D5E28E04
:103BD80092B202B1DFB99A68D2070DD5E28F92B2DC
:103BE80052B1A26BDB681370E38FA26B013B9BB2EF
:103BF8000132E387A2630127FDF7DCF9801B8542C8
:103C0800DAD86B1CD8D0032092E7012090E7226B0A
:103C180012781A73E28E216B2368013A92B201314D
:103C2800E28621630027D6E7B9F1010FC3D1B9E7CE
:103C3800324629462046FFF731FF002844D020238A
:103C48006365012074E7002935D0B9F1010F32D03E
:103C58000127E38E9BB21BB9E38F9BB2002BE7D001
:103C680023689A68910703D5E28E92B202B1BFB970
:103C78009A68D2070CD5E28F92B24AB1A26BDB6880
:103C880022F8023BE38FA263013B9BB2E387012743
:103C9800FDF790F9801BA842DBD3681CD9D0B2E7A6
:103CA800216B31F8022BDA60E28E2163013A92B27D
:103CB800E2860027DCE737F8023BD360E38E276310
:103CC800013B9BB2E386C3E7A368002B7FF430AFC8
:103CD80023680190DA6801929B680193019B27E7AA
:103CE80000283AD090F85120F8B50025044602F093
:103CF800FF0185625AB3A7686368E668206962694C
:103D0800E1693B43334303431343266AA0692768A9
:103D1800626A0B43022184F851103968334300F476
:103D28000076000C334300F004002B43024321F0DB
:103D3800400139603B607A60FB69002223F400632C
:103D48000121FB611046626584F85110F8BD80F8C6
:103D5800501002F0F7F9A56ACDE70120704700BFBF
:103D68002DE9F04190F85040012C82B003D1022097
:103D780002B0BDE8F0811D46012380F850300446AA
:103D880017468846FDF716F9064694F85100C0B262
:103D9800012809D002200122002384F8512084F848
:103DA800503002B0BDE8F081B8F1000FF3D0002F19
:103DB800F1D0A268C4F8308000230321B2F5004F87
:103DC80084F85110A3636365A38763642364E7865B
:103DD800A786E38723684ED01A68520603D41A6868
:103DE80042F040021A60E268B2F5006F626847D09C
:103DF800002A35D0012F33D0E18E89B289B12368EA
:103E08009A68920723D5226B12781A73E18E236B76
:103E1800013989B2E186E18E013389B22363002931
:103E2800EDD1324629462046FFF738FE08B1202357
:103E38006365A36833B922680193D36801939368D3
:103E48000193019B606D003018BF0120A3E7FDF7C7
:103E5800B1F8801B8542CFD86B1CCDD003209AE7E0
:103E680098F800201A73E38E226B013B9BB2013253
:103E7800E3862263C0E71A6842F480421A60ABE71F
:103E8800FAB1012F1DD0E38E9BB2002BC9D0236855
:103E98009A6890070DD5226B32F8021BD960E38E21
:103EA8002263013B9BB2E386E38E9BB2002BEED1EB
:103EB800B7E7FDF77FF8801BA842E4D3691CE2D07E
:103EC800CCE7414631F8022BDA60E38E2163013BEF
:103ED8009BB2E386D7E700BF2DE9F0414568B5F509
:103EE800827F82B0044617461E4688461CD094F846
:103EF8005010012903D1022002B0BDE8F08101234E
:103F080084F85030FDF756F8054694F85100C0B2D1
:103F1800012819D002200122002384F8512084F8B6
:103F2800503002B0BDE8F0818368002BDFD190F8F3
:103F380050300422012B80F85120DCD000963B46FB
:103F48000A46FFF7DDFDD7E7B8F1000FE3D0002FF1
:103F5800E1D0A268C4F8388000230421B2F5004FEC
:103F680084F8511023636365A38623646364E78739
:103F7800A787E386236850D01A68520603D41A68C4
:103F880042F040021A60E36843BBE38F9BB28BB1F7
:103F980023689A68D70737D5A26B1B7B1370E38F0A
:103FA800A26B013B9BB2E387E38F01329BB2A26312
:103FB800002BEDD12A4631462046FFF73BFD08B1DC
:103FC80020236365606D003018BF0120A3E7FCF76C
:103FD800F1FF401B864201D8731C1CD1E38F9BB2B2
:103FE800002BE7D022689368D907F0D5A36BD26875
:103FF80023F8022BE18FA363013989B2E187E38FAC
:104008009BB2002BEED1D5E7FCF7D4FF401B8642CC
:10401800BBD8701CB9D003207DE71A6822F480420F
:104028001A60A9E70368DA6842F00102DA609A6860
:1040380002F00702062A03D01A6842F001021A6049
:104048000020704790F83C30012B31D002220368E1
:10405800F0B480F83D209A680C6822F47F4222F080
:1040680077020125402C80F83C509A603CD053D907
:10407800602C70D01ED9702C5DD0B4F5005F0ED1C5
:104088008A684D68CC6899682A4342EA042221F478
:104098007F410A439A609A6842F480429A600023FA
:1040A800012280F83D2080F83C30F0BC184670476B
:1040B80002207047502CF2D11D6A1E6A4C68CF68E6
:1040C80026F001061E629A6925F00A0122F0F00224
:1040D80042EA071221439A6119629A6822F0700233
:1040E80042F057029A60DAE71D6A1E6A4C68CF6888
:1040F80026F001061E629A6925F00A0122F0F002F4
:1041080042EA071221439A6119629A6822F0700202
:1041180042F047029A60C2E7102C04D034D9202C10
:1041280001D0302CBBD19A6844F0070422F0700209
:1041380014439C60B3E78A684D68CC6899682A4341
:1041480042EA042221F47F410A439A609A6842F0C5
:1041580077029A60A3E71C6A4D68CE6824F01004C1
:104168001C6299691A6A21F4704122F0A00242EA9D
:10417800051241EA063199611A629A6822F07002C2
:1041880042F067029A608AE7002CCCD087E700BF2C
:10419800704700BF704700BF704700BF704700BF3F
:1041A800704700BF03681A69910710B5044602D525
:1041B800DA68920762D41A69500702D5DA6851079B
:1041C80049D41A69120702D5DA68100731D41A6976
:1041D800D20602D5DA68D00618D41A69D10702D5F2
:1041E800DA68D2076BD41A69100602D5DA681106A4
:1041F8006DD41A69520602D5DA68500657D41A697E
:10420800910602D5DA68920649D410BD6FF0100203
:104218001A61DB69082213F4407F2277204661D1B6
:10422800FFF7B8FF2046FFF7B9FF0022236822777F
:10423800D3E76FF008021A61DB6904229907227735
:10424800204655D1FFF7A6FF2046FFF7A7FF00221B
:1042580023682277BBE76FF004021A619B69022288
:1042680013F4407F227720463FD1FFF793FF204683
:10427800FFF794FF002223682277A2E76FF002027B
:104288001A619B6901229B07027728D1FFF782FFF9
:104298002046FFF783FF0022236822778BE76FF021
:1042A800200220461A61BDE8104000F0E1B86FF026
:1042B80040021A612046FFF773FF23689FE76FF0FB
:1042C80001021A612046FFF763FF23688BE76FF04E
:1042D80080021A61204600F0CDF8236889E7FFF7CD
:1042E8005BFFD8E7FFF758FF9FE7FFF755FFC1E7E8
:1042F800FFF752FFABE700BF3C4A03689042F0B4B7
:1043080059D0B0F1804F68D0A2F57C42904227D0B6
:1043180002F58062904223D002F5806290421FD05D
:1043280002F5784290421BD002F57052904231D08B
:1043380002F5806290422DD002F58062904229D029
:10434800A2F59832904225D002F58062904221D0A1
:1043580002F5806290421DD04D698C680A6820E0A1
:104368004A68CE684C698F680D6823F07003134360
:1043780023F440731E4A334323F0800323439042BF
:104388000360C762856201D10B690363012343613E
:10439800F0BC7047CE684D698C680A6823F4407396
:1043A800334323F080032B4303600123C4628262FA
:1043B800F0BC436170474D68CC684A6923F07003CC
:1043C8002B4323F44073234323F0800313430360F8
:1043D8008B68C3620B688362D6E74F68CE684D6905
:1043E8008C680A6823F070033B43D7E7000001405C
:1043F80000040140B8B190F83D3010B503F0FF0259
:1044080004465BB1022384F83D302068211DFFF784
:1044180073FF012384F83D30002010BD80F83C2054
:1044280001F0EAFEEEE70120704700BF90F83C205B
:10443800012A1AD070B40222046880F83D2003468D
:104448006068A2680E684D6822F0800220F0700152
:1044580031432A430126002561602846A26083F87B
:104468003D6083F83C5070BC70470220704700BF25
:10447800704700BF704700BF124B134A1B68A2FB6E
:1044880003235A0A41F28833014603FB02F303E08F
:104498004A6B12F0450F05D113F1FF33F8D24FF0F4
:1044A800004070474B6B5B0702D504208863704758
:1044B800486B10F0010015BF012040F2FF538863DC
:1044C8008B6370470C000020D34D62100F4B104ACD
:1044D8001B68A2FB03235A0A41F28833014603FBF7
:1044E80002F303E04A6B12F0450F05D113F1FF33D5
:1044F800F8D24FF000407047486B10F0040015BF29
:10450800042040F2FF5388638B6370470C0000203F
:10451800D34D62104B4B10B41B684B4CA4FB0343A8
:104528005B0A83B002FB03F27AB1436B13F0450FC9
:1045380002F1FF32F8D0436B5C070CD50423836388
:10454800184603B05DF8044B70474FF0004003B0C5
:104558005DF8044B7047436B13F0010305D1026902
:10456800D2B2914205D00120F1E7012383631846B6
:10457800EDE700F1140240F2FF51816301930192CB
:10458800019B32481B6818400028E0D0002B03DB51
:104598005A0004D54020DAE74FF00070D7E79C00B6
:1045A80001D58020D3E7D90002D54FF48070CEE73B
:1045B8001A0102D54FF40070C9E75C0102D54FF427
:1045C8008060C4E7D90102D54FF40060BFE71A0242
:1045D80002D54FF48050BAE75C0202D54FF4005080
:1045E800B5E7990202D54FF48040B0E7DA0202D568
:1045F8004FF40040ABE75C0302D54FF40030A6E768
:10460800990302D54FF48020A1E7DA0302D54FF4CD
:1046180000209CE71C0402D54FF4801097E759044A
:1046280002D54FF4001092E79A0402D54FF48000A7
:104638008DE713F0080F14BF4FF400004FF48030DB
:1046480085E700BF0C000020D34D621008E0FFFD95
:1046580084B070B404AC84E80E00059E069A079DE9
:10466800089C0B46334313432B4342680999234361
:1046780070BC22F4FD420B4322F07F0213434360D7
:1046880004B00020704700BFD0F88000704700BF1A
:104698000B68C0F880300020704700BF0323036018
:1046A80000207047006800F00300704782B01430A3
:1046B8000144002301930191019B186802B07047DF
:1046C8000A1D30B42CCA0C6844620C698262C26A42
:1046D80049692B43234322F0F7020B431343C36278
:1046E80030BC0020704700BF8160C36823F47F633B
:1046F80023F00F0343F48A63C36041F28832102128
:10470800FFF708BF8160C36823F47F6323F00F03BA
:1047180043F48A6343F00103C36041F288321121F4
:10472800FFF7F8BE8160C36823F47F6323F00F03AB
:1047380043F48A6343F00203C36041F288321221D2
:10474800FFF7E8BE8160C36823F47F6323F00F039B
:1047580043F48B63C36041F288321821FFF7DABE55
:104768008160C36823F47F6323F00F0343F48B63F2
:1047780043F00103C36041F288321921FFF7CABE32
:1047880000238360C368064A23F47F6323F00F0382
:1047980043F4896343F00403C3600C21FFF7BABEF6
:1047A80000E1F5058260C36823F47F6323F00F03FB
:1047B80043F4886343F00703C36041F2883207215A
:1047C800FFF7A8BE00238360104BC26810491B681E
:1047D80022F47F62A1FB031322F00F02590A42F46C
:1047E800806241F28833C26003FB01F302E0426B4E
:1047F800120605D413F1FF33F9D24FF00040704789
:1048080040F2FF5383630020704700BF0C00002074
:10481800D34D62104FF4D5738360174BC2681B6881
:104828000146164822F47F62A0FB030322F00F0220
:10483800580A42F4896241F28833CA6003FB00F3E4
:1048480003E04A6B12F0450F05D113F1FF33F8D29C
:104858004FF000407047486B10F0040003D040232D
:104868008B63042070474B6B13F0400302D0402346
:104878008B637047184670470C000020D34D6210B8
:104888008160C36823F47F6323F00F0343F48E63CE
:1048980043F00703C36041F288323721FFF73ABE7D
:1048A80041F0004141F480118160C36823F47F63C3
:1048B80023F00F0343F48D6343F00103C360FFF754
:1048C80005BE00BF00238360C36823F47F6323F021
:1048D8000F0343F48E6343F00303C36041F288324D
:1048E8003321FFF717BE00BF00238360C36823F49A
:1048F8007F6323F00F0343F4986343F00203C3601C
:10490800FFF7BABD8160C36823F47F6323F00F0308
:1049180043F4996343F00103C360FFF7ADBD00BFE3
:10492800002310B48360C2682A4B2B4C1B6822F406
:104938007F6222F00F02A4FB034342F488625C0A00
:1049480042F0030241F2883383B0C26003FB04F3F0
:1049580003E0426B12F0450F08D113F1FF33F8D290
:104968004FF0004003B05DF8044B7047436B5C07A1
:1049780006D504238363184603B05DF8044B7047DB
:10498800436B13F0010305D10269D2B2032A05D0A3
:104998000120E7E7012383631846E3E700F11402E7
:1049A80040F2FF54846301930192019B1B6813F446
:1049B800604004D05A0405D54FF40050D2E71B0CD0
:1049C8000B80CFE713F4004F14BF4FF480504FF41F
:1049D8008030C7E70C000020D34D62108160C368A7
:1049E80023F47F6323F00F0343F4896343F0050343
:1049F800C36041F288320D21FFF78CBD8160C36826
:104A080023F47F6323F00F0343F4886343F0060322
:104A1800C36041F288320621FFF77CBDFFF7EEBF85
:104A280080B487B000AFF860B9601346FB7101230A
:104A3800FB750023BB751F4B5B7ADBB2002B31D1B2
:104A48001C4B5B7ADBB21A461A4B00219954194B5E
:104A58005B7ADBB2174A9B001344FA685A60154B1D
:104A68005B7ADBB21A46134B1344FA791A72114B6C
:104A78005B7ADBB25A1CD1B20E4A5172BB75BB7D50
:104A88003033DAB2BB681A70BB6801333A221A7045
:104A9800BB6802332F221A70BB68033300221A70D6
:104AA8000023FB75FB7D18461C37BD465DF8047B6B
:104AB800704700BF9400002080B582B000AF7860D6
:104AC8003960002239687868FFF7AAFF034618465C
:104AD8000837BD4680BD00002DE9F84301EB4106CB
:104AE8000D4606F1080121F0070100AF9946ADEB2C
:104AF800010DF72390464946013604461046002228
:104B08008DF80030FDF77AF832466946386A0A238C
:104B1800FFF7E2F9494640460122FDF76FF885B1F3
:104B280005EB45056D44201F6A469378547812F8C2
:104B3800031F1B0143EA04330B43954240F8043F2B
:104B4800F3D1BD46BDE8F8832DE9F04182B002AC4F
:104B580060F07F000E4604F8040D002598461746BD
:104B6800114630462A468DF805508DF80650FDF757
:104B780045F821460A2340460322FFF7ADF930469F
:104B880039460122FDF73AF89DF806009DF80530F0
:104B980043EA002002B0BDE8F08100BFF8B5044642
:104BA80008200D4616461F46FFF7CEFF3B462080DD
:104BB800324629460A20FFF7C7FF3B46A080324607
:104BC80029460C20FFF7C0FF3B46E08032462946C5
:104BD8000E20FFF7B9FF3B46608032462946102079
:104BE800FFF7B2FF3B462081324629461220FFF7E5
:104BF800ABFF3B466081324629461420FFF7A4FFED
:104C08003B46A081324629461620FFF79DFF3B46CA
:104C1800E081324629461820FFF796FF3B4620825E
:104C2800324629461A20FFF78FFF3B4660823246FC
:104C380029461C20FFF788FF3B46A08232462946BA
:104C48001E20FFF781FFE082F8BD00BF2DE9F0418B
:104C580084B004AB002703F8017D0D4604461646D0
:104C6800194600922B460246D02001F017F82B4631
:104C78002246B6210096E0209DF80F8001F034F816
:104C88000A20FCF79DF900962B4622463321742012
:104C980001F02AF801280DD000962B46224614214F
:104CA800752001F021F801280CBF3846002004B017
:104CB800BDE8F081A8F15807B7FA87F77F09EBE755
:104CC80082B02DE9F04F85B00EAC84E80C00466840
:104CD800BDF83850BDF93C30BDF93E20C5EB26146F
:104CE8006D0004FB04F4C5EBE605241303FB05F390
:104CF80002FB04F2DB1203EBA23202EB82048034E3
:104D080024120C60002B00F0D580BDF94640D0F885
:104D180000E00391D317B2F5FA3243F1FF3304FBF5
:104D280003F6E517A4FB020102FB056631444F04B4
:104D380047EAD0374604BDF94400BDF94880A2FBD4
:104D4800024502FB03FCCEF5801E05EB4C054FEA3D
:104D5800C00B704608FB05FCC1174FEAE87904FB55
:104D680009CCCDE90001A8FB048918EB0608019ECF
:104D7800E1444FF0000A49EB07094FEACE7018EBFF
:104D88000A084FEAC67141EA5E0149EB0B09B0EB2C
:104D9800080861EB090918EB080649EB090716EB47
:104DA800080647EB0907B901B001801941EA966185
:104DB800BDF94060BDF942A0794106FB03F3F7173E
:104DC8004FEAEA7B0AFB05FE02FB0737A6FB022334
:104DD80004FB0BEE3B44AAFB044575444FEA142A36
:104DE8004FEA810E1F0383004EEA907E160313EBF1
:104DF80008004AEA056A4EEB090147EA12571AEB1E
:104E0800060ABDF83A204FEA252B4BEB070B1AF19F
:104E1800000AAAFB02454BF5004B8E00830002FBFB
:104E28000B5546EA907613EB080046EB09016A1029
:104E3800EB17FBF79DFEBDF94E204C13450B45EAD9
:104E4800C14502FB04F6D31705FB0366A2FB052345
:104E58003344BDF94C6002FB04F405FB034406FB34
:104E680001FEA2FB0523F717234400FB07EE540EAF
:104E7800A6FB0067774444EAC3144FEAD6480019F2
:104E88004FEA636548EA473869414FEAE74918EB52
:104E98000008BDF94A4049EB01094FEA182040EAE9
:104EA80009602201039912184A6005B0BDE8F04F65
:104EB80002B070474B6005B0BDE8F04F02B07047D4
:104EC80084B0F0B589B00025179CBDF858700094DF
:104ED8000FAC84E80E0006463B4606A8159A0595D1
:104EE8000221049506950795FFF7F6FD11AB0FCB48
:104EF8008DE80F0004A994E80C0006A8FFF7E0FE6F
:104F0800049A059B86E80C0009B0BDE8F04004B09F
:104F1800704700BF38B5054600680C46FBF7C2FA73
:104F28000022084BFBF74EFCFBF7D2FD20606868B7
:104F3800FBF7B8FA0022044BFBF71AFBFBF7C8FD96
:104F4800606038BD000059400000703F2DE9F04115
:104F580084B004AB002403F8014D0E4605461746FD
:104F68001946009233460246752000F097FE3346F4
:104F78002A46802100976B209DF80F8000F0B4FE30
:104F88000A20FCF71DF8009733462A464021702076
:104F980000F0AAFE012855D033462A460097012181
:104FA8006B2000F0A1FE334601282A464FF000018D
:104FB80000974FF06C0018BF0C4600F095FE334682
:104FC80001282A4600974FF007014FF0190018BF33
:104FD800002400F089FE334601282A4600974FF046
:104FE80001014FF01A0018BF002400F07DFE33467F
:104FF80001282A4600974FF018014FF01C0018BFEF
:10500800002400F071FE334601282A4600974FF02D
:1050180002014FF01D0018BF002400F065FE009744
:10502800012833462A464FF008014FF01B0018BFED
:10503800002400F059FE01280CBF2046002004B0CF
:10504800BDE8F081A8F11204B4FA84F46409A3E776
:10505800F0B587B004460025019300920B4607225D
:1050680002A93B20039502950495ADF8145000F071
:105078006DFEBDF80870BDF80A60BDF80C50BDF8AB
:105088000E00BDF81010BDF81220BDF814302780AE
:105098006680A580E08021816281A38107B0F0BD90
:1050A800002A72D02DE9F84F3AA7D7E9006793464E
:1050B8004FF000084FF07D5901F11C0500F10E0476
:1050C8004FF0000A34F90E0CFBF7ECF942464B4658
:1050D800FBF74EFAFBF7FCFC45F81C0C34F90C0CFA
:1050E800FBF7E0F942464B46FBF742FAFBF7F0FCC8
:1050F80045F8180C34F90A0CFBF7D4F942464B462C
:10510800FBF736FAFBF7E4FC45F8140C34F9080C05
:10511800FBF7C8F921A3D3E90023FBF753FB0022CF
:105128001B4BFBF773F8FBF7D3FC45F8100C34F96D
:10513800060CFBF7B7F932463B46FBF743FBFBF798
:10514800C7FC45F80C0C34F9040CFBF7ABF93246F4
:105158003B46FBF737FBFBF7BBFC45F8080C34F97B
:10516800020CFBF79FF932463B46FBF72BFBFBF79C
:10517800AFFC0AF1010AD34545F8040C04F10E040A
:1051880005F11C059ED1BDE8F88F7047AFF300808C
:10519800000039400000000000605040CDCCCCCC6D
:1051A800CC6C74402DE9F04184B004AB002403F8C2
:1051B800014D0E46054617461946009233460246EB
:1051C8008F2000F06BFD33462A46042100972120EA
:1051D8009DF80F8000F088FD0A20FBF7F1FE00978C
:1051E80033462A461021202000F07EFD012818D0E1
:1051F80033462A4600970E21232000F075FD002132
:105208000128009733462A464FF0220018BF0C4663
:1052180000F06AFD01280CBF2046002004B0BDE85C
:10522800F081A8F13D04B4FA84F46409E0E700BF12
:1052380030B585B00446019300920B46002502A9BB
:105248000322E820ADF80C50029500F07FFDBDF870
:105258000810BDF80A20BDF80C3021806280A380B8
:1052680005B030BD0000000038B50546B0F90000B3
:105278000C46FBF717F910A3D3E90023FBF7A2FAB2
:10528800FBF726FC2060B5F90200FBF70BF90AA32F
:10529800D3E90023FBF796FAFBF71AFC6060B5F92F
:1052A8000400FBF7FFF804A3D3E90023FBF78AFA0D
:1052B800FBF70EFCA06038BD0000000000BABA4041
:1052C80000B585B004AA002322F8043D0A23009300
:1052D80050210223FCF726FE9DF80C009DF80D30A6
:1052E80043EA002005B05DF804FB00BFA0F2666049
:1052F80007EE900AB8EEE77ADFED107ADFED105A84
:105308009FED106ADFED106A27EE277A08B5C7EE21
:10531800257A77EE867A77EEA77A87EEA67A17EE61
:10532800100AFBF7D1F841EC100B01F077F851ECBB
:10533800100BFBF7CDFB00EE100A08BD805428487F
:1053480000CC4C4600000000CDCC9C3F00B583B09B
:1053580001208DF807009DF80730834202D003B082
:105368005DF804FB0648FEF74FFA0028F7D14FF422
:1053780000610348FEF778FA003018BF0120EEE715
:10538800A023002000B583B0009313460A460146C7
:105398000448FDF789FE003018BF012003B05DF80E
:1053A80004FB00BFA023002000B583B00093134680
:1053B8000A4601460448FDF775FF003018BF012072
:1053C80003B05DF804FB00BFA023002008B5034824
:1053D800FEF7DAFA043818BF012008BDA023002020
:1053E80001460148FEF72CBAA023002008B503495E
:1053F8000348FFF761FB034B187008BDCC00002081
:105408005C660008C800002070B50021ACB00C46EE
:1054180008A8342200F0F9FF214615A85C2204945C
:10542800039405940694079400F0EFFF244B01942D
:10543800196C244A41F0805119641B6C03F08053A5
:105448000193019B0294136823F4404343F480437F
:105458001360136803F4404302934FF4A02205231A
:105468000225029908930A930C2109920A236022C3
:1054780008A84FF480060F961091119213930E9579
:10548800129514950F26FDF7DBF94FF4A0524FF44F
:105498008053032103A80692079304950594039665
:1054A800FCF7B0FE4FF448724FF4807315A82A94A5
:1054B800269415922593FCF74FFF2CB070BD00BFC2
:1054C800003802400070004070B5364A06460D4666
:1054D80035484FF40061FFF739FD344A10F1FF34C5
:1054E8004FF40041304818BF0124FFF72FFD2D4A23
:1054F80001284FF400712C4818BF44F00204FFF74C
:10550800A5FB2A4A01284FF40051294818BF44F046
:105518000404FFF79BFB0128224A23484FF48061CB
:105528001CD0FFF73FFE012844F008042BD030467A
:105538001C4B1D494FF40072FFF730FB28461B4BEC
:105548001B494FF4005244F01004FFF727FB0022D8
:1055580008211748FCF752FB204670BDFFF722FED2
:105568000128E4D130460F4B0F494FF40072FFF782
:1055780015FB28460D4B0E494FF40052FFF70EFB62
:10558800002CE9D0E3E73046064B07494FF4007298
:10559800FFF704FB2846054B05494FF40052FFF777
:1055A800FDFAD4E7342100200000024080220020C8
:1055B800000802402DE9F0432F4D304EDFF8D0901F
:1055C8002F4CBFB04FF0DC080746424607A8002121
:1055D80000F01BFF07A8334629464FF40062FFF787
:1055E80037FD29464B462AA84FF40042FFF730FD05
:1055F8002346059653F80C0FD4F800E059689A68CA
:1056080003954FF4007C6B46CDF810C007C3714674
:105618006268A3681B4C38A8FFF752FC1A4BCDF8F8
:1056280014901A464FF4005E52F80C0FD3F800C0DD
:1056380051689268CDF810E0D3F804E09B680394B1
:105648006C4607C4614672463AA8FFF739FC3346F0
:1056580029464FF480623CA8FFF7EAFD0B48FFF7A4
:105668002FFE4246ADF8F60007A9384600F0C2FE04
:1056780038463FB0BDE8F0830000024034210020E6
:105688006424002000080240D4210020EC210020DE
:105698008022002084B070B5EAB06FAC4FF4D476A5
:1056A80084E80E00054632466846002100F0ADFE4B
:1056B800204669460A22FFF7F3FC042246A992A86D
:1056C800FFF7EEFC62A9A0A8FFF724FC64A9A2A832
:1056D800FFF720FC66A9A4A8FFF7C6FDBDF896024F
:1056E800FFF704FE3246694628468DED690A00F048
:1056F80081FE28466AB0BDE8704004B0704700BF1C
:105708002DE9F04FADF55D7D0025B34CADF8D050D7
:10571800ADF8D250FBF728FCFFF776FE3695729568
:105728007395749575957695236BAC48DFF8E09280
:1057380043F004032363236B03F004033693369B7F
:105748003795236B43F080032363236B03F08003B7
:105758003793379B3895236B43F001032363236BFF
:1057680003F001033893389B3995236B43F0020308
:105778002363236B03F002033993399B3A95236B18
:1057880043F008032363236B03F008033A930122D1
:105798004FF400513A9BFCF731FA2A462C218F48E6
:1057A800FCF72CFA2A4604218D48FCF727FA012237
:1057B8004FF41E418A48FCF721FA2A464FF48071BB
:1057C8008848FCF71BFA012742F20C0372A98348A8
:1057D80074954FF0030A759572937397FCF700F967
:1057E800C32372A97D4874957293CDF8CCA1FCF7B8
:1057F800F7F8E92372A97A48CDF8CCA14FF002084E
:1058080074957293FCF7ECF8774B7548739372A90B
:105818004FF0040B7495CDF8C881FCF7E1F872A934
:105828006F48749510267595CDF8C8B17397FCF735
:10583800D7F872A96A48739572967497FCF7D0F8EE
:1058480072A9664872967395CDF8D081FCF7C8F8AE
:10585800202372A9614872937495CDF8D481739707
:10586800FCF7BEF872A95F48CDF8C8B17395749576
:10587800FCF7B6F84FF4B05372A95A48CDF8CCA14A
:1058880074954FF4807A7293FCF7AAF8574B5448F2
:10589800749572A97393CDF8C8A1FCF7A1F84FF4D9
:1058A8001E4372A94E4872937495CDF8D4817397AC
:1058B800FCF796F872A94B48CDF8C8A17495759570
:1058C8007397FCF78DF82A4629460720FBF76AFEEE
:1058D8000720FBF79DFE2A4629461720FBF762FEA4
:1058E8001720FBF795FE3595236BDFF828A143F4C5
:1058F80080032363236B03F480032A4629463593E8
:105908003820359BFBF74EFE3820FBF781FE2946F1
:105918002A463A20FBF746FE3A20FBF779FE344B3D
:10592800344A9D604FF4827B4FF400780A2418466D
:10593800DD601D615D61DE611D625D629D621A60F0
:10594800C3F804B0C3F81880DC62FEF7C9F92A4B23
:105958002A4ADE611846C3F804B09D60DD601D6107
:105968005D61C3F818801D625D629D62DC621A6029
:10597800FEF7B6F9224B2349234C59604FF4804275
:1059880018461A619D60DD605D619D61DD611D6283
:105998001C60FCF70FFA1D4BDFF87C8072954FF402
:1059A8004034484689E81800739574957595C9F888
:1059B8000850C9F8105089F8185089F82050C9F8CB
:1059C8002C50C9F80C5089F83050C9F828A0C9F8EB
:1059D8001C70C9F8147021E0003802400008024029
:1059E80000000240000402400000211000001110D5
:1059F800342100200038004080220020003C004074
:105A0800EC210020A0860100005400400020014045
:105A1800D82200200100000F8C210020FBF7E2FAB9
:105A2800092372A94846DFF860B272937397749796
:105A3800FBF7EEFC874BC8F8044040463BAC729538
:105A4800739574957595C8F828A0C8F80850C8F8D3
:105A5800105088F8185088F82050C8F82C50C8F80A
:105A68000C5088F83050C8F80030C8F81C70C8F8D6
:105A78001470FBF7B7FA082372A94046729373971C
:105A88007497FBF7C5FCFF237349CBF80C307F22D2
:105A98005846CBF80010CBF80450CBF81050CBF890
:105AA8001450CBF81850CBF808207295739574955C
:105AB800759576952560FDF703F92A46584672A92B
:105AC8008DF8C8518DF8C9518DF8CA5175957695DC
